{
  "address": "0x2c6E61EfB9EdbCF2F5fFdAC52F65F8Dec0bD98dd",
  "abi": [
    {
      "inputs": [
        {
          "internalType": "address",
          "name": "target",
          "type": "address"
        }
      ],
      "name": "AddressEmptyCode",
      "type": "error"
    },
    {
      "inputs": [
        {
          "internalType": "address",
          "name": "account",
          "type": "address"
        }
      ],
      "name": "AddressInsufficientBalance",
      "type": "error"
    },
    {
      "inputs": [
        {
          "internalType": "uint256",
          "name": "assetId",
          "type": "uint256"
        }
      ],
      "name": "AssetNotClosedForRelisting",
      "type": "error"
    },
    {
      "inputs": [
        {
          "internalType": "uint256",
          "name": "assetId",
          "type": "uint256"
        }
      ],
      "name": "AssetNotEligibleForTokenization",
      "type": "error"
    },
    {
      "inputs": [
        {
          "internalType": "uint256",
          "name": "assetId",
          "type": "uint256"
        }
      ],
      "name": "AssetNotEligibleForWholePurchase",
      "type": "error"
    },
    {
      "inputs": [
        {
          "internalType": "uint256",
          "name": "assetId",
          "type": "uint256"
        }
      ],
      "name": "AssetNotOpenForInvestment",
      "type": "error"
    },
    {
      "inputs": [
        {
          "internalType": "uint256",
          "name": "assetId",
          "type": "uint256"
        },
        {
          "internalType": "address",
          "name": "caller",
          "type": "address"
        },
        {
          "internalType": "uint256",
          "name": "balance",
          "type": "uint256"
        },
        {
          "internalType": "uint256",
          "name": "supply",
          "type": "uint256"
        }
      ],
      "name": "CallerDoesNotHoldFullSupply",
      "type": "error"
    },
    {
      "inputs": [
        {
          "internalType": "address",
          "name": "implementation",
          "type": "address"
        }
      ],
      "name": "ERC1967InvalidImplementation",
      "type": "error"
    },
    {
      "inputs": [],
      "name": "ERC1967NonPayable",
      "type": "error"
    },
    {
      "inputs": [],
      "name": "EnforcedPause",
      "type": "error"
    },
    {
      "inputs": [],
      "name": "ExpectedPause",
      "type": "error"
    },
    {
      "inputs": [],
      "name": "FailedInnerCall",
      "type": "error"
    },
    {
      "inputs": [
        {
          "internalType": "uint256",
          "name": "provided",
          "type": "uint256"
        },
        {
          "internalType": "uint256",
          "name": "maximum",
          "type": "uint256"
        }
      ],
      "name": "FeeBpsExceedsMaximum",
      "type": "error"
    },
    {
      "inputs": [
        {
          "internalType": "uint256",
          "name": "requested",
          "type": "uint256"
        },
        {
          "internalType": "uint256",
          "name": "available",
          "type": "uint256"
        }
      ],
      "name": "InsufficientSharesAvailable",
      "type": "error"
    },
    {
      "inputs": [],
      "name": "InvalidInitialization",
      "type": "error"
    },
    {
      "inputs": [],
      "name": "InvalidPricePerShare",
      "type": "error"
    },
    {
      "inputs": [],
      "name": "InvalidShareSupply",
      "type": "error"
    },
    {
      "inputs": [
        {
          "internalType": "uint256",
          "name": "assetId",
          "type": "uint256"
        },
        {
          "internalType": "address",
          "name": "investor",
          "type": "address"
        },
        {
          "internalType": "uint256",
          "name": "cap",
          "type": "uint256"
        },
        {
          "internalType": "uint256",
          "name": "requested",
          "type": "uint256"
        }
      ],
      "name": "InvestorCapExceeded",
      "type": "error"
    },
    {
      "inputs": [
        {
          "internalType": "uint256",
          "name": "assetId",
          "type": "uint256"
        }
      ],
      "name": "NoProceeds",
      "type": "error"
    },
    {
      "inputs": [
        {
          "internalType": "uint256",
          "name": "assetId",
          "type": "uint256"
        },
        {
          "internalType": "address",
          "name": "caller",
          "type": "address"
        }
      ],
      "name": "NotAssetOwner",
      "type": "error"
    },
    {
      "inputs": [],
      "name": "NotInitializing",
      "type": "error"
    },
    {
      "inputs": [
        {
          "internalType": "address",
          "name": "owner",
          "type": "address"
        }
      ],
      "name": "OwnableInvalidOwner",
      "type": "error"
    },
    {
      "inputs": [
        {
          "internalType": "address",
          "name": "account",
          "type": "address"
        }
      ],
      "name": "OwnableUnauthorizedAccount",
      "type": "error"
    },
    {
      "inputs": [
        {
          "internalType": "uint256",
          "name": "expected",
          "type": "uint256"
        },
        {
          "internalType": "uint256",
          "name": "provided",
          "type": "uint256"
        }
      ],
      "name": "PaymentMismatch",
      "type": "error"
    },
    {
      "inputs": [],
      "name": "ReentrancyGuardReentrantCall",
      "type": "error"
    },
    {
      "inputs": [
        {
          "internalType": "address",
          "name": "token",
          "type": "address"
        }
      ],
      "name": "SafeERC20FailedOperation",
      "type": "error"
    },
    {
      "inputs": [],
      "name": "UUPSUnauthorizedCallContext",
      "type": "error"
    },
    {
      "inputs": [
        {
          "internalType": "bytes32",
          "name": "slot",
          "type": "bytes32"
        }
      ],
      "name": "UUPSUnsupportedProxiableUUID",
      "type": "error"
    },
    {
      "inputs": [
        {
          "internalType": "address",
          "name": "caller",
          "type": "address"
        }
      ],
      "name": "UnauthorizedCaller",
      "type": "error"
    },
    {
      "inputs": [
        {
          "internalType": "string",
          "name": "field",
          "type": "string"
        }
      ],
      "name": "ZeroAddressArgument",
      "type": "error"
    },
    {
      "inputs": [],
      "name": "ZeroPurchaseAmount",
      "type": "error"
    },
    {
      "anonymous": false,
      "inputs": [
        {
          "indexed": true,
          "internalType": "uint256",
          "name": "assetId",
          "type": "uint256"
        },
        {
          "indexed": true,
          "internalType": "address",
          "name": "newOwner",
          "type": "address"
        },
        {
          "indexed": false,
          "internalType": "uint128",
          "name": "newTotalShares",
          "type": "uint128"
        },
        {
          "indexed": false,
          "internalType": "uint128",
          "name": "newPricePerShare",
          "type": "uint128"
        },
        {
          "indexed": false,
          "internalType": "uint32",
          "name": "relistCount",
          "type": "uint32"
        }
      ],
      "name": "AssetRelisted",
      "type": "event"
    },
    {
      "anonymous": false,
      "inputs": [
        {
          "indexed": true,
          "internalType": "uint256",
          "name": "assetId",
          "type": "uint256"
        },
        {
          "indexed": true,
          "internalType": "address",
          "name": "tokenContract",
          "type": "address"
        },
        {
          "indexed": false,
          "internalType": "uint128",
          "name": "totalShares",
          "type": "uint128"
        },
        {
          "indexed": false,
          "internalType": "uint128",
          "name": "pricePerShare",
          "type": "uint128"
        }
      ],
      "name": "AssetTokenized",
      "type": "event"
    },
    {
      "anonymous": false,
      "inputs": [
        {
          "indexed": true,
          "internalType": "address",
          "name": "treasury",
          "type": "address"
        },
        {
          "indexed": false,
          "internalType": "uint256",
          "name": "amount",
          "type": "uint256"
        }
      ],
      "name": "FeesSweptToTreasury",
      "type": "event"
    },
    {
      "anonymous": false,
      "inputs": [
        {
          "indexed": true,
          "internalType": "uint256",
          "name": "assetId",
          "type": "uint256"
        },
        {
          "indexed": true,
          "internalType": "address",
          "name": "investor",
          "type": "address"
        },
        {
          "indexed": false,
          "internalType": "uint256",
          "name": "shareAmount",
          "type": "uint256"
        },
        {
          "indexed": false,
          "internalType": "uint256",
          "name": "paymentAmount",
          "type": "uint256"
        },
        {
          "indexed": false,
          "internalType": "uint256",
          "name": "feeTaken",
          "type": "uint256"
        }
      ],
      "name": "FractionPurchased",
      "type": "event"
    },
    {
      "anonymous": false,
      "inputs": [
        {
          "indexed": false,
          "internalType": "uint64",
          "name": "version",
          "type": "uint64"
        }
      ],
      "name": "Initialized",
      "type": "event"
    },
    {
      "anonymous": false,
      "inputs": [
        {
          "indexed": true,
          "internalType": "uint256",
          "name": "assetId",
          "type": "uint256"
        },
        {
          "indexed": false,
          "internalType": "uint256",
          "name": "totalProceeds",
          "type": "uint256"
        }
      ],
      "name": "OfferingFullySubscribed",
      "type": "event"
    },
    {
      "anonymous": false,
      "inputs": [
        {
          "indexed": true,
          "internalType": "address",
          "name": "previousOwner",
          "type": "address"
        },
        {
          "indexed": true,
          "internalType": "address",
          "name": "newOwner",
          "type": "address"
        }
      ],
      "name": "OwnershipTransferred",
      "type": "event"
    },
    {
      "anonymous": false,
      "inputs": [
        {
          "indexed": false,
          "internalType": "address",
          "name": "account",
          "type": "address"
        }
      ],
      "name": "Paused",
      "type": "event"
    },
    {
      "anonymous": false,
      "inputs": [
        {
          "indexed": true,
          "internalType": "uint256",
          "name": "assetId",
          "type": "uint256"
        },
        {
          "indexed": true,
          "internalType": "address",
          "name": "recipient",
          "type": "address"
        },
        {
          "indexed": false,
          "internalType": "uint256",
          "name": "amount",
          "type": "uint256"
        }
      ],
      "name": "ProceedsWithdrawn",
      "type": "event"
    },
    {
      "anonymous": false,
      "inputs": [
        {
          "indexed": false,
          "internalType": "uint256",
          "name": "previousBps",
          "type": "uint256"
        },
        {
          "indexed": false,
          "internalType": "uint256",
          "name": "newBps",
          "type": "uint256"
        }
      ],
      "name": "ProtocolFeeUpdated",
      "type": "event"
    },
    {
      "anonymous": false,
      "inputs": [
        {
          "indexed": true,
          "internalType": "address",
          "name": "previous",
          "type": "address"
        },
        {
          "indexed": true,
          "internalType": "address",
          "name": "updated",
          "type": "address"
        }
      ],
      "name": "TokenImplementationUpdated",
      "type": "event"
    },
    {
      "anonymous": false,
      "inputs": [
        {
          "indexed": false,
          "internalType": "address",
          "name": "account",
          "type": "address"
        }
      ],
      "name": "Unpaused",
      "type": "event"
    },
    {
      "anonymous": false,
      "inputs": [
        {
          "indexed": true,
          "internalType": "address",
          "name": "implementation",
          "type": "address"
        }
      ],
      "name": "Upgraded",
      "type": "event"
    },
    {
      "anonymous": false,
      "inputs": [
        {
          "indexed": true,
          "internalType": "uint256",
          "name": "assetId",
          "type": "uint256"
        },
        {
          "indexed": true,
          "internalType": "address",
          "name": "buyer",
          "type": "address"
        },
        {
          "indexed": true,
          "internalType": "address",
          "name": "seller",
          "type": "address"
        },
        {
          "indexed": false,
          "internalType": "uint256",
          "name": "paymentAmount",
          "type": "uint256"
        },
        {
          "indexed": false,
          "internalType": "uint256",
          "name": "feeTaken",
          "type": "uint256"
        }
      ],
      "name": "WholeAssetPurchased",
      "type": "event"
    },
    {
      "anonymous": false,
      "inputs": [
        {
          "indexed": true,
          "internalType": "uint256",
          "name": "assetId",
          "type": "uint256"
        },
        {
          "indexed": true,
          "internalType": "address",
          "name": "owner",
          "type": "address"
        },
        {
          "indexed": false,
          "internalType": "uint128",
          "name": "newValuation",
          "type": "uint128"
        }
      ],
      "name": "WholeAssetRelisted",
      "type": "event"
    },
    {
      "anonymous": false,
      "inputs": [
        {
          "indexed": true,
          "internalType": "uint256",
          "name": "assetId",
          "type": "uint256"
        },
        {
          "indexed": true,
          "internalType": "address",
          "name": "owner",
          "type": "address"
        },
        {
          "indexed": false,
          "internalType": "uint128",
          "name": "newValuation",
          "type": "uint128"
        }
      ],
      "name": "WholeAssetRelistedAsFractional",
      "type": "event"
    },
    {
      "inputs": [],
      "name": "UPGRADE_INTERFACE_VERSION",
      "outputs": [
        {
          "internalType": "string",
          "name": "",
          "type": "string"
        }
      ],
      "stateMutability": "view",
      "type": "function"
    },
    {
      "inputs": [],
      "name": "accumulatedFees",
      "outputs": [
        {
          "internalType": "uint256",
          "name": "",
          "type": "uint256"
        }
      ],
      "stateMutability": "view",
      "type": "function"
    },
    {
      "inputs": [
        {
          "internalType": "uint256",
          "name": "assetId",
          "type": "uint256"
        }
      ],
      "name": "availableShares",
      "outputs": [
        {
          "internalType": "uint256",
          "name": "available",
          "type": "uint256"
        }
      ],
      "stateMutability": "view",
      "type": "function"
    },
    {
      "inputs": [],
      "name": "feeTreasury",
      "outputs": [
        {
          "internalType": "address",
          "name": "",
          "type": "address"
        }
      ],
      "stateMutability": "view",
      "type": "function"
    },
    {
      "inputs": [
        {
          "internalType": "uint256",
          "name": "assetId",
          "type": "uint256"
        }
      ],
      "name": "getInvestmentPool",
      "outputs": [
        {
          "components": [
            {
              "internalType": "uint128",
              "name": "totalShares",
              "type": "uint128"
            },
            {
              "internalType": "uint128",
              "name": "soldShares",
              "type": "uint128"
            },
            {
              "internalType": "uint128",
              "name": "pricePerShare",
              "type": "uint128"
            },
            {
              "internalType": "uint128",
              "name": "investorCap",
              "type": "uint128"
            },
            {
              "internalType": "address",
              "name": "tokenContract",
              "type": "address"
            },
            {
              "internalType": "bool",
              "name": "isFullySubscribed",
              "type": "bool"
            },
            {
              "internalType": "uint256",
              "name": "proceedsCollected",
              "type": "uint256"
            },
            {
              "internalType": "uint256",
              "name": "proceedsWithdrawn",
              "type": "uint256"
            }
          ],
          "internalType": "struct VaulticInvestmentManager.AssetInvestmentPool",
          "name": "pool",
          "type": "tuple"
        }
      ],
      "stateMutability": "view",
      "type": "function"
    },
    {
      "inputs": [
        {
          "internalType": "uint256",
          "name": "assetId",
          "type": "uint256"
        },
        {
          "internalType": "address",
          "name": "investor",
          "type": "address"
        }
      ],
      "name": "getInvestorHoldings",
      "outputs": [
        {
          "internalType": "uint256",
          "name": "shares",
          "type": "uint256"
        }
      ],
      "stateMutability": "view",
      "type": "function"
    },
    {
      "inputs": [
        {
          "internalType": "uint256",
          "name": "assetId",
          "type": "uint256"
        }
      ],
      "name": "getInvestorList",
      "outputs": [
        {
          "internalType": "address[]",
          "name": "list",
          "type": "address[]"
        }
      ],
      "stateMutability": "view",
      "type": "function"
    },
    {
      "inputs": [
        {
          "internalType": "address",
          "name": "_registry",
          "type": "address"
        },
        {
          "internalType": "address",
          "name": "_paymentToken",
          "type": "address"
        },
        {
          "internalType": "address",
          "name": "_tokenImplementation",
          "type": "address"
        },
        {
          "internalType": "address",
          "name": "_feeTreasury",
          "type": "address"
        },
        {
          "internalType": "uint256",
          "name": "_protocolFeeBps",
          "type": "uint256"
        },
        {
          "internalType": "address",
          "name": "_owner",
          "type": "address"
        }
      ],
      "name": "initialize",
      "outputs": [],
      "stateMutability": "nonpayable",
      "type": "function"
    },
    {
      "inputs": [
        {
          "internalType": "uint256",
          "name": "",
          "type": "uint256"
        },
        {
          "internalType": "address",
          "name": "",
          "type": "address"
        }
      ],
      "name": "investorHoldings",
      "outputs": [
        {
          "internalType": "uint256",
          "name": "",
          "type": "uint256"
        }
      ],
      "stateMutability": "view",
      "type": "function"
    },
    {
      "inputs": [],
      "name": "owner",
      "outputs": [
        {
          "internalType": "address",
          "name": "",
          "type": "address"
        }
      ],
      "stateMutability": "view",
      "type": "function"
    },
    {
      "inputs": [],
      "name": "pause",
      "outputs": [],
      "stateMutability": "nonpayable",
      "type": "function"
    },
    {
      "inputs": [],
      "name": "paused",
      "outputs": [
        {
          "internalType": "bool",
          "name": "",
          "type": "bool"
        }
      ],
      "stateMutability": "view",
      "type": "function"
    },
    {
      "inputs": [],
      "name": "paymentToken",
      "outputs": [
        {
          "internalType": "contract IERC20",
          "name": "",
          "type": "address"
        }
      ],
      "stateMutability": "view",
      "type": "function"
    },
    {
      "inputs": [],
      "name": "protocolFeeBps",
      "outputs": [
        {
          "internalType": "uint256",
          "name": "",
          "type": "uint256"
        }
      ],
      "stateMutability": "view",
      "type": "function"
    },
    {
      "inputs": [],
      "name": "proxiableUUID",
      "outputs": [
        {
          "internalType": "bytes32",
          "name": "",
          "type": "bytes32"
        }
      ],
      "stateMutability": "view",
      "type": "function"
    },
    {
      "inputs": [
        {
          "internalType": "uint256",
          "name": "assetId",
          "type": "uint256"
        },
        {
          "internalType": "uint256",
          "name": "shareAmount",
          "type": "uint256"
        },
        {
          "internalType": "uint256",
          "name": "paymentAmount",
          "type": "uint256"
        }
      ],
      "name": "purchaseShares",
      "outputs": [],
      "stateMutability": "nonpayable",
      "type": "function"
    },
    {
      "inputs": [
        {
          "internalType": "uint256",
          "name": "assetId",
          "type": "uint256"
        }
      ],
      "name": "purchaseWholeAsset",
      "outputs": [],
      "stateMutability": "nonpayable",
      "type": "function"
    },
    {
      "inputs": [
        {
          "internalType": "uint256",
          "name": "assetId",
          "type": "uint256"
        },
        {
          "internalType": "uint256",
          "name": "shareAmount",
          "type": "uint256"
        }
      ],
      "name": "quotePurchase",
      "outputs": [
        {
          "internalType": "uint256",
          "name": "grossCost",
          "type": "uint256"
        },
        {
          "internalType": "uint256",
          "name": "fee",
          "type": "uint256"
        },
        {
          "internalType": "uint256",
          "name": "netCost",
          "type": "uint256"
        }
      ],
      "stateMutability": "view",
      "type": "function"
    },
    {
      "inputs": [
        {
          "internalType": "uint256",
          "name": "assetId",
          "type": "uint256"
        }
      ],
      "name": "quoteWholePurchase",
      "outputs": [
        {
          "internalType": "uint256",
          "name": "grossPayment",
          "type": "uint256"
        },
        {
          "internalType": "uint256",
          "name": "fee",
          "type": "uint256"
        },
        {
          "internalType": "uint256",
          "name": "netToSeller",
          "type": "uint256"
        }
      ],
      "stateMutability": "view",
      "type": "function"
    },
    {
      "inputs": [],
      "name": "registry",
      "outputs": [
        {
          "internalType": "contract VaulticAssetRegistry",
          "name": "",
          "type": "address"
        }
      ],
      "stateMutability": "view",
      "type": "function"
    },
    {
      "inputs": [
        {
          "internalType": "uint256",
          "name": "assetId",
          "type": "uint256"
        },
        {
          "internalType": "uint128",
          "name": "newTotalShares",
          "type": "uint128"
        },
        {
          "internalType": "uint128",
          "name": "newPricePerShare",
          "type": "uint128"
        },
        {
          "internalType": "uint128",
          "name": "newValuation",
          "type": "uint128"
        },
        {
          "internalType": "string",
          "name": "newMetadataURI",
          "type": "string"
        },
        {
          "internalType": "uint128",
          "name": "newInvestorCap",
          "type": "uint128"
        }
      ],
      "name": "relistAsset",
      "outputs": [],
      "stateMutability": "nonpayable",
      "type": "function"
    },
    {
      "inputs": [
        {
          "internalType": "uint256",
          "name": "assetId",
          "type": "uint256"
        },
        {
          "internalType": "uint128",
          "name": "newValuation",
          "type": "uint128"
        },
        {
          "internalType": "string",
          "name": "newMetadataURI",
          "type": "string"
        }
      ],
      "name": "relistAssetAsFractional",
      "outputs": [],
      "stateMutability": "nonpayable",
      "type": "function"
    },
    {
      "inputs": [
        {
          "internalType": "uint256",
          "name": "assetId",
          "type": "uint256"
        },
        {
          "internalType": "uint128",
          "name": "newValuation",
          "type": "uint128"
        },
        {
          "internalType": "string",
          "name": "newMetadataURI",
          "type": "string"
        }
      ],
      "name": "relistWholeAsset",
      "outputs": [],
      "stateMutability": "nonpayable",
      "type": "function"
    },
    {
      "inputs": [],
      "name": "renounceOwnership",
      "outputs": [],
      "stateMutability": "nonpayable",
      "type": "function"
    },
    {
      "inputs": [
        {
          "internalType": "address",
          "name": "newTreasury",
          "type": "address"
        }
      ],
      "name": "setFeeTreasury",
      "outputs": [],
      "stateMutability": "nonpayable",
      "type": "function"
    },
    {
      "inputs": [
        {
          "internalType": "uint256",
          "name": "newFeeBps",
          "type": "uint256"
        }
      ],
      "name": "setProtocolFee",
      "outputs": [],
      "stateMutability": "nonpayable",
      "type": "function"
    },
    {
      "inputs": [
        {
          "internalType": "address",
          "name": "newImplementation",
          "type": "address"
        }
      ],
      "name": "setTokenImplementation",
      "outputs": [],
      "stateMutability": "nonpayable",
      "type": "function"
    },
    {
      "inputs": [],
      "name": "sweepProtocolFees",
      "outputs": [],
      "stateMutability": "nonpayable",
      "type": "function"
    },
    {
      "inputs": [],
      "name": "tokenImplementation",
      "outputs": [
        {
          "internalType": "address",
          "name": "",
          "type": "address"
        }
      ],
      "stateMutability": "view",
      "type": "function"
    },
    {
      "inputs": [
        {
          "internalType": "uint256",
          "name": "assetId",
          "type": "uint256"
        },
        {
          "internalType": "uint128",
          "name": "totalShares",
          "type": "uint128"
        },
        {
          "internalType": "uint128",
          "name": "pricePerShare",
          "type": "uint128"
        },
        {
          "internalType": "uint128",
          "name": "investorCap",
          "type": "uint128"
        }
      ],
      "name": "tokenizeAsset",
      "outputs": [
        {
          "internalType": "address",
          "name": "tokenProxy",
          "type": "address"
        }
      ],
      "stateMutability": "nonpayable",
      "type": "function"
    },
    {
      "inputs": [
        {
          "internalType": "address",
          "name": "newOwner",
          "type": "address"
        }
      ],
      "name": "transferOwnership",
      "outputs": [],
      "stateMutability": "nonpayable",
      "type": "function"
    },
    {
      "inputs": [],
      "name": "unpause",
      "outputs": [],
      "stateMutability": "nonpayable",
      "type": "function"
    },
    {
      "inputs": [
        {
          "internalType": "address",
          "name": "newImplementation",
          "type": "address"
        },
        {
          "internalType": "bytes",
          "name": "data",
          "type": "bytes"
        }
      ],
      "name": "upgradeToAndCall",
      "outputs": [],
      "stateMutability": "payable",
      "type": "function"
    },
    {
      "inputs": [
        {
          "internalType": "uint256",
          "name": "assetId",
          "type": "uint256"
        }
      ],
      "name": "withdrawProceeds",
      "outputs": [],
      "stateMutability": "nonpayable",
      "type": "function"
    },
    {
      "inputs": [
        {
          "internalType": "uint256",
          "name": "assetId",
          "type": "uint256"
        }
      ],
      "name": "withdrawableProceeds",
      "outputs": [
        {
          "internalType": "uint256",
          "name": "amount",
          "type": "uint256"
        }
      ],
      "stateMutability": "view",
      "type": "function"
    }
  ],
  "transactionHash": "0x4a44611fbb28ec027ad18c68c0a11804a45a9b52a1fb32e5d6e5ecf688f49c57",
  "args": [],
  "numDeployments": 2,
  "solcInputHash": "e7646cb497c91100a29369b944b2074b",
  "bytecode": "0x60a08060405234602e5760016000553060805261336b908161003482396080518181816104fc01526129d40152f35b600080fdfe6080604052600436101561001257600080fd5b60003560e01c8063139ab16614610242578063253e054a146101f75780632f3a3d5d1461023d5780633013ce291461023857806335659fb8146102335780633f4ba83a1461022e5780634f1ef2861461022957806352d1902d1461022457806353c425c11461021f578063587f5ed71461021a57806359f54b18146102155780635c975abb146102105780635ec7b7031461020b57806360dc2340146102065780636afcde6d146102015780636ed43eb0146101fc5780637111e79d146101f7578063715018a6146101f257806376ad232c146101ed578063787dce3d146101e85780637b103999146101e35780637b93389e146101de5780638456cb59146101d957806388282e2a146101d45780638ae3b08a146101cf5780638da5cb5b146101ca5780638fd0df84146101c557806399bc4d96146101c0578063ad3cb1cc146101bb578063bfa37e37146101b6578063c6c2aed2146101b1578063d9f1aed9146101ac578063f2fde38b146101a7578063fa39a5ea146101a25763fc7b4c971461019d57600080fd5b611ffa565b611ea8565b611df2565b611c78565b611bcd565b611b4d565b611b06565b6115e1565b611290565b61125a565b6111ed565b611139565b6110c5565b611022565b610ff9565b610f78565b610e11565b610da7565b610298565b610d29565b610a3f565b610a16565b610845565b610798565b610720565b610702565b610553565b6104e9565b61046c565b610364565b610346565b61031d565b6102f4565b346102825760203660031901126102825761027e6102616004356128db565b604080519384526020840192909252908201529081906060820190565b0390f35b600080fd5b6001600160a01b0381160361028257565b346102825760403660031901126102825760206102e06024356004356102bd82610287565b6000526008835260406000209060018060a01b0316600052602052604060002090565b54604051908152f35b600091031261028257565b34610282576000366003190112610282576003546040516001600160a01b039091168152602090f35b34610282576000366003190112610282576002546040516001600160a01b039091168152602090f35b34610282576000366003190112610282576020600454604051908152f35b346102825760003660031901126102825761037d612ef4565b6000805160206132f68339815191525460ff8116156103d65760ff19166000805160206132f6833981519152557f5db9ee0a495bf2e6ff9c91a7834c1ba4fdd244a5e8aa4e537bd38aeae4b073aa6020604051338152a1005b638dfc202b60e01b60005260046000fd5b634e487b7160e01b600052604160045260246000fd5b61010081019081106001600160401b0382111761041957604052565b6103e7565b90601f801991011681019081106001600160401b0382111761041957604052565b6040519061044f6102008361041e565b565b6001600160401b03811161041957601f01601f191660200190565b60403660031901126102825760043561048481610287565b602435906001600160401b0382116102825736602383011215610282578160040135906104b082610451565b916104be604051938461041e565b80835236602482860101116102825760208160009260246104e7970183870137840101526129c8565b005b34610282576000366003190112610282577f00000000000000000000000000000000000000000000000000000000000000006001600160a01b031630036105425760206040516000805160206132d68339815191528152f35b63703e46dd60e11b60005260046000fd5b346102825760c03660031901126102825760043561057081610287565b6024359061057d82610287565b60443561058981610287565b60643561059581610287565b6084359060a435926105a684610287565b60008051602061331683398151915254956001600160401b036105d860ff60408a901c1615986001600160401b031690565b16801590816106fa575b60011490816106f0575b1590816106e7575b506106d657610639958761063060016001600160401b031960008051602061331683398151915254161760008051602061331683398151915255565b61069f57612ad4565b61063f57005b61066b60ff60401b19600080516020613316833981519152541660008051602061331683398151915255565b604051600181527fc7f505b2f371ae2175ee4913f4499e1f2633a7b5936321eed1cdaeb6115181d29080602081015b0390a1005b6106d1600160401b60ff60401b1960008051602061331683398151915254161760008051602061331683398151915255565b612ad4565b63f92ee8a960e01b60005260046000fd5b905015386105f4565b303b1591506105ec565b8891506105e2565b34610282576000366003190112610282576020600654604051908152f35b34610282576020366003190112610282576004356000818152600760205260409020600201546001600160a01b031615610784576000526007602052604060002060046003820154910154810390811161077f57604051908152602090f35b6128a5565b6395e55a2f60e01b60005260045260246000fd5b3461028257600036600319011261028257602060ff6000805160206132f683398151915254166040519015158152f35b6001600160801b0381160361028257565b9181601f84011215610282578235916001600160401b038311610282576020838186019501011161028257565b60606003198201126102825760043591602435610822816107c8565b91604435906001600160401b03821161028257610841916004016107d9565b9091565b346102825761085336610806565b9061085f939293612f3e565b610867612f68565b600154610884906001600160a01b03165b6001600160a01b031690565b604051631d591eb760e31b815260048101859052909290600081602481875afa9081156109a8576000916109f3575b5060208101516108cb906001600160a01b0316610878565b33036109d957600360408201516108e18161288c565b6108ea8161288c565b036109c357606001516108fc8161289b565b6109058161289b565b6109ad57823b15610282576109369260009283604051809681958294635ec7b70360e01b84528b8b60048601612c42565b03925af180156109a85761098d575b506040516001600160801b03909216825233917fba56a257a3760149f852a72b840a6b568be24835353459a67af4df932f2b9bc99080602081015b0390a36104e76001600055565b8061099c60006109a29361041e565b806102e9565b38610945565b61286a565b63ba8be08960e01b600052600484905260246000fd5b6376da3e5960e01b600052600485905260246000fd5b632f5d3abb60e11b60005260048590523360245260446000fd5b610a1091503d806000833e610a08818361041e565b8101906126ed565b386108b3565b34610282576000366003190112610282576005546040516001600160a01b039091168152602090f35b3461028257602036600319011261028257600435610a5b612f3e565b610a63612f68565b600154610a78906001600160a01b0316610878565b604051631d591eb760e31b8152600481018390529190600090839060249082905afa9182156109a857600092610ccb575b5060016040830151610aba8161288c565b610ac38161288c565b03610cb7576060820151610ad68161289b565b610adf8161289b565b610cb757610b06610afa60a08401516001600160801b031690565b6001600160801b031690565b908115610ca657610b24610b1c600454846128bb565b612710900490565b92610b87610b3285856128ce565b610b46610b4187600654612c8c565b600655565b600254610b629086906001600160a01b03165b30903390612f8a565b6002546020906001600160a01b0316930180519093906001600160a01b031690612fd3565b600154610b9c906001600160a01b0316610878565b803b1561028257604051632dcf36a360e01b815260048101849052336024820152906000908290604490829084905af180156109a857610c91575b50600154610bed906001600160a01b0316610878565b90813b156102825760405163b9d0f5e560e01b815260048101849052916000908390602490829084905af19081156109a8577f807bbb44cdb5ed6d79f165716fee3ebabbacbb8cc25a7b05805c3e671afc38ce92610c6f92610c7c575b50516040805195865260208601969096526001600160a01b0316943394918291820190565b0390a46104e76001600055565b8061099c6000610c8b9361041e565b38610c4a565b8061099c6000610ca09361041e565b38610bd7565b6331e5050760e01b60005260046000fd5b63ba8be08960e01b60005260045260246000fd5b610cdf91923d8091833e610a08818361041e565b9038610aa9565b602060408183019282815284518094520192019060005b818110610d0a5750505090565b82516001600160a01b0316845260209384019390920191600101610cfd565b34610282576020366003190112610282576004356000526009602052604060002060405190816020825491828152019160005260206000209060005b818110610d885761027e85610d7c8187038261041e565b60405191829182610ce6565b82546001600160a01b0316845260209093019260019283019201610d65565b3461028257600036600319011261028257610dc0612ef4565b6000805160206132b683398151915280546001600160a01b031981169091556000906001600160a01b03167f8be0079c531659141344cd1fd0a4f28419497f9722a3daafe3b4186f6b6457e08280a3005b3461028257610e1f36610806565b90610e2b939293612f3e565b610e33612f68565b600154610e48906001600160a01b0316610878565b604051631d591eb760e31b815260048101859052909290600081602481875afa9081156109a857600091610f5d575b506020810151610e8f906001600160a01b0316610878565b33036109d95760036040820151610ea58161288c565b610eae8161288c565b036109c35760600151610ec08161289b565b610ec98161289b565b6109ad57823b1561028257610efa9260009283604051809681958294631dab48cb60e21b84528b8b60048601612c42565b03925af180156109a857610f48575b506040516001600160801b03909216825233917fcb7cfcd1c560e5b5b900c2bee93e672b4eef19475a96c0d3089a8900b563cd5b908060208101610980565b8061099c6000610f579361041e565b38610f09565b610f7291503d806000833e610a08818361041e565b38610e77565b3461028257602036600319011261028257600435610f94612ef4565b6103e88111610fdf5760048054908290556040805191825260208201929092527fb404cac19fb1cbeff98d325795b08886e3cd8fe8cb1a2f193aac66f13fb239c3918190810161069a565b635da98b2b60e11b6000526004526103e860245260446000fd5b34610282576000366003190112610282576001546040516001600160a01b039091168152602090f35b346102825760003660031901126102825761103b612ef4565b611043612f68565b60065480156110af57600060065560025460055461106f9183916001600160a01b039081169116612fd3565b6005546040519182526001600160a01b0316907f850dcc4ccf3c6de869869ed32aabbd6a67ecdb66099f61906a447f0d86c7a4bf90602090a26001600055005b6301c3415360e31b600052600060045260246000fd5b34610282576000366003190112610282576110de612ef4565b6110e6612f3e565b600160ff196000805160206132f68339815191525416176000805160206132f6833981519152557f62e78cea01bee320cd4e420270b5ea74000d11b0c9f74754ebdbfc544b05a2586020604051338152a1005b346102825760203660031901126102825760043561115681610287565b61115e612ef4565b6001600160a01b031680156111b157600380546001600160a01b0319811683179091556001600160a01b03167ffb2f3e5bead71d41a1428322b2661b40ad091d05d82e3e7d6b1e9d1701bef5ce600080a3005b60405163b56059b360e01b81526020600482015260136024820152723a37b5b2b724b6b83632b6b2b73a30ba34b7b760691b6044820152606490fd5b34610282576020366003190112610282576004356000818152600760205260409020600201546001600160a01b03161561078457600052600760205261027e6001600160801b03611249604060002054828160801c9116612c99565b604051911681529081906020820190565b34610282576000366003190112610282576000805160206132b6833981519152546040516001600160a01b039091168152602090f35b34610282576080366003190112610282576024356004356112b0826107c8565b604435916112bd836107c8565b606435916112ca836107c8565b6112d2612ef4565b6112da612f3e565b6112e2612f68565b6001600160801b038216156115d0576001600160801b038416156115bf57600154611315906001600160a01b0316610878565b604051631d591eb760e31b8152600481018390529290600090849060249082905afa9283156109a8576000936115a2575b50600160408401516113578161288c565b6113608161288c565b0361158c57600160608401516113758161289b565b61137e8161289b565b0361158c5761138b61300f565b6101a093909301516000805160206132b68339815191525493946001600160a01b03808716959192911690853b15610282576113e591600091604051938492839263d3e4c45d60e01b845230908930918c60048801612cb9565b038183895af180156109a857611489928792600292611577575b50611469611417876000526007602052604060002090565b80546001600160801b0319166001600160801b038816178155916001830180546001600160801b0319166001600160801b038d161781555b906001600160801b0382549181199060801b169116179055565b0180546001600160a01b0319166001600160a01b03909216919091179055565b60015461149e906001600160a01b0316610878565b94853b1561028257604051635930a47760e01b8152600481018490526001600160a01b03861660248201526001600160801b03838116604483015282166064820152956000908790608490829084905af19182156109a85761027e967f9cfcc8cd687e61a5cc14c8353d03252ba22cce4cab8fc8e8c829bad70a4bef8793611562575b50604080516001600160801b03928316815292909116602083015290a36115486001600055565b6040516001600160a01b0390911681529081906020820190565b8061099c60006115719361041e565b38611521565b8061099c60006115869361041e565b386113ff565b63748a002760e01b600052600482905260246000fd5b6115b89193503d806000833e610a08818361041e565b9138611346565b636f06ff9560e01b60005260046000fd5b630817ad9d60e11b60005260046000fd5b3461028257606036600319011261028257600435602435604435611603612f3e565b61160b612f68565b6000838152600760205260409020600201546001600160a01b031615611aa9578115610ca657611645836000526007602052604060002090565b91600283019161165a835460ff9060a01c1690565b611a9357835490611682610afa61167b6001600160801b0385169460801c90565b8094612c99565b808411611a7a575060018501548361169a8260801c90565b6001600160801b038116611a0b575b506116c0610afa6116c5936001600160801b031690565b6128bb565b908181036119f157506116dd610b1c600454836128bb565b6118096108786108786116f084866128ce565b986117286117086001600160801b038a168099612d07565b82546001600160801b031660809190911b6001600160801b031916178255565b611737600382019a8b54612c8c565b8a55611748610b4186600654612c8c565b61177261175f8c6000526008602052604060002090565b3360009081526020919091526040902090565b54156119cf575b6117a8336117918d6000526008602052604060002090565b9060018060a01b0316600052602052604060002090565b6117b3898254612c8c565b9055546001600160801b036117db610afa6117ce8460801c90565b936001600160801b031690565b91161497886119b9575b6002546117fc9087906001600160a01b0316610b59565b546001600160a01b031690565b803b1561028257604051630e27649960e41b815233600482015260248101869052906000908290604490829084905af180156109a8576119a4575b5060015461185a906001600160a01b0316610878565b803b156102825760405163c3abdb1d60e01b8152600481018990526001600160801b039490941660248501526000908490604490829084905af19182156109a85787937f4901d3a11fb0600659fcc615810736f093cef40dc5be8dfc37b19e1d0e47d17c9361198f575b506040805195865260208601919091528401523392606090a36118ec575b6104e76001600055565b600154611901906001600160a01b0316610878565b90813b156102825760405163b9d0f5e560e01b815260048101849052916000908390602490829084905af19081156109a8577fd5679311be50beb825792dd14513e4f95d766a82894389a8d643b01c2165b210926119709261197a575b50546040519081529081906020820190565b0390a238806118e2565b8061099c60006119899361041e565b3861195e565b8061099c600061199e9361041e565b386118c4565b8061099c60006119b39361041e565b38611844565b805460ff60a01b1916600160a01b1781556117e5565b6119ec336119e78d6000526009602052604060002090565b612d5a565b611779565b6317279d1160e31b60005260049190915260245260446000fd5b90611a2d90611a2761175f8b6000526008602052604060002090565b54612c8c565b6001600160801b03821610611a435784906116a9565b604051633369994560e21b8152600481018990523360248201526001600160801b0391909116604482015260648101859052608490fd5b63234c74df60e11b600052600484905260245260446000fd5b6395e55a2f60e01b600052600485905260246000fd5b826395e55a2f60e01b60005260045260246000fd5b60005b838110611ad15750506000910152565b8181015183820152602001611ac1565b90602091611afa81518092818552858086019101611abe565b601f01601f1916010190565b346102825760003660031901126102825761027e6040805190611b29818361041e565b60058252640352e302e360dc1b602083015251918291602083526020830190611ae1565b3461028257602036600319011261028257600435611b6a81610287565b611b72612ef4565b6001600160a01b03168015611b99576001600160601b0360a01b6005541617600555600080f35b60405163b56059b360e01b815260206004820152600b60248201526a666565547265617375727960a81b6044820152606490fd5b34610282576040366003190112610282576004356024356000828152600760205260409020600201546001600160a01b031615611c6357611c279160005260076020526001600160801b03600160406000200154166128bb565b612710611c36600454836128bb565b049081810381811161077f5761027e90604051938493846040919493926060820195825260208201520152565b506395e55a2f60e01b60005260045260246000fd5b3461028257602036600319011261028257600435611c94612f3e565b611c9c612f68565b6000818152600760205260409020600201546001600160a01b03161561078457600154611cd1906001600160a01b0316610878565b604051631d591eb760e31b81526004810183905290600090829060249082905afa80156109a857602061087891611d1993600091611dd7575b5001516001600160a01b031690565b3303611dbf57611d33816000526007602052604060002090565b90600460038301549201611d49815480946128ce565b928315611da95783611d5a91612c8c565b9055600254611d7590839033906001600160a01b0316612fd3565b60405191825233917f579e0e2d0cfdb23711bb6034ac9f2ba41e8965a8e24589d1c3cf5604868661fc908060208101610980565b6301c3415360e31b600052600483905260246000fd5b632f5d3abb60e11b6000526004523360245260446000fd5b611dec91503d806000833e610a08818361041e565b38611d0a565b34610282576020366003190112610282576104e7600435611e1281610287565b611e1a612ef4565b612d9b565b91909160e0806101008301946001600160801b0381511684526001600160801b0360208201511660208501526001600160801b036040820151166040850152611e78606082015160608601906001600160801b03169052565b6080818101516001600160a01b03169085015260a08181015115159085015260c081015160c08501520151910152565b3461028257602036600319011261028257600435600060e0604051611ecc816103fd565b8281528260208201528260408201528260608201528260808201528260a08201528260c0820152015280600052600760205260018060a01b03600260406000200154161561078457600052600760205261027e6040600020600460405191611f33836103fd565b611f71611f618254611f5b611f4e826001600160801b031690565b6001600160801b03168752565b60801c90565b6001600160801b03166020850152565b611faf611f9f6001830154611f5b611f8f826001600160801b031690565b6001600160801b03166040880152565b6001600160801b03166060850152565b60028101546001600160a01b0381166080850152611fdd90611fd49060a01c60ff1690565b151560a0850152565b600381015460c0840152015460e082015260405191829182611e1f565b346102825760c03660031901126102825760043560243561201a816107c8565b604435612026816107c8565b606435612032816107c8565b6084356001600160401b038111610282576120519036906004016107d9565b9160a4359261205f846107c8565b612067612f3e565b61206f612f68565b6000878152600760205260409020600201546001600160a01b03161561263f576001600160801b038616156115d0576001600160801b038516156115bf576001546120c2906001600160a01b0316610878565b604051631d591eb760e31b81526004810189905290600090829060249082905afa9081156109a857600391604091600091612624575b5001516121048161288c565b61210d8161288c565b0361260e5761213f61087861087860026121318b6000526007602052604060002090565b01546001600160a01b031690565b936040516318160ddd60e01b8152602081600481895afa9081156109a8576000916125ef575b506040516370a0823160e01b8152336004820152906020826024818a5afa9182156109a8576000926125ce575b508082036125a257505060046000916121e86121ba8b9a9b6000526007602052604060002090565b6001600160801b038c811682556001820180546001600160801b031916918c1691909117815590929061144f565b60028101805460ff60a01b191690558260038201550155612213866000526009602052604060002090565b805460005b818110612557575061223c612237896000526009602052604060002090565b612e20565b80156125365761225361224e82612c7e565b612e8d565b9160005b8281106124fe57505061229e91612284602092612275339184612ecc565b6001600160a01b039091169052565b604051809381926321519ba360e21b835260048301610ce6565b03816000895af180156109a8576124d1575b506001546122c6906001600160a01b0316610878565b803b1561028257604051632dcf36a360e01b815260048101889052336024820152906000908290604490829084905af180156109a8576124bc575b50600154612317906001600160a01b0316610878565b803b156102825761234493600080946040519687958694859363476dfde360e01b85528d60048601612c42565b03925af180156109a8576124a7575b50600154612369906001600160a01b0316610878565b803b1561028257604051635930a47760e01b8152600481018590526001600160a01b039290921660248301526001600160801b038581166044840152831660648301526000908290608490829084905af180156109a857612492575b506001546123db906001600160a01b0316610878565b604051637c8c7b9b60e11b8152600481018490529190602090839060249082905afa9081156109a8577f9e11ca718eacf332656fa75214256147c351b67567f2376d0c01eaeec0a0112592600092612461575b50604080516001600160801b03968716815295909116602086015263ffffffff9091169084015233928060608101610980565b61248491925060203d60201161248b575b61247c818361041e565b810190612ee0565b903861242e565b503d612472565b8061099c60006124a19361041e565b386123c5565b8061099c60006124b69361041e565b38612353565b8061099c60006124cb9361041e565b38612301565b6124f29060203d6020116124f7575b6124ea818361041e565b810190612e11565b6122b0565b503d6124e0565b8061253061252661251160019486612d3d565b905460039190911b1c6001600160a01b031690565b6122758388612ecc565b01612257565b505061229e6020612545612e6b565b6125523361227583612ebf565b612284565b60019060006125986125758c9d9c6000526008602052604060002090565b6125826125118589612d3d565b60018060a01b0316600052602052604060002090565b5501989798612218565b604051634fa36e4760e11b8152600481018b905233602482015260448101929092526064820152608490fd5b6125e891925060203d6020116124f7576124ea818361041e565b9038612192565b612608915060203d6020116124f7576124ea818361041e565b38612165565b6376da3e5960e01b600052600487905260246000fd5b61263991503d806000833e610a08818361041e565b386120f8565b866395e55a2f60e01b60005260045260246000fd5b519061044f82610287565b5190600582101561028257565b5190600282101561028257565b519065ffffffffffff8216820361028257565b519061044f826107c8565b519063ffffffff8216820361028257565b81601f820112156102825780516126be81610451565b926126cc604051948561041e565b81845260208284010111610282576126ea9160208085019101611abe565b90565b602081830312610282578051906001600160401b0382116102825701610200818303126102825761271c61043f565b918151835261272d60208301612654565b602084015261273e6040830161265f565b604084015261274f6060830161266c565b606084015261276060808301612679565b608084015261277160a0830161268c565b60a084015261278260c0830161268c565b60c084015261279360e0830161268c565b60e08401526127a5610100830161268c565b6101008401526127b86101208301612654565b6101208401526127cb6101408301612679565b6101408401526127de6101608301612697565b6101608401526127f16101808301612679565b6101808401526101a08201516001600160401b03811161028257816128179184016126a8565b6101a08401526101c08201516001600160401b038111610282578161283d9184016126a8565b6101c08401526101e08201516001600160401b0381116102825761286192016126a8565b6101e082015290565b6040513d6000823e3d90fd5b634e487b7160e01b600052602160045260246000fd5b6005111561289657565b612876565b6002111561289657565b634e487b7160e01b600052601160045260246000fd5b8181029291811591840414171561077f57565b9190820391821161077f57565b600154612917916000916128f7906001600160a01b0316610878565b6040518080958194631d591eb760e31b8352600483019190602083019252565b03915afa9081156109a8576000916129ad575b506001604082015161293b8161288c565b6129448161288c565b1480159061298e575b6129825760a00151612967906001600160801b0316610afa565b90612977610b1c600454846128bb565b906126ea82846128ce565b50600090600090600090565b50606081015161299d8161289b565b6129a68161289b565b151561294d565b6129c291503d806000833e610a08818361041e565b3861292a565b90916001600160a01b037f000000000000000000000000000000000000000000000000000000000000000016308114908115612ab1575b5061054257612a0c612ef4565b6040516352d1902d60e01b8152926020846004816001600160a01b0387165afa60009481612a90575b50612a5857634c9c8ce360e01b6000526001600160a01b03831660045260246000fd5b90916000805160206132d68339815191528403612a7a5761044f9293506130ac565b632a87526960e21b600052600484905260246000fd5b612aaa91955060203d6020116124f7576124ea818361041e565b9338612a35565b6000805160206132d6833981519152546001600160a01b031614159050386129ff565b939492939192916001600160a01b0316908115612c11576001600160a01b0316918215612bdc576001600160a01b038416156111b1576001600160a01b03851615611b99576103e88611612bc05792612b8161044f969593612b64612b9e94612b3f612bbb98612f2a565b612b47613153565b60018060a01b03166001600160601b0360a01b6001541617600155565b60018060a01b03166001600160601b0360a01b6002541617600255565b60018060a01b03166001600160601b0360a01b6003541617600355565b60018060a01b03166001600160601b0360a01b6005541617600555565b600455565b635da98b2b60e11b60005260048690526103e860245260446000fd5b60405163b56059b360e01b815260206004820152600c60248201526b3830bcb6b2b73a2a37b5b2b760a11b6044820152606490fd5b60405163b56059b360e01b8152602060048201526008602482015267726567697374727960c01b6044820152606490fd5b926001600160801b03859360809693865216602085015260606040850152816060850152848401376000828201840152601f01601f1916010190565b906001820180921161077f57565b9190820180921161077f57565b906001600160801b03809116911603906001600160801b03821161077f57565b9491612ce26001600160801b039160a0969399989599885260c0602089015260c0880190611ae1565b971660408601526000196001851b019081166060860152908116608085015216910152565b906001600160801b03809116911601906001600160801b03821161077f57565b634e487b7160e01b600052603260045260246000fd5b8054821015612d555760005260206000200190600090565b612d27565b8054600160401b81101561041957612d7791600182018155612d3d565b81546001600160a01b0393841660039290921b91821b9390911b1916919091179055565b6001600160a01b03168015612dfb576000805160206132b683398151915280546001600160a01b0319811683179091556001600160a01b03167f8be0079c531659141344cd1fd0a4f28419497f9722a3daafe3b4186f6b6457e0600080a3565b631e4fbdf760e01b600052600060045260246000fd5b90816020910312610282575190565b8054906000815581612e30575050565b6000526020600020908101905b818110612e48575050565b60008155600101612e3d565b6001600160401b0381116104195760051b60200190565b60408051909190612e7c838261041e565b6001815291601f1901366020840137565b90612e9782612e54565b612ea4604051918261041e565b8281528092612eb5601f1991612e54565b0190602036910137565b805115612d555760200190565b8051821015612d555760209160051b010190565b90816020910312610282576126ea90612697565b6000805160206132b6833981519152546001600160a01b03163303612f1557565b63118cdaa760e01b6000523360045260246000fd5b61044f90612f36613153565b611e1a613153565b60ff6000805160206132f68339815191525416612f5757565b63d93c066560e01b60005260046000fd5b600260005414612f79576002600055565b633ee5aeb560e01b60005260046000fd5b6040516323b872dd60e01b60208201526001600160a01b03928316602482015292909116604483015260648083019390935291815261044f91612fce60848361041e565b613181565b60405163a9059cbb60e01b60208201526001600160a01b0392909216602483015260448083019390935291815261044f91612fce60648361041e565b600354604051733d602d80600a3d3981f3363d3d373d3d3d363d7360601b815260609190911b6bffffffffffffffffffffffff191660148201526e5af43d82803e903d91602b57fd5bf360881b60288201526037906000f0906001600160a01b0382161561307957565b60405163b56059b360e01b815260206004820152600a602482015269746f6b656e50726f787960b01b6044820152606490fd5b90813b15613131576000805160206132d683398151915280546001600160a01b0319166001600160a01b0384169081179091557fbc7cd75a20ee27fd9adebab32041f755214dbc6bffa90cc0225b39da2e5c2d3b600080a2805115613117576131149161323a565b50565b50503461312057565b63b398979f60e01b60005260046000fd5b50634c9c8ce360e01b60009081526001600160a01b0391909116600452602490fd5b60ff6000805160206133168339815191525460401c161561317057565b631afcd79f60e31b60005260046000fd5b6000806131aa9260018060a01b03169360208151910182865af16131a361320a565b9083613254565b80519081151591826131e1575b50506131c05750565b635274afe760e01b60009081526001600160a01b0391909116600452602490fd5b9091506020908201829003126102825760200151801590811581036102825750151538806131b7565b3d15613235573d9061321b82610451565b91613229604051938461041e565b82523d6000602084013e565b606090565b6000806126ea93602081519101845af461325261320a565b915b9061327a575080511561326957805190602001fd5b630a12f52160e11b60005260046000fd5b815115806132ac575b61328b575090565b639996b31560e01b60009081526001600160a01b0391909116600452602490fd5b50803b1561328356fe9016d09d72d40fdae2fd8ceac6b6234c7706214fd39c1cd1e609a0528c199300360894a13ba1a3210667c828492db98dca3e2076cc3735a920a3ca505d382bbccd5ed15c6e187e77e9aee88184c21f4f2182ab5827cb3b7e07fbedcd63f03300f0c57e16840df040f15088dc2f81fe391c3923bec73e23a9662efc9c229c6a00a264697066735822122061828fbc2d66efe1f2a470690e93c4325a72d5fc64076b9053b43efdad6a07e164736f6c634300081e0033",
  "devdoc": {
    "author": "@0xJonaseb11",
    "details": "Payments in ERC20 stablecoin. ReentrancyGuard, SafeERC20, pull-over-push withdrawals. UUPS upgradeable, pausable.",
    "errors": {
      "AddressEmptyCode(address)": [
        {
          "details": "There's no code at `target` (it is not a contract)."
        }
      ],
      "AddressInsufficientBalance(address)": [
        {
          "details": "The ETH balance of the account is not enough to perform the operation."
        }
      ],
      "ERC1967InvalidImplementation(address)": [
        {
          "details": "The `implementation` of the proxy is invalid."
        }
      ],
      "ERC1967NonPayable()": [
        {
          "details": "An upgrade function sees `msg.value > 0` that may be lost."
        }
      ],
      "EnforcedPause()": [
        {
          "details": "The operation failed because the contract is paused."
        }
      ],
      "ExpectedPause()": [
        {
          "details": "The operation failed because the contract is not paused."
        }
      ],
      "FailedInnerCall()": [
        {
          "details": "A call to an address target failed. The target may have reverted."
        }
      ],
      "InvalidInitialization()": [
        {
          "details": "The contract is already initialized."
        }
      ],
      "NotInitializing()": [
        {
          "details": "The contract is not initializing."
        }
      ],
      "OwnableInvalidOwner(address)": [
        {
          "details": "The owner is not a valid owner account. (eg. `address(0)`)"
        }
      ],
      "OwnableUnauthorizedAccount(address)": [
        {
          "details": "The caller account is not authorized to perform an operation."
        }
      ],
      "ReentrancyGuardReentrantCall()": [
        {
          "details": "Unauthorized reentrant call."
        }
      ],
      "SafeERC20FailedOperation(address)": [
        {
          "details": "An operation with an ERC20 token failed."
        }
      ],
      "UUPSUnauthorizedCallContext()": [
        {
          "details": "The call is from an unauthorized context."
        }
      ],
      "UUPSUnsupportedProxiableUUID(bytes32)": [
        {
          "details": "The storage `slot` is unsupported as a UUID."
        }
      ]
    },
    "events": {
      "Initialized(uint64)": {
        "details": "Triggered when the contract has been initialized or reinitialized."
      },
      "Paused(address)": {
        "details": "Emitted when the pause is triggered by `account`."
      },
      "Unpaused(address)": {
        "details": "Emitted when the pause is lifted by `account`."
      },
      "Upgraded(address)": {
        "details": "Emitted when the implementation is upgraded."
      }
    },
    "kind": "dev",
    "methods": {
      "availableShares(uint256)": {
        "params": {
          "assetId": "Asset identifier."
        },
        "returns": {
          "available": "Remaining shares."
        }
      },
      "getInvestmentPool(uint256)": {
        "params": {
          "assetId": "Asset to query."
        },
        "returns": {
          "pool": "Full AssetInvestmentPool struct."
        }
      },
      "getInvestorHoldings(uint256,address)": {
        "params": {
          "assetId": "Asset identifier.",
          "investor": "Investor address."
        },
        "returns": {
          "shares": "Share count."
        }
      },
      "getInvestorList(uint256)": {
        "params": {
          "assetId": "Asset identifier."
        },
        "returns": {
          "list": "Array of investor addresses."
        }
      },
      "initialize(address,address,address,address,uint256,address)": {
        "params": {
          "_feeTreasury": "Treasury address for fee sweeps.",
          "_owner": "Protocol owner.",
          "_paymentToken": "ERC20 used for investment payments.",
          "_protocolFeeBps": "Protocol fee in basis points (e.g. 50 = 0.5%).",
          "_registry": "VaulticAssetRegistry proxy address.",
          "_tokenImplementation": "VaulticFractionalOwnershipToken implementation address."
        }
      },
      "owner()": {
        "details": "Returns the address of the current owner."
      },
      "paused()": {
        "details": "Returns true if the contract is paused, and false otherwise."
      },
      "proxiableUUID()": {
        "details": "Implementation of the ERC1822 {proxiableUUID} function. This returns the storage slot used by the implementation. It is used to validate the implementation's compatibility when performing an upgrade. IMPORTANT: A proxy pointing at a proxiable contract should not be considered proxiable itself, because this risks bricking a proxy that upgrades to it, by delegating to itself until out of gas. Thus it is critical that this function revert if invoked through a proxy. This is guaranteed by the `notDelegated` modifier."
      },
      "purchaseShares(uint256,uint256,uint256)": {
        "params": {
          "assetId": "Registry identifier of the asset.",
          "paymentAmount": "Gross payment in payment token units (must equal shareAmount × pricePerShare).",
          "shareAmount": "Number of shares to purchase."
        }
      },
      "purchaseWholeAsset(uint256)": {
        "params": {
          "assetId": "Registry identifier of the whole asset (must be ACTIVE and WHOLE_OWNERSHIP)."
        }
      },
      "quotePurchase(uint256,uint256)": {
        "params": {
          "assetId": "Asset to price.",
          "shareAmount": "Number of shares."
        },
        "returns": {
          "fee": "Protocol fee component.",
          "grossCost": "Gross payment tokens required.",
          "netCost": "Net proceeds (grossCost − fee)."
        }
      },
      "quoteWholePurchase(uint256)": {
        "params": {
          "assetId": "Asset to price (must be ACTIVE and WHOLE_OWNERSHIP)."
        },
        "returns": {
          "fee": "Protocol fee component.",
          "grossPayment": "Full valuation (payment token units).",
          "netToSeller": "Amount to seller (gross − fee)."
        }
      },
      "relistAsset(uint256,uint128,uint128,uint128,string,uint128)": {
        "params": {
          "assetId": "Registry identifier of the CLOSED asset.",
          "newInvestorCap": "Per-investor cap for the new round (0 = uncapped).",
          "newMetadataURI": "URI for fresh legal/valuation docs.",
          "newPricePerShare": "Price per share for the new round.",
          "newTotalShares": "Total share supply for the new round.",
          "newValuation": "Updated USD valuation for the new round."
        }
      },
      "relistAssetAsFractional(uint256,uint128,string)": {
        "params": {
          "assetId": "Registry identifier of the CLOSED whole asset.",
          "newMetadataURI": "URI for fresh legal/valuation docs.",
          "newValuation": "USD valuation for the fractional round (6 decimals)."
        }
      },
      "relistWholeAsset(uint256,uint128,string)": {
        "params": {
          "assetId": "Registry identifier of the CLOSED whole asset.",
          "newMetadataURI": "URI for fresh documentation.",
          "newValuation": "USD valuation for the new listing (6 decimals)."
        }
      },
      "renounceOwnership()": {
        "details": "Leaves the contract without owner. It will not be possible to call `onlyOwner` functions. Can only be called by the current owner. NOTE: Renouncing ownership will leave the contract without an owner, thereby disabling any functionality that is only available to the owner."
      },
      "setFeeTreasury(address)": {
        "params": {
          "newTreasury": "New treasury address."
        }
      },
      "setProtocolFee(uint256)": {
        "params": {
          "newFeeBps": "New fee in basis points."
        }
      },
      "setTokenImplementation(address)": {
        "params": {
          "newImplementation": "New implementation address."
        }
      },
      "tokenizeAsset(uint256,uint128,uint128,uint128)": {
        "params": {
          "assetId": "Registry identifier of the asset to tokenize.",
          "investorCap": "Max shares per investor (0 = uncapped).",
          "pricePerShare": "Payment token units per share.",
          "totalShares": "Total fractional shares to mint."
        },
        "returns": {
          "tokenProxy": "Address of the deployed token proxy."
        }
      },
      "transferOwnership(address)": {
        "details": "Transfers ownership of the contract to a new account (`newOwner`). Can only be called by the current owner."
      },
      "upgradeToAndCall(address,bytes)": {
        "custom:oz-upgrades-unsafe-allow-reachable": "delegatecall",
        "details": "Upgrade the implementation of the proxy to `newImplementation`, and subsequently execute the function call encoded in `data`. Calls {_authorizeUpgrade}. Emits an {Upgraded} event."
      },
      "withdrawProceeds(uint256)": {
        "params": {
          "assetId": "Registry identifier of the asset."
        }
      },
      "withdrawableProceeds(uint256)": {
        "params": {
          "assetId": "Asset identifier."
        },
        "returns": {
          "amount": "Withdrawable payment token units."
        }
      }
    },
    "title": "VaulticInvestmentManager",
    "version": 1
  },
  "userdoc": {
    "kind": "user",
    "methods": {
      "availableShares(uint256)": {
        "notice": "Returns remaining unsold shares for the current round."
      },
      "getInvestmentPool(uint256)": {
        "notice": "Returns the investment pool state for the current round."
      },
      "getInvestorHoldings(uint256,address)": {
        "notice": "Returns shares held by an investor for an asset (current round only)."
      },
      "getInvestorList(uint256)": {
        "notice": "Returns the list of investor addresses for the current round (used for reclaimAllShares)."
      },
      "initialize(address,address,address,address,uint256,address)": {
        "notice": "Initializes the upgradeable proxy."
      },
      "pause()": {
        "notice": "Pauses purchases, relists, and withdrawals."
      },
      "purchaseShares(uint256,uint256,uint256)": {
        "notice": "Purchases fractional shares of a TOKENIZED asset. paymentAmount must equal shareAmount × pricePerShare."
      },
      "purchaseWholeAsset(uint256)": {
        "notice": "Purchases a WHOLE_OWNERSHIP asset for its full valuation. Caller pays in payment token; previous owner receives net (minus protocol fee). Asset is closed and ownership transferred to caller."
      },
      "quotePurchase(uint256,uint256)": {
        "notice": "Returns gross cost, fee, and net cost for a prospective purchase."
      },
      "quoteWholePurchase(uint256)": {
        "notice": "Returns gross, fee, and net for a whole-asset purchase (valuation)."
      },
      "relistAsset(uint256,uint128,uint128,uint128,string,uint128)": {
        "notice": "Lets full owner (100% ERC20 supply) relist a CLOSED asset for a new round. Atomic: verify, reclaim, transfer ownership, relist, record tokenization, reset pool."
      },
      "relistAssetAsFractional(uint256,uint128,string)": {
        "notice": "Lets the owner of a CLOSED WHOLE asset relist it as FRACTIONAL so it can be tokenized and sold in shares. Caller must be the registered asset owner. After this, protocol owner must call tokenizeAsset to deploy the token and open the pool."
      },
      "relistWholeAsset(uint256,uint128,string)": {
        "notice": "Lets the owner of a CLOSED WHOLE asset relist it for sale as whole again. Caller must be the registered asset owner."
      },
      "setFeeTreasury(address)": {
        "notice": "Updates the fee treasury address. Owner-only."
      },
      "setProtocolFee(uint256)": {
        "notice": "Updates the protocol fee rate. Owner-only; cap MAX_FEE_BPS."
      },
      "setTokenImplementation(address)": {
        "notice": "Updates the token implementation for future proxy deploys. Owner-only; does not upgrade existing proxies."
      },
      "sweepProtocolFees()": {
        "notice": "Sweeps accumulated protocol fees to feeTreasury. Owner-only."
      },
      "tokenizeAsset(uint256,uint128,uint128,uint128)": {
        "notice": "Deploys a fractional ownership token proxy for an ACTIVE FRACTIONAL asset and records it on the registry. Owner-only."
      },
      "unpause()": {
        "notice": "Unpauses the contract."
      },
      "withdrawProceeds(uint256)": {
        "notice": "Withdraws accumulated net proceeds for the registered asset owner. Pull-over-push; current round only."
      },
      "withdrawableProceeds(uint256)": {
        "notice": "Returns withdrawable net proceeds for the asset owner."
      }
    },
    "notice": "Orchestrates fractional asset tokenization, purchases, proceeds, and full-owner relisting. Holds TOKENIZER_ROLE on the registry.",
    "version": 1
  },
  "storageLayout": {
    "storage": [
      {
        "astId": 2649,
        "contract": "contracts/modules/InvestmentManager.sol:VaulticInvestmentManager",
        "label": "_status",
        "offset": 0,
        "slot": "0",
        "type": "t_uint256"
      },
      {
        "astId": 5140,
        "contract": "contracts/modules/InvestmentManager.sol:VaulticInvestmentManager",
        "label": "registry",
        "offset": 0,
        "slot": "1",
        "type": "t_contract(VaulticAssetRegistry)4352"
      },
      {
        "astId": 5143,
        "contract": "contracts/modules/InvestmentManager.sol:VaulticInvestmentManager",
        "label": "paymentToken",
        "offset": 0,
        "slot": "2",
        "type": "t_contract(IERC20)2033"
      },
      {
        "astId": 5145,
        "contract": "contracts/modules/InvestmentManager.sol:VaulticInvestmentManager",
        "label": "tokenImplementation",
        "offset": 0,
        "slot": "3",
        "type": "t_address"
      },
      {
        "astId": 5147,
        "contract": "contracts/modules/InvestmentManager.sol:VaulticInvestmentManager",
        "label": "protocolFeeBps",
        "offset": 0,
        "slot": "4",
        "type": "t_uint256"
      },
      {
        "astId": 5149,
        "contract": "contracts/modules/InvestmentManager.sol:VaulticInvestmentManager",
        "label": "feeTreasury",
        "offset": 0,
        "slot": "5",
        "type": "t_address"
      },
      {
        "astId": 5151,
        "contract": "contracts/modules/InvestmentManager.sol:VaulticInvestmentManager",
        "label": "accumulatedFees",
        "offset": 0,
        "slot": "6",
        "type": "t_uint256"
      },
      {
        "astId": 5156,
        "contract": "contracts/modules/InvestmentManager.sol:VaulticInvestmentManager",
        "label": "_pools",
        "offset": 0,
        "slot": "7",
        "type": "t_mapping(t_uint256,t_struct(AssetInvestmentPool)5043_storage)"
      },
      {
        "astId": 5162,
        "contract": "contracts/modules/InvestmentManager.sol:VaulticInvestmentManager",
        "label": "investorHoldings",
        "offset": 0,
        "slot": "8",
        "type": "t_mapping(t_uint256,t_mapping(t_address,t_uint256))"
      },
      {
        "astId": 5167,
        "contract": "contracts/modules/InvestmentManager.sol:VaulticInvestmentManager",
        "label": "_investorList",
        "offset": 0,
        "slot": "9",
        "type": "t_mapping(t_uint256,t_array(t_address)dyn_storage)"
      },
      {
        "astId": 5171,
        "contract": "contracts/modules/InvestmentManager.sol:VaulticInvestmentManager",
        "label": "__gap",
        "offset": 0,
        "slot": "10",
        "type": "t_array(t_uint256)50_storage"
      }
    ],
    "types": {
      "t_address": {
        "encoding": "inplace",
        "label": "address",
        "numberOfBytes": "20"
      },
      "t_array(t_address)dyn_storage": {
        "base": "t_address",
        "encoding": "dynamic_array",
        "label": "address[]",
        "numberOfBytes": "32"
      },
      "t_array(t_uint256)50_storage": {
        "base": "t_uint256",
        "encoding": "inplace",
        "label": "uint256[50]",
        "numberOfBytes": "1600"
      },
      "t_bool": {
        "encoding": "inplace",
        "label": "bool",
        "numberOfBytes": "1"
      },
      "t_contract(IERC20)2033": {
        "encoding": "inplace",
        "label": "contract IERC20",
        "numberOfBytes": "20"
      },
      "t_contract(VaulticAssetRegistry)4352": {
        "encoding": "inplace",
        "label": "contract VaulticAssetRegistry",
        "numberOfBytes": "20"
      },
      "t_mapping(t_address,t_uint256)": {
        "encoding": "mapping",
        "key": "t_address",
        "label": "mapping(address => uint256)",
        "numberOfBytes": "32",
        "value": "t_uint256"
      },
      "t_mapping(t_uint256,t_array(t_address)dyn_storage)": {
        "encoding": "mapping",
        "key": "t_uint256",
        "label": "mapping(uint256 => address[])",
        "numberOfBytes": "32",
        "value": "t_array(t_address)dyn_storage"
      },
      "t_mapping(t_uint256,t_mapping(t_address,t_uint256))": {
        "encoding": "mapping",
        "key": "t_uint256",
        "label": "mapping(uint256 => mapping(address => uint256))",
        "numberOfBytes": "32",
        "value": "t_mapping(t_address,t_uint256)"
      },
      "t_mapping(t_uint256,t_struct(AssetInvestmentPool)5043_storage)": {
        "encoding": "mapping",
        "key": "t_uint256",
        "label": "mapping(uint256 => struct VaulticInvestmentManager.AssetInvestmentPool)",
        "numberOfBytes": "32",
        "value": "t_struct(AssetInvestmentPool)5043_storage"
      },
      "t_struct(AssetInvestmentPool)5043_storage": {
        "encoding": "inplace",
        "label": "struct VaulticInvestmentManager.AssetInvestmentPool",
        "members": [
          {
            "astId": 5028,
            "contract": "contracts/modules/InvestmentManager.sol:VaulticInvestmentManager",
            "label": "totalShares",
            "offset": 0,
            "slot": "0",
            "type": "t_uint128"
          },
          {
            "astId": 5030,
            "contract": "contracts/modules/InvestmentManager.sol:VaulticInvestmentManager",
            "label": "soldShares",
            "offset": 16,
            "slot": "0",
            "type": "t_uint128"
          },
          {
            "astId": 5032,
            "contract": "contracts/modules/InvestmentManager.sol:VaulticInvestmentManager",
            "label": "pricePerShare",
            "offset": 0,
            "slot": "1",
            "type": "t_uint128"
          },
          {
            "astId": 5034,
            "contract": "contracts/modules/InvestmentManager.sol:VaulticInvestmentManager",
            "label": "investorCap",
            "offset": 16,
            "slot": "1",
            "type": "t_uint128"
          },
          {
            "astId": 5036,
            "contract": "contracts/modules/InvestmentManager.sol:VaulticInvestmentManager",
            "label": "tokenContract",
            "offset": 0,
            "slot": "2",
            "type": "t_address"
          },
          {
            "astId": 5038,
            "contract": "contracts/modules/InvestmentManager.sol:VaulticInvestmentManager",
            "label": "isFullySubscribed",
            "offset": 20,
            "slot": "2",
            "type": "t_bool"
          },
          {
            "astId": 5040,
            "contract": "contracts/modules/InvestmentManager.sol:VaulticInvestmentManager",
            "label": "proceedsCollected",
            "offset": 0,
            "slot": "3",
            "type": "t_uint256"
          },
          {
            "astId": 5042,
            "contract": "contracts/modules/InvestmentManager.sol:VaulticInvestmentManager",
            "label": "proceedsWithdrawn",
            "offset": 0,
            "slot": "4",
            "type": "t_uint256"
          }
        ],
        "numberOfBytes": "160"
      },
      "t_uint128": {
        "encoding": "inplace",
        "label": "uint128",
        "numberOfBytes": "16"
      },
      "t_uint256": {
        "encoding": "inplace",
        "label": "uint256",
        "numberOfBytes": "32"
      }
    }
  }
}