{
  "address": "0x4d8f5709AcD40aC1DB92A32F68DB81a1d5B1C3B9",
  "abi": [
    {
      "inputs": [
        {
          "internalType": "address",
          "name": "target",
          "type": "address"
        }
      ],
      "name": "AddressEmptyCode",
      "type": "error"
    },
    {
      "inputs": [
        {
          "internalType": "address",
          "name": "implementation",
          "type": "address"
        }
      ],
      "name": "ERC1967InvalidImplementation",
      "type": "error"
    },
    {
      "inputs": [],
      "name": "ERC1967NonPayable",
      "type": "error"
    },
    {
      "inputs": [
        {
          "internalType": "address",
          "name": "spender",
          "type": "address"
        },
        {
          "internalType": "uint256",
          "name": "allowance",
          "type": "uint256"
        },
        {
          "internalType": "uint256",
          "name": "needed",
          "type": "uint256"
        }
      ],
      "name": "ERC20InsufficientAllowance",
      "type": "error"
    },
    {
      "inputs": [
        {
          "internalType": "address",
          "name": "sender",
          "type": "address"
        },
        {
          "internalType": "uint256",
          "name": "balance",
          "type": "uint256"
        },
        {
          "internalType": "uint256",
          "name": "needed",
          "type": "uint256"
        }
      ],
      "name": "ERC20InsufficientBalance",
      "type": "error"
    },
    {
      "inputs": [
        {
          "internalType": "address",
          "name": "approver",
          "type": "address"
        }
      ],
      "name": "ERC20InvalidApprover",
      "type": "error"
    },
    {
      "inputs": [
        {
          "internalType": "address",
          "name": "receiver",
          "type": "address"
        }
      ],
      "name": "ERC20InvalidReceiver",
      "type": "error"
    },
    {
      "inputs": [
        {
          "internalType": "address",
          "name": "sender",
          "type": "address"
        }
      ],
      "name": "ERC20InvalidSender",
      "type": "error"
    },
    {
      "inputs": [
        {
          "internalType": "address",
          "name": "spender",
          "type": "address"
        }
      ],
      "name": "ERC20InvalidSpender",
      "type": "error"
    },
    {
      "inputs": [],
      "name": "EnforcedPause",
      "type": "error"
    },
    {
      "inputs": [],
      "name": "ExpectedPause",
      "type": "error"
    },
    {
      "inputs": [],
      "name": "FailedInnerCall",
      "type": "error"
    },
    {
      "inputs": [
        {
          "internalType": "uint256",
          "name": "requested",
          "type": "uint256"
        },
        {
          "internalType": "uint256",
          "name": "available",
          "type": "uint256"
        }
      ],
      "name": "InsufficientTokenBalance",
      "type": "error"
    },
    {
      "inputs": [],
      "name": "InvalidAssetId",
      "type": "error"
    },
    {
      "inputs": [],
      "name": "InvalidInitialSupply",
      "type": "error"
    },
    {
      "inputs": [],
      "name": "InvalidInitialization",
      "type": "error"
    },
    {
      "inputs": [],
      "name": "InvalidRecipient",
      "type": "error"
    },
    {
      "inputs": [],
      "name": "NotInitializing",
      "type": "error"
    },
    {
      "inputs": [],
      "name": "NothingToReclaim",
      "type": "error"
    },
    {
      "inputs": [
        {
          "internalType": "address",
          "name": "owner",
          "type": "address"
        }
      ],
      "name": "OwnableInvalidOwner",
      "type": "error"
    },
    {
      "inputs": [
        {
          "internalType": "address",
          "name": "account",
          "type": "address"
        }
      ],
      "name": "OwnableUnauthorizedAccount",
      "type": "error"
    },
    {
      "inputs": [],
      "name": "ReentrancyGuardReentrantCall",
      "type": "error"
    },
    {
      "inputs": [],
      "name": "UUPSUnauthorizedCallContext",
      "type": "error"
    },
    {
      "inputs": [
        {
          "internalType": "bytes32",
          "name": "slot",
          "type": "bytes32"
        }
      ],
      "name": "UUPSUnsupportedProxiableUUID",
      "type": "error"
    },
    {
      "inputs": [
        {
          "internalType": "address",
          "name": "caller",
          "type": "address"
        }
      ],
      "name": "UnauthorizedMinter",
      "type": "error"
    },
    {
      "inputs": [],
      "name": "ZeroShareDispatch",
      "type": "error"
    },
    {
      "anonymous": false,
      "inputs": [
        {
          "indexed": true,
          "internalType": "uint256",
          "name": "assetId",
          "type": "uint256"
        },
        {
          "indexed": false,
          "internalType": "uint256",
          "name": "totalReclaimed",
          "type": "uint256"
        }
      ],
      "name": "AllSharesReclaimed",
      "type": "event"
    },
    {
      "anonymous": false,
      "inputs": [
        {
          "indexed": true,
          "internalType": "address",
          "name": "owner",
          "type": "address"
        },
        {
          "indexed": true,
          "internalType": "address",
          "name": "spender",
          "type": "address"
        },
        {
          "indexed": false,
          "internalType": "uint256",
          "name": "value",
          "type": "uint256"
        }
      ],
      "name": "Approval",
      "type": "event"
    },
    {
      "anonymous": false,
      "inputs": [
        {
          "indexed": false,
          "internalType": "uint64",
          "name": "version",
          "type": "uint64"
        }
      ],
      "name": "Initialized",
      "type": "event"
    },
    {
      "anonymous": false,
      "inputs": [
        {
          "indexed": true,
          "internalType": "address",
          "name": "previous",
          "type": "address"
        },
        {
          "indexed": true,
          "internalType": "address",
          "name": "updated",
          "type": "address"
        }
      ],
      "name": "MinterUpdated",
      "type": "event"
    },
    {
      "anonymous": false,
      "inputs": [
        {
          "indexed": true,
          "internalType": "address",
          "name": "previousOwner",
          "type": "address"
        },
        {
          "indexed": true,
          "internalType": "address",
          "name": "newOwner",
          "type": "address"
        }
      ],
      "name": "OwnershipTransferred",
      "type": "event"
    },
    {
      "anonymous": false,
      "inputs": [
        {
          "indexed": false,
          "internalType": "address",
          "name": "account",
          "type": "address"
        }
      ],
      "name": "Paused",
      "type": "event"
    },
    {
      "anonymous": false,
      "inputs": [
        {
          "indexed": true,
          "internalType": "uint256",
          "name": "assetId",
          "type": "uint256"
        },
        {
          "indexed": true,
          "internalType": "address",
          "name": "investor",
          "type": "address"
        },
        {
          "indexed": false,
          "internalType": "uint256",
          "name": "amount",
          "type": "uint256"
        }
      ],
      "name": "SharesDispatched",
      "type": "event"
    },
    {
      "anonymous": false,
      "inputs": [
        {
          "indexed": true,
          "internalType": "uint256",
          "name": "assetId",
          "type": "uint256"
        },
        {
          "indexed": true,
          "internalType": "address",
          "name": "recipient",
          "type": "address"
        },
        {
          "indexed": false,
          "internalType": "uint256",
          "name": "supply",
          "type": "uint256"
        }
      ],
      "name": "SupplyMinted",
      "type": "event"
    },
    {
      "anonymous": false,
      "inputs": [
        {
          "indexed": true,
          "internalType": "address",
          "name": "from",
          "type": "address"
        },
        {
          "indexed": true,
          "internalType": "address",
          "name": "to",
          "type": "address"
        },
        {
          "indexed": false,
          "internalType": "uint256",
          "name": "value",
          "type": "uint256"
        }
      ],
      "name": "Transfer",
      "type": "event"
    },
    {
      "anonymous": false,
      "inputs": [
        {
          "indexed": false,
          "internalType": "address",
          "name": "account",
          "type": "address"
        }
      ],
      "name": "Unpaused",
      "type": "event"
    },
    {
      "anonymous": false,
      "inputs": [
        {
          "indexed": true,
          "internalType": "address",
          "name": "implementation",
          "type": "address"
        }
      ],
      "name": "Upgraded",
      "type": "event"
    },
    {
      "inputs": [],
      "name": "UPGRADE_INTERFACE_VERSION",
      "outputs": [
        {
          "internalType": "string",
          "name": "",
          "type": "string"
        }
      ],
      "stateMutability": "view",
      "type": "function"
    },
    {
      "inputs": [
        {
          "internalType": "address",
          "name": "owner",
          "type": "address"
        },
        {
          "internalType": "address",
          "name": "spender",
          "type": "address"
        }
      ],
      "name": "allowance",
      "outputs": [
        {
          "internalType": "uint256",
          "name": "",
          "type": "uint256"
        }
      ],
      "stateMutability": "view",
      "type": "function"
    },
    {
      "inputs": [
        {
          "internalType": "address",
          "name": "spender",
          "type": "address"
        },
        {
          "internalType": "uint256",
          "name": "value",
          "type": "uint256"
        }
      ],
      "name": "approve",
      "outputs": [
        {
          "internalType": "bool",
          "name": "",
          "type": "bool"
        }
      ],
      "stateMutability": "nonpayable",
      "type": "function"
    },
    {
      "inputs": [],
      "name": "assetId",
      "outputs": [
        {
          "internalType": "uint256",
          "name": "",
          "type": "uint256"
        }
      ],
      "stateMutability": "view",
      "type": "function"
    },
    {
      "inputs": [],
      "name": "assetName",
      "outputs": [
        {
          "internalType": "string",
          "name": "",
          "type": "string"
        }
      ],
      "stateMutability": "view",
      "type": "function"
    },
    {
      "inputs": [],
      "name": "authorizedMinter",
      "outputs": [
        {
          "internalType": "address",
          "name": "",
          "type": "address"
        }
      ],
      "stateMutability": "view",
      "type": "function"
    },
    {
      "inputs": [
        {
          "internalType": "address",
          "name": "account",
          "type": "address"
        }
      ],
      "name": "balanceOf",
      "outputs": [
        {
          "internalType": "uint256",
          "name": "",
          "type": "uint256"
        }
      ],
      "stateMutability": "view",
      "type": "function"
    },
    {
      "inputs": [],
      "name": "decimals",
      "outputs": [
        {
          "internalType": "uint8",
          "name": "",
          "type": "uint8"
        }
      ],
      "stateMutability": "pure",
      "type": "function"
    },
    {
      "inputs": [
        {
          "internalType": "address",
          "name": "investor",
          "type": "address"
        },
        {
          "internalType": "uint256",
          "name": "amount",
          "type": "uint256"
        }
      ],
      "name": "dispatchShares",
      "outputs": [],
      "stateMutability": "nonpayable",
      "type": "function"
    },
    {
      "inputs": [
        {
          "internalType": "uint256",
          "name": "_assetId",
          "type": "uint256"
        },
        {
          "internalType": "string",
          "name": "_assetName",
          "type": "string"
        },
        {
          "internalType": "uint256",
          "name": "_totalSupply",
          "type": "uint256"
        },
        {
          "internalType": "address",
          "name": "_initialHolder",
          "type": "address"
        },
        {
          "internalType": "address",
          "name": "_authorizedMinter",
          "type": "address"
        },
        {
          "internalType": "address",
          "name": "_owner",
          "type": "address"
        }
      ],
      "name": "initialize",
      "outputs": [],
      "stateMutability": "nonpayable",
      "type": "function"
    },
    {
      "inputs": [],
      "name": "name",
      "outputs": [
        {
          "internalType": "string",
          "name": "",
          "type": "string"
        }
      ],
      "stateMutability": "view",
      "type": "function"
    },
    {
      "inputs": [],
      "name": "owner",
      "outputs": [
        {
          "internalType": "address",
          "name": "",
          "type": "address"
        }
      ],
      "stateMutability": "view",
      "type": "function"
    },
    {
      "inputs": [],
      "name": "pause",
      "outputs": [],
      "stateMutability": "nonpayable",
      "type": "function"
    },
    {
      "inputs": [],
      "name": "paused",
      "outputs": [
        {
          "internalType": "bool",
          "name": "",
          "type": "bool"
        }
      ],
      "stateMutability": "view",
      "type": "function"
    },
    {
      "inputs": [],
      "name": "proxiableUUID",
      "outputs": [
        {
          "internalType": "bytes32",
          "name": "",
          "type": "bytes32"
        }
      ],
      "stateMutability": "view",
      "type": "function"
    },
    {
      "inputs": [
        {
          "internalType": "address[]",
          "name": "holders",
          "type": "address[]"
        }
      ],
      "name": "reclaimAllShares",
      "outputs": [
        {
          "internalType": "uint256",
          "name": "reclaimed",
          "type": "uint256"
        }
      ],
      "stateMutability": "nonpayable",
      "type": "function"
    },
    {
      "inputs": [],
      "name": "remainingShares",
      "outputs": [
        {
          "internalType": "uint256",
          "name": "remaining",
          "type": "uint256"
        }
      ],
      "stateMutability": "view",
      "type": "function"
    },
    {
      "inputs": [],
      "name": "renounceOwnership",
      "outputs": [],
      "stateMutability": "nonpayable",
      "type": "function"
    },
    {
      "inputs": [
        {
          "internalType": "address",
          "name": "newMinter",
          "type": "address"
        }
      ],
      "name": "setAuthorizedMinter",
      "outputs": [],
      "stateMutability": "nonpayable",
      "type": "function"
    },
    {
      "inputs": [],
      "name": "symbol",
      "outputs": [
        {
          "internalType": "string",
          "name": "",
          "type": "string"
        }
      ],
      "stateMutability": "view",
      "type": "function"
    },
    {
      "inputs": [],
      "name": "totalSupply",
      "outputs": [
        {
          "internalType": "uint256",
          "name": "",
          "type": "uint256"
        }
      ],
      "stateMutability": "view",
      "type": "function"
    },
    {
      "inputs": [
        {
          "internalType": "address",
          "name": "to",
          "type": "address"
        },
        {
          "internalType": "uint256",
          "name": "value",
          "type": "uint256"
        }
      ],
      "name": "transfer",
      "outputs": [
        {
          "internalType": "bool",
          "name": "",
          "type": "bool"
        }
      ],
      "stateMutability": "nonpayable",
      "type": "function"
    },
    {
      "inputs": [
        {
          "internalType": "address",
          "name": "from",
          "type": "address"
        },
        {
          "internalType": "address",
          "name": "to",
          "type": "address"
        },
        {
          "internalType": "uint256",
          "name": "value",
          "type": "uint256"
        }
      ],
      "name": "transferFrom",
      "outputs": [
        {
          "internalType": "bool",
          "name": "",
          "type": "bool"
        }
      ],
      "stateMutability": "nonpayable",
      "type": "function"
    },
    {
      "inputs": [
        {
          "internalType": "address",
          "name": "newOwner",
          "type": "address"
        }
      ],
      "name": "transferOwnership",
      "outputs": [],
      "stateMutability": "nonpayable",
      "type": "function"
    },
    {
      "inputs": [],
      "name": "unpause",
      "outputs": [],
      "stateMutability": "nonpayable",
      "type": "function"
    },
    {
      "inputs": [
        {
          "internalType": "address",
          "name": "newImplementation",
          "type": "address"
        },
        {
          "internalType": "bytes",
          "name": "data",
          "type": "bytes"
        }
      ],
      "name": "upgradeToAndCall",
      "outputs": [],
      "stateMutability": "payable",
      "type": "function"
    }
  ],
  "transactionHash": "0xbc6db9da5a8de107980b0e6fad76c0e643ff9ffc4de07fd8a99c43b9ff6e829d",
  "args": [],
  "numDeployments": 1,
  "solcInputHash": "5c9862b0d4d8590c3319f896f2f53ff3",
  "bytecode": "0x60a08060405234602e57600160005530608052611c1d90816100348239608051818181610ff701526110cb0152f35b600080fdfe6080604052600436101561001257600080fd5b60003560e01c806306fdde0314611579578063095ea7b3146114f857806318160ddd146114cd5780631928b7c3146114595780631ba538cd1461143057806323b872dd1461134c578063313ce567146113305780633f4ba83a146112ad57806344de240a1461128f5780634f1ef2861461104e57806352d1902d14610fe45780635c975abb14610fb457806370a0823114610f6e578063715018a614610f045780638456cb5914610e9057806385466e8c14610d255780638da5cb5b14610cef57806395d89b4114610c2d578063a9059cbb14610bfc578063ad3cb1cc14610bbd578063c9230c5d14610ae0578063d3e4c45d14610301578063d66c42ec146102bc578063dd62ed3e14610273578063e27649901461016a5763f2fde38b1461013a57600080fd5b346101655760203660031901126101655761016361015661168a565b61015e611800565b61178a565b005b600080fd5b346101655760403660031901126101655761018361168a565b600254602435906001600160a01b0316330361025e576101a161192d565b6101a961194f565b6001600160a01b03821691821561024d57811561023c5733600052600080516020611b088339815191526020526040600020548083116102245750816101ef9133611836565b7f0d83b7716251567356dfa435254012d91738d69f65178a74d6be0351ae4689e1602060015492604051908152a36001600055005b8263142e249f60e31b60005260045260245260446000fd5b633fb4624960e11b60005260046000fd5b634e46966960e11b60005260046000fd5b63a4f3966560e01b6000523360045260246000fd5b346101655760403660031901126101655761028c61168a565b61029d6102976116a0565b9161172e565b9060018060a01b03166000526020526020604060002054604051908152f35b34610165576000366003190112610165576002546001600160a01b03166000908152600080516020611b0883398151915260209081526040909120545b604051908152f35b346101655760c03660031901126101655760243560043567ffffffffffffffff821161016557366023830112156101655781600401359067ffffffffffffffff8211610165573660248385010111610165576064356001600160a01b038116919060443590839003610165576084356001600160a01b038116908190036101655760a435946001600160a01b038616860361016557600080516020611bc8833981519152549560ff8760401c16159667ffffffffffffffff811680159081610ad8575b6001149081610ace575b159081610ac5575b50610ab45767ffffffffffffffff198116600117600080516020611bc88339815191525587610a87575b508415610a76578315610a6557851561024d578215610a4f576040516802b30bab63a34b19d160bd1b60208201528260248a0160298301376104566029828581016000838201520301601f1981018352826116b6565b61045f86611979565b9061049b6024604051809463564c542d60e01b602083015261048a815180926020868601910161163b565b81010301601f1981018452836116b6565b6104a3611a58565b6104ab611a58565b80519067ffffffffffffffff8211610944576104d5600080516020611ae8833981519152546116f4565b601f81116109dd575b50602090601f831160011461095a57610510929160009183610840575b50508160011b916000199060031b1c19161790565b600080516020611ae8833981519152555b80519067ffffffffffffffff82116109445761054b600080516020611b28833981519152546116f4565b601f81116108d2575b50602090601f831160011461084b57918061058a926105b395946000926108405750508160011b916000199060031b1c19161790565b600080516020611b28833981519152555b6105a3611a58565b6105ab611a58565b61015e611a58565b836001556000966105c56003546116f4565b601f81116107dd575b508790601f831160011461072f57827f527af53161f37f844c178e2933c054611c7f5676963ac12e6de9f4f51819b4c5959360209593610623938c926107215750508160011b916000199060031b1c19161790565b6003555b6bffffffffffffffffffffffff60a01b600254161760025561064761194f565b61066081600080516020611b6883398151915254611767565b600080516020611b6883398151915255848752600080516020611b0883398151915282526040872081815401905584877fddf252ad1be2c89b69c2b068fc378daa952ba7f163c4a11628f55a4df523b3ef84604051858152a3604051908152a36106c75780f35b68ff000000000000000019600080516020611bc88339815191525416600080516020611bc8833981519152557fc7f505b2f371ae2175ee4913f4499e1f2633a7b5936321eed1cdaeb6115181d2602060405160018152a180f35b602492500101358b806104fb565b600389527fc2575a0e9e593c00f959f8c92f12db2869c3395a3b0502d05e2516446f71f85b91601f1984168a5b8181106107c257509260019285927f527af53161f37f844c178e2933c054611c7f5676963ac12e6de9f4f51819b4c5989660209896106107a5575b505050811b01600355610627565b0160240135600019600384901b60f8161c191690558a8080610797565b9193602060018192602488880101358155019501920161075c565b600389527fc2575a0e9e593c00f959f8c92f12db2869c3395a3b0502d05e2516446f71f85b601f840160051c81019160208510610836575b601f0160051c01905b81811061082b57506105ce565b89815560010161081e565b9091508190610815565b015190508c806104fb565b90601f19831691600080516020611b28833981519152600052816000209260005b8181106108ba57509160019391856105b3979694106108a1575b505050811b01600080516020611b288339815191525561059b565b015160001960f88460031b161c191690558b8080610886565b9293602060018192878601518155019501930161086c565b600080516020611b288339815191526000527f46a2803e59a4de4e7a4c574b1243f25977ac4c77d5a1a4a609b5394cebb4a2aa601f840160051c8101916020851061093a575b601f0160051c01905b81811061092e5750610554565b60008155600101610921565b9091508190610918565b634e487b7160e01b600052604160045260246000fd5b90601f19831691600080516020611ae8833981519152600052816000209260005b8181106109c557509084600195949392106109ac575b505050811b01600080516020611ae883398151915255610521565b015160001960f88460031b161c191690558b8080610991565b9293602060018192878601518155019501930161097b565b600080516020611ae88339815191526000527f2ae08a8e29253f69ac5d979a101956ab8f8d9d7ded63fa7a83b16fc47648eab0601f840160051c81019160208510610a45575b601f0160051c01905b818110610a3957506104de565b60008155600101610a2c565b9091508190610a23565b63a4f3966560e01b600052600060045260246000fd5b63c2c5358f60e01b60005260046000fd5b6307d7e52d60e51b60005260046000fd5b68ffffffffffffffffff19166801000000000000000117600080516020611bc88339815191525588610400565b63f92ee8a960e01b60005260046000fd5b9050158a6103d6565b303b1591506103ce565b8991506103c4565b34610165576000366003190112610165576040516000600354610b02816116f4565b8084529060018116908115610b995750600114610b3a575b610b3683610b2a818503826116b6565b6040519182918261165e565b0390f35b600360009081527fc2575a0e9e593c00f959f8c92f12db2869c3395a3b0502d05e2516446f71f85b939250905b808210610b7f57509091508101602001610b2a610b1a565b919260018160209254838588010152019101909291610b67565b60ff191660208086019190915291151560051b84019091019150610b2a9050610b1a565b3461016557600036600319011261016557610b366040805190610be081836116b6565b60058252640352e302e360dc1b6020830152519182918261165e565b3461016557604036600319011261016557610c22610c1861168a565b6024359033611836565b602060405160018152f35b34610165576000366003190112610165576040516000600080516020611b2883398151915254610c5c816116f4565b8084529060018116908115610b995750600114610c8357610b3683610b2a818503826116b6565b600080516020611b2883398151915260009081527f46a2803e59a4de4e7a4c574b1243f25977ac4c77d5a1a4a609b5394cebb4a2aa939250905b808210610cd557509091508101602001610b2a610b1a565b919260018160209254838588010152019101909291610cbd565b3461016557600036600319011261016557600080516020611b48833981519152546040516001600160a01b039091168152602090f35b346101655760203660031901126101655760043567ffffffffffffffff8111610165573660238201121561016557806004013567ffffffffffffffff8111610165573660248260051b84010111610165576002546001600160a01b0316330361025e57610d9061192d565b610d9861194f565b600033600052600080516020611b08833981519152602052604060002054600080516020611b688339815191525414610e7f5760005b82811015610e4357600581901b84016024013560006001600160a01b038216808303610e3f578152600080516020611b0883398151915260205260409020549081610e1e575b5050600101610dce565b9060019293610e3282610e37943390611836565b611767565b919085610e14565b5080fd5b6020826001547f53a4e33604379d3137d789f3005f3fcb71d0e30d061c8e829e3f83baf7e8011383604051848152a26001600055604051908152f35b63fddb35b360e01b60005260046000fd5b3461016557600036600319011261016557610ea9611800565b610eb161194f565b600160ff19600080516020611ba8833981519152541617600080516020611ba8833981519152557f62e78cea01bee320cd4e420270b5ea74000d11b0c9f74754ebdbfc544b05a2586020604051338152a1005b3461016557600036600319011261016557610f1d611800565b600080516020611b4883398151915280546001600160a01b031981169091556000906001600160a01b03167f8be0079c531659141344cd1fd0a4f28419497f9722a3daafe3b4186f6b6457e08280a3005b346101655760203660031901126101655760206102f9610f8c61168a565b6001600160a01b03166000908152600080516020611b08833981519152602052604090205490565b3461016557600036600319011261016557602060ff600080516020611ba883398151915254166040519015158152f35b34610165576000366003190112610165577f00000000000000000000000000000000000000000000000000000000000000006001600160a01b0316300361103d576020604051600080516020611b888339815191528152f35b63703e46dd60e11b60005260046000fd5b60403660031901126101655761106261168a565b6024359067ffffffffffffffff821161016557366023830112156101655781600401359061108f826116d8565b9161109d60405193846116b6565b8083526020830193366024838301011161016557816000926024602093018737840101526001600160a01b037f00000000000000000000000000000000000000000000000000000000000000001630811490811561126c575b5061103d57611103611800565b6040516352d1902d60e01b81526001600160a01b0382169390602081600481885afa60009181611238575b506111485784634c9c8ce360e01b60005260045260246000fd5b80600080516020611b888339815191528692036112245750823b1561121057600080516020611b8883398151915280546001600160a01b031916821790557fbc7cd75a20ee27fd9adebab32041f755214dbc6bffa90cc0225b39da2e5c2d3b600080a28251156111f55760008091610163945190845af43d156111ed573d916111d0836116d8565b926111de60405194856116b6565b83523d6000602085013e611a86565b606091611a86565b505050346111ff57005b63b398979f60e01b60005260046000fd5b634c9c8ce360e01b60005260045260246000fd5b632a87526960e21b60005260045260246000fd5b9091506020813d602011611264575b81611254602093836116b6565b810103126101655751908661112e565b3d9150611247565b600080516020611b88833981519152546001600160a01b031614159050846110f6565b34610165576000366003190112610165576020600154604051908152f35b34610165576000366003190112610165576112c6611800565b600080516020611ba88339815191525460ff81161561131f5760ff1916600080516020611ba8833981519152557f5db9ee0a495bf2e6ff9c91a7834c1ba4fdd244a5e8aa4e537bd38aeae4b073aa6020604051338152a1005b638dfc202b60e01b60005260046000fd5b3461016557600036600319011261016557602060405160008152f35b346101655760603660031901126101655761136561168a565b61136d6116a0565b6044359061137a8361172e565b33600090815260209190915260409020549260001984106113a0575b610c229350611836565b828410611413576001600160a01b038116156113fd5733156113e757610c22936113c98261172e565b60018060a01b03331660005260205283604060002091039055611396565b634a1406b160e11b600052600060045260246000fd5b63e602df0560e01b600052600060045260246000fd5b8284637dc7a0d960e11b6000523360045260245260445260646000fd5b34610165576000366003190112610165576002546040516001600160a01b039091168152602090f35b346101655760203660031901126101655761147261168a565b61147a611800565b6001600160a01b03168015610a4f57600280546001600160a01b0319811683179091556001600160a01b03167f1cf2de25c5bf439ac0287061c3a0fa69b3b02867d0ccfd2ded34e42577050b73600080a3005b34610165576000366003190112610165576020600080516020611b6883398151915254604051908152f35b346101655760403660031901126101655761151161168a565b6024359033156113fd576001600160a01b03169081156113e7576115343361172e565b82600052602052806040600020556040519081527f8c5be1e5ebec7d5bd14f71427d1e84f3dd0314c0f7b2291e5b200ac8c7c3b92560203392a3602060405160018152f35b34610165576000366003190112610165576040516000600080516020611ae8833981519152546115a8816116f4565b8084529060018116908115610b9957506001146115cf57610b3683610b2a818503826116b6565b600080516020611ae883398151915260009081527f2ae08a8e29253f69ac5d979a101956ab8f8d9d7ded63fa7a83b16fc47648eab0939250905b80821061162157509091508101602001610b2a610b1a565b919260018160209254838588010152019101909291611609565b60005b83811061164e5750506000910152565b818101518382015260200161163e565b6040916020825261167e815180928160208601526020868601910161163b565b601f01601f1916010190565b600435906001600160a01b038216820361016557565b602435906001600160a01b038216820361016557565b90601f8019910116810190811067ffffffffffffffff82111761094457604052565b67ffffffffffffffff811161094457601f01601f191660200190565b90600182811c92168015611724575b602083101461170e57565b634e487b7160e01b600052602260045260246000fd5b91607f1691611703565b6001600160a01b031660009081527f52c63247e1f47db19d5ce0460030c497f067ca4cebf71ba98eeadabe20bace016020526040902090565b9190820180921161177457565b634e487b7160e01b600052601160045260246000fd5b6001600160a01b031680156117ea57600080516020611b4883398151915280546001600160a01b0319811683179091556001600160a01b03167f8be0079c531659141344cd1fd0a4f28419497f9722a3daafe3b4186f6b6457e0600080a3565b631e4fbdf760e01b600052600060045260246000fd5b600080516020611b48833981519152546001600160a01b0316330361182157565b63118cdaa760e01b6000523360045260246000fd5b6001600160a01b0316908115611917576001600160a01b03169182156119015761185e61194f565b6000828152600080516020611b0883398151915260205260408120548281106118e75791604082827fddf252ad1be2c89b69c2b068fc378daa952ba7f163c4a11628f55a4df523b3ef958760209652600080516020611b0883398151915286520382822055868152600080516020611b08833981519152845220818154019055604051908152a3565b916064928463391434e360e21b8452600452602452604452fd5b63ec442f0560e01b600052600060045260246000fd5b634b637e8f60e11b600052600060045260246000fd5b60026000541461193e576002600055565b633ee5aeb560e01b60005260046000fd5b60ff600080516020611ba8833981519152541661196857565b63d93c066560e01b60005260046000fd5b8015611a3857600081805b611a205750611992816116d8565b906119a060405192836116b6565b808252601f196119af826116d8565b013660208401375b808315611a19578015611774576000190192600a81066030019182603011611774578351851015611a0357600a9260f81b6001600160f81b03191660001a908401601f015304916119b7565b634e487b7160e01b600052603260045260246000fd5b5050905090565b906000198114611774576001600a9101910480611984565b50604051611a476040826116b6565b60018152600360fc1b602082015290565b60ff600080516020611bc88339815191525460401c1615611a7557565b631afcd79f60e31b60005260046000fd5b90611aac5750805115611a9b57805190602001fd5b630a12f52160e11b60005260046000fd5b81511580611ade575b611abd575090565b639996b31560e01b60009081526001600160a01b0391909116600452602490fd5b50803b15611ab556fe52c63247e1f47db19d5ce0460030c497f067ca4cebf71ba98eeadabe20bace0352c63247e1f47db19d5ce0460030c497f067ca4cebf71ba98eeadabe20bace0052c63247e1f47db19d5ce0460030c497f067ca4cebf71ba98eeadabe20bace049016d09d72d40fdae2fd8ceac6b6234c7706214fd39c1cd1e609a0528c19930052c63247e1f47db19d5ce0460030c497f067ca4cebf71ba98eeadabe20bace02360894a13ba1a3210667c828492db98dca3e2076cc3735a920a3ca505d382bbccd5ed15c6e187e77e9aee88184c21f4f2182ab5827cb3b7e07fbedcd63f03300f0c57e16840df040f15088dc2f81fe391c3923bec73e23a9662efc9c229c6a00a264697066735822122096198e7d1ea104747eef66b800d632ebdd9662ddd07782e960511639343dd9af64736f6c634300081e0033",
  "devdoc": {
    "author": "@0xJonaseb11",
    "details": "One proxy per tokenized asset; full supply minted at init to InvestmentManager. Decimals 0 (whole shares). UUPS, pausable.",
    "errors": {
      "AddressEmptyCode(address)": [
        {
          "details": "There's no code at `target` (it is not a contract)."
        }
      ],
      "ERC1967InvalidImplementation(address)": [
        {
          "details": "The `implementation` of the proxy is invalid."
        }
      ],
      "ERC1967NonPayable()": [
        {
          "details": "An upgrade function sees `msg.value > 0` that may be lost."
        }
      ],
      "ERC20InsufficientAllowance(address,uint256,uint256)": [
        {
          "details": "Indicates a failure with the `spender`’s `allowance`. Used in transfers.",
          "params": {
            "allowance": "Amount of tokens a `spender` is allowed to operate with.",
            "needed": "Minimum amount required to perform a transfer.",
            "spender": "Address that may be allowed to operate on tokens without being their owner."
          }
        }
      ],
      "ERC20InsufficientBalance(address,uint256,uint256)": [
        {
          "details": "Indicates an error related to the current `balance` of a `sender`. Used in transfers.",
          "params": {
            "balance": "Current balance for the interacting account.",
            "needed": "Minimum amount required to perform a transfer.",
            "sender": "Address whose tokens are being transferred."
          }
        }
      ],
      "ERC20InvalidApprover(address)": [
        {
          "details": "Indicates a failure with the `approver` of a token to be approved. Used in approvals.",
          "params": {
            "approver": "Address initiating an approval operation."
          }
        }
      ],
      "ERC20InvalidReceiver(address)": [
        {
          "details": "Indicates a failure with the token `receiver`. Used in transfers.",
          "params": {
            "receiver": "Address to which tokens are being transferred."
          }
        }
      ],
      "ERC20InvalidSender(address)": [
        {
          "details": "Indicates a failure with the token `sender`. Used in transfers.",
          "params": {
            "sender": "Address whose tokens are being transferred."
          }
        }
      ],
      "ERC20InvalidSpender(address)": [
        {
          "details": "Indicates a failure with the `spender` to be approved. Used in approvals.",
          "params": {
            "spender": "Address that may be allowed to operate on tokens without being their owner."
          }
        }
      ],
      "EnforcedPause()": [
        {
          "details": "The operation failed because the contract is paused."
        }
      ],
      "ExpectedPause()": [
        {
          "details": "The operation failed because the contract is not paused."
        }
      ],
      "FailedInnerCall()": [
        {
          "details": "A call to an address target failed. The target may have reverted."
        }
      ],
      "InvalidInitialization()": [
        {
          "details": "The contract is already initialized."
        }
      ],
      "NotInitializing()": [
        {
          "details": "The contract is not initializing."
        }
      ],
      "OwnableInvalidOwner(address)": [
        {
          "details": "The owner is not a valid owner account. (eg. `address(0)`)"
        }
      ],
      "OwnableUnauthorizedAccount(address)": [
        {
          "details": "The caller account is not authorized to perform an operation."
        }
      ],
      "ReentrancyGuardReentrantCall()": [
        {
          "details": "Unauthorized reentrant call."
        }
      ],
      "UUPSUnauthorizedCallContext()": [
        {
          "details": "The call is from an unauthorized context."
        }
      ],
      "UUPSUnsupportedProxiableUUID(bytes32)": [
        {
          "details": "The storage `slot` is unsupported as a UUID."
        }
      ]
    },
    "events": {
      "Approval(address,address,uint256)": {
        "details": "Emitted when the allowance of a `spender` for an `owner` is set by a call to {approve}. `value` is the new allowance."
      },
      "Initialized(uint64)": {
        "details": "Triggered when the contract has been initialized or reinitialized."
      },
      "Paused(address)": {
        "details": "Emitted when the pause is triggered by `account`."
      },
      "Transfer(address,address,uint256)": {
        "details": "Emitted when `value` tokens are moved from one account (`from`) to another (`to`). Note that `value` may be zero."
      },
      "Unpaused(address)": {
        "details": "Emitted when the pause is lifted by `account`."
      },
      "Upgraded(address)": {
        "details": "Emitted when the implementation is upgraded."
      }
    },
    "kind": "dev",
    "methods": {
      "allowance(address,address)": {
        "details": "Returns the remaining number of tokens that `spender` will be allowed to spend on behalf of `owner` through {transferFrom}. This is zero by default. This value changes when {approve} or {transferFrom} are called."
      },
      "approve(address,uint256)": {
        "details": "See {IERC20-approve}. NOTE: If `value` is the maximum `uint256`, the allowance is not updated on `transferFrom`. This is semantically equivalent to an infinite approval. Requirements: - `spender` cannot be the zero address."
      },
      "balanceOf(address)": {
        "details": "Returns the value of tokens owned by `account`."
      },
      "decimals()": {
        "returns": {
          "_0": "0 always."
        }
      },
      "dispatchShares(address,uint256)": {
        "params": {
          "amount": "Number of shares to send.",
          "investor": "Destination address for the dispatched shares."
        }
      },
      "initialize(uint256,string,uint256,address,address,address)": {
        "params": {
          "_assetId": "Registry identifier for the underlying asset.",
          "_assetName": "Human-readable asset name (used in token name).",
          "_authorizedMinter": "Address permitted to dispatch and reclaim shares.",
          "_initialHolder": "Address receiving all minted shares (e.g. InvestmentManager).",
          "_owner": "Protocol owner for upgrade and admin.",
          "_totalSupply": "Number of indivisible share tokens to mint."
        }
      },
      "name()": {
        "details": "Returns the name of the token."
      },
      "owner()": {
        "details": "Returns the address of the current owner."
      },
      "paused()": {
        "details": "Returns true if the contract is paused, and false otherwise."
      },
      "proxiableUUID()": {
        "details": "Implementation of the ERC1822 {proxiableUUID} function. This returns the storage slot used by the implementation. It is used to validate the implementation's compatibility when performing an upgrade. IMPORTANT: A proxy pointing at a proxiable contract should not be considered proxiable itself, because this risks bricking a proxy that upgrades to it, by delegating to itself until out of gas. Thus it is critical that this function revert if invoked through a proxy. This is guaranteed by the `notDelegated` modifier."
      },
      "reclaimAllShares(address[])": {
        "params": {
          "holders": "Array of addresses that currently hold shares (supplied by InvestmentManager)."
        },
        "returns": {
          "reclaimed": "Total number of shares pulled back to the minter."
        }
      },
      "remainingShares()": {
        "returns": {
          "remaining": "Balance of authorizedMinter."
        }
      },
      "renounceOwnership()": {
        "details": "Leaves the contract without owner. It will not be possible to call `onlyOwner` functions. Can only be called by the current owner. NOTE: Renouncing ownership will leave the contract without an owner, thereby disabling any functionality that is only available to the owner."
      },
      "setAuthorizedMinter(address)": {
        "params": {
          "newMinter": "New address to grant minter role."
        }
      },
      "symbol()": {
        "details": "Returns the symbol of the token, usually a shorter version of the name."
      },
      "totalSupply()": {
        "details": "Returns the value of tokens in existence."
      },
      "transfer(address,uint256)": {
        "details": "See {IERC20-transfer}. Requirements: - `to` cannot be the zero address. - the caller must have a balance of at least `value`."
      },
      "transferFrom(address,address,uint256)": {
        "details": "See {IERC20-transferFrom}. Skips emitting an {Approval} event indicating an allowance update. This is not required by the ERC. See {xref-ERC20-_approve-address-address-uint256-bool-}[_approve]. NOTE: Does not update the allowance if the current allowance is the maximum `uint256`. Requirements: - `from` and `to` cannot be the zero address. - `from` must have a balance of at least `value`. - the caller must have allowance for ``from``'s tokens of at least `value`."
      },
      "transferOwnership(address)": {
        "details": "Transfers ownership of the contract to a new account (`newOwner`). Can only be called by the current owner."
      },
      "upgradeToAndCall(address,bytes)": {
        "custom:oz-upgrades-unsafe-allow-reachable": "delegatecall",
        "details": "Upgrade the implementation of the proxy to `newImplementation`, and subsequently execute the function call encoded in `data`. Calls {_authorizeUpgrade}. Emits an {Upgraded} event."
      }
    },
    "title": "VaulticFractionalOwnershipToken",
    "version": 1
  },
  "userdoc": {
    "kind": "user",
    "methods": {
      "decimals()": {
        "notice": "Returns the number of decimal places (0 — whole shares only)."
      },
      "dispatchShares(address,uint256)": {
        "notice": "Transfers shares from the minter's balance to an investor. Minter-only."
      },
      "initialize(uint256,string,uint256,address,address,address)": {
        "notice": "Initializes the token proxy for a specific RWA. Mints full supply to initialHolder; supply is fixed thereafter."
      },
      "pause()": {
        "notice": "Pauses all token transfers."
      },
      "reclaimAllShares(address[])": {
        "notice": "Pulls all outstanding shares from the given holders back to the minter (for relisting). Minter-only."
      },
      "remainingShares()": {
        "notice": "Returns shares still held by the minter (undispatched)."
      },
      "setAuthorizedMinter(address)": {
        "notice": "Reassigns the authorized minter. Owner-only (e.g. when upgrading InvestmentManager)."
      },
      "unpause()": {
        "notice": "Restores normal token transfer functionality."
      }
    },
    "notice": "Upgradeable ERC20 representing fractional ownership of a single RWA in the Vaultic Trust protocol.",
    "version": 1
  },
  "storageLayout": {
    "storage": [
      {
        "astId": 3194,
        "contract": "contracts/modules/FractionalOwnershipToken.sol:VaulticFractionalOwnershipToken",
        "label": "_status",
        "offset": 0,
        "slot": "0",
        "type": "t_uint256"
      },
      {
        "astId": 4749,
        "contract": "contracts/modules/FractionalOwnershipToken.sol:VaulticFractionalOwnershipToken",
        "label": "assetId",
        "offset": 0,
        "slot": "1",
        "type": "t_uint256"
      },
      {
        "astId": 4751,
        "contract": "contracts/modules/FractionalOwnershipToken.sol:VaulticFractionalOwnershipToken",
        "label": "authorizedMinter",
        "offset": 0,
        "slot": "2",
        "type": "t_address"
      },
      {
        "astId": 4753,
        "contract": "contracts/modules/FractionalOwnershipToken.sol:VaulticFractionalOwnershipToken",
        "label": "assetName",
        "offset": 0,
        "slot": "3",
        "type": "t_string_storage"
      },
      {
        "astId": 4757,
        "contract": "contracts/modules/FractionalOwnershipToken.sol:VaulticFractionalOwnershipToken",
        "label": "__gap",
        "offset": 0,
        "slot": "4",
        "type": "t_array(t_uint256)50_storage"
      }
    ],
    "types": {
      "t_address": {
        "encoding": "inplace",
        "label": "address",
        "numberOfBytes": "20"
      },
      "t_array(t_uint256)50_storage": {
        "base": "t_uint256",
        "encoding": "inplace",
        "label": "uint256[50]",
        "numberOfBytes": "1600"
      },
      "t_string_storage": {
        "encoding": "bytes",
        "label": "string",
        "numberOfBytes": "32"
      },
      "t_uint256": {
        "encoding": "inplace",
        "label": "uint256",
        "numberOfBytes": "32"
      }
    }
  }
}