{
  "address": "0xeFeBF5385e7774A9eE144Fe21e3ccd3c06B3C94f",
  "abi": [
    {
      "inputs": [
        {
          "internalType": "address",
          "name": "target",
          "type": "address"
        }
      ],
      "name": "AddressEmptyCode",
      "type": "error"
    },
    {
      "inputs": [
        {
          "internalType": "address",
          "name": "account",
          "type": "address"
        }
      ],
      "name": "AddressInsufficientBalance",
      "type": "error"
    },
    {
      "inputs": [
        {
          "internalType": "uint256",
          "name": "assetId",
          "type": "uint256"
        }
      ],
      "name": "AssetNotClosedForRelisting",
      "type": "error"
    },
    {
      "inputs": [
        {
          "internalType": "uint256",
          "name": "assetId",
          "type": "uint256"
        }
      ],
      "name": "AssetNotEligibleForTokenization",
      "type": "error"
    },
    {
      "inputs": [
        {
          "internalType": "uint256",
          "name": "assetId",
          "type": "uint256"
        }
      ],
      "name": "AssetNotOpenForInvestment",
      "type": "error"
    },
    {
      "inputs": [
        {
          "internalType": "uint256",
          "name": "assetId",
          "type": "uint256"
        },
        {
          "internalType": "address",
          "name": "caller",
          "type": "address"
        },
        {
          "internalType": "uint256",
          "name": "balance",
          "type": "uint256"
        },
        {
          "internalType": "uint256",
          "name": "supply",
          "type": "uint256"
        }
      ],
      "name": "CallerDoesNotHoldFullSupply",
      "type": "error"
    },
    {
      "inputs": [
        {
          "internalType": "address",
          "name": "implementation",
          "type": "address"
        }
      ],
      "name": "ERC1967InvalidImplementation",
      "type": "error"
    },
    {
      "inputs": [],
      "name": "ERC1967NonPayable",
      "type": "error"
    },
    {
      "inputs": [],
      "name": "EnforcedPause",
      "type": "error"
    },
    {
      "inputs": [],
      "name": "ExpectedPause",
      "type": "error"
    },
    {
      "inputs": [],
      "name": "FailedInnerCall",
      "type": "error"
    },
    {
      "inputs": [
        {
          "internalType": "uint256",
          "name": "provided",
          "type": "uint256"
        },
        {
          "internalType": "uint256",
          "name": "maximum",
          "type": "uint256"
        }
      ],
      "name": "FeeBpsExceedsMaximum",
      "type": "error"
    },
    {
      "inputs": [
        {
          "internalType": "uint256",
          "name": "requested",
          "type": "uint256"
        },
        {
          "internalType": "uint256",
          "name": "available",
          "type": "uint256"
        }
      ],
      "name": "InsufficientSharesAvailable",
      "type": "error"
    },
    {
      "inputs": [],
      "name": "InvalidInitialization",
      "type": "error"
    },
    {
      "inputs": [],
      "name": "InvalidPricePerShare",
      "type": "error"
    },
    {
      "inputs": [],
      "name": "InvalidShareSupply",
      "type": "error"
    },
    {
      "inputs": [
        {
          "internalType": "uint256",
          "name": "assetId",
          "type": "uint256"
        },
        {
          "internalType": "address",
          "name": "investor",
          "type": "address"
        },
        {
          "internalType": "uint256",
          "name": "cap",
          "type": "uint256"
        },
        {
          "internalType": "uint256",
          "name": "requested",
          "type": "uint256"
        }
      ],
      "name": "InvestorCapExceeded",
      "type": "error"
    },
    {
      "inputs": [
        {
          "internalType": "uint256",
          "name": "assetId",
          "type": "uint256"
        }
      ],
      "name": "NoProceeds",
      "type": "error"
    },
    {
      "inputs": [
        {
          "internalType": "uint256",
          "name": "assetId",
          "type": "uint256"
        },
        {
          "internalType": "address",
          "name": "caller",
          "type": "address"
        }
      ],
      "name": "NotAssetOwner",
      "type": "error"
    },
    {
      "inputs": [],
      "name": "NotInitializing",
      "type": "error"
    },
    {
      "inputs": [
        {
          "internalType": "address",
          "name": "owner",
          "type": "address"
        }
      ],
      "name": "OwnableInvalidOwner",
      "type": "error"
    },
    {
      "inputs": [
        {
          "internalType": "address",
          "name": "account",
          "type": "address"
        }
      ],
      "name": "OwnableUnauthorizedAccount",
      "type": "error"
    },
    {
      "inputs": [
        {
          "internalType": "uint256",
          "name": "expected",
          "type": "uint256"
        },
        {
          "internalType": "uint256",
          "name": "provided",
          "type": "uint256"
        }
      ],
      "name": "PaymentMismatch",
      "type": "error"
    },
    {
      "inputs": [],
      "name": "ReentrancyGuardReentrantCall",
      "type": "error"
    },
    {
      "inputs": [
        {
          "internalType": "address",
          "name": "token",
          "type": "address"
        }
      ],
      "name": "SafeERC20FailedOperation",
      "type": "error"
    },
    {
      "inputs": [],
      "name": "UUPSUnauthorizedCallContext",
      "type": "error"
    },
    {
      "inputs": [
        {
          "internalType": "bytes32",
          "name": "slot",
          "type": "bytes32"
        }
      ],
      "name": "UUPSUnsupportedProxiableUUID",
      "type": "error"
    },
    {
      "inputs": [
        {
          "internalType": "address",
          "name": "caller",
          "type": "address"
        }
      ],
      "name": "UnauthorizedCaller",
      "type": "error"
    },
    {
      "inputs": [
        {
          "internalType": "string",
          "name": "field",
          "type": "string"
        }
      ],
      "name": "ZeroAddressArgument",
      "type": "error"
    },
    {
      "inputs": [],
      "name": "ZeroPurchaseAmount",
      "type": "error"
    },
    {
      "anonymous": false,
      "inputs": [
        {
          "indexed": true,
          "internalType": "uint256",
          "name": "assetId",
          "type": "uint256"
        },
        {
          "indexed": true,
          "internalType": "address",
          "name": "newOwner",
          "type": "address"
        },
        {
          "indexed": false,
          "internalType": "uint128",
          "name": "newTotalShares",
          "type": "uint128"
        },
        {
          "indexed": false,
          "internalType": "uint128",
          "name": "newPricePerShare",
          "type": "uint128"
        },
        {
          "indexed": false,
          "internalType": "uint32",
          "name": "relistCount",
          "type": "uint32"
        }
      ],
      "name": "AssetRelisted",
      "type": "event"
    },
    {
      "anonymous": false,
      "inputs": [
        {
          "indexed": true,
          "internalType": "uint256",
          "name": "assetId",
          "type": "uint256"
        },
        {
          "indexed": true,
          "internalType": "address",
          "name": "tokenContract",
          "type": "address"
        },
        {
          "indexed": false,
          "internalType": "uint128",
          "name": "totalShares",
          "type": "uint128"
        },
        {
          "indexed": false,
          "internalType": "uint128",
          "name": "pricePerShare",
          "type": "uint128"
        }
      ],
      "name": "AssetTokenized",
      "type": "event"
    },
    {
      "anonymous": false,
      "inputs": [
        {
          "indexed": true,
          "internalType": "address",
          "name": "treasury",
          "type": "address"
        },
        {
          "indexed": false,
          "internalType": "uint256",
          "name": "amount",
          "type": "uint256"
        }
      ],
      "name": "FeesSweptToTreasury",
      "type": "event"
    },
    {
      "anonymous": false,
      "inputs": [
        {
          "indexed": true,
          "internalType": "uint256",
          "name": "assetId",
          "type": "uint256"
        },
        {
          "indexed": true,
          "internalType": "address",
          "name": "investor",
          "type": "address"
        },
        {
          "indexed": false,
          "internalType": "uint256",
          "name": "shareAmount",
          "type": "uint256"
        },
        {
          "indexed": false,
          "internalType": "uint256",
          "name": "paymentAmount",
          "type": "uint256"
        },
        {
          "indexed": false,
          "internalType": "uint256",
          "name": "feeTaken",
          "type": "uint256"
        }
      ],
      "name": "FractionPurchased",
      "type": "event"
    },
    {
      "anonymous": false,
      "inputs": [
        {
          "indexed": false,
          "internalType": "uint64",
          "name": "version",
          "type": "uint64"
        }
      ],
      "name": "Initialized",
      "type": "event"
    },
    {
      "anonymous": false,
      "inputs": [
        {
          "indexed": true,
          "internalType": "uint256",
          "name": "assetId",
          "type": "uint256"
        },
        {
          "indexed": false,
          "internalType": "uint256",
          "name": "totalProceeds",
          "type": "uint256"
        }
      ],
      "name": "OfferingFullySubscribed",
      "type": "event"
    },
    {
      "anonymous": false,
      "inputs": [
        {
          "indexed": true,
          "internalType": "address",
          "name": "previousOwner",
          "type": "address"
        },
        {
          "indexed": true,
          "internalType": "address",
          "name": "newOwner",
          "type": "address"
        }
      ],
      "name": "OwnershipTransferred",
      "type": "event"
    },
    {
      "anonymous": false,
      "inputs": [
        {
          "indexed": false,
          "internalType": "address",
          "name": "account",
          "type": "address"
        }
      ],
      "name": "Paused",
      "type": "event"
    },
    {
      "anonymous": false,
      "inputs": [
        {
          "indexed": true,
          "internalType": "uint256",
          "name": "assetId",
          "type": "uint256"
        },
        {
          "indexed": true,
          "internalType": "address",
          "name": "recipient",
          "type": "address"
        },
        {
          "indexed": false,
          "internalType": "uint256",
          "name": "amount",
          "type": "uint256"
        }
      ],
      "name": "ProceedsWithdrawn",
      "type": "event"
    },
    {
      "anonymous": false,
      "inputs": [
        {
          "indexed": false,
          "internalType": "uint256",
          "name": "previousBps",
          "type": "uint256"
        },
        {
          "indexed": false,
          "internalType": "uint256",
          "name": "newBps",
          "type": "uint256"
        }
      ],
      "name": "ProtocolFeeUpdated",
      "type": "event"
    },
    {
      "anonymous": false,
      "inputs": [
        {
          "indexed": true,
          "internalType": "address",
          "name": "previous",
          "type": "address"
        },
        {
          "indexed": true,
          "internalType": "address",
          "name": "updated",
          "type": "address"
        }
      ],
      "name": "TokenImplementationUpdated",
      "type": "event"
    },
    {
      "anonymous": false,
      "inputs": [
        {
          "indexed": false,
          "internalType": "address",
          "name": "account",
          "type": "address"
        }
      ],
      "name": "Unpaused",
      "type": "event"
    },
    {
      "anonymous": false,
      "inputs": [
        {
          "indexed": true,
          "internalType": "address",
          "name": "implementation",
          "type": "address"
        }
      ],
      "name": "Upgraded",
      "type": "event"
    },
    {
      "inputs": [],
      "name": "UPGRADE_INTERFACE_VERSION",
      "outputs": [
        {
          "internalType": "string",
          "name": "",
          "type": "string"
        }
      ],
      "stateMutability": "view",
      "type": "function"
    },
    {
      "inputs": [],
      "name": "accumulatedFees",
      "outputs": [
        {
          "internalType": "uint256",
          "name": "",
          "type": "uint256"
        }
      ],
      "stateMutability": "view",
      "type": "function"
    },
    {
      "inputs": [
        {
          "internalType": "uint256",
          "name": "assetId",
          "type": "uint256"
        }
      ],
      "name": "availableShares",
      "outputs": [
        {
          "internalType": "uint256",
          "name": "available",
          "type": "uint256"
        }
      ],
      "stateMutability": "view",
      "type": "function"
    },
    {
      "inputs": [],
      "name": "feeTreasury",
      "outputs": [
        {
          "internalType": "address",
          "name": "",
          "type": "address"
        }
      ],
      "stateMutability": "view",
      "type": "function"
    },
    {
      "inputs": [
        {
          "internalType": "uint256",
          "name": "assetId",
          "type": "uint256"
        }
      ],
      "name": "getInvestmentPool",
      "outputs": [
        {
          "components": [
            {
              "internalType": "uint128",
              "name": "totalShares",
              "type": "uint128"
            },
            {
              "internalType": "uint128",
              "name": "soldShares",
              "type": "uint128"
            },
            {
              "internalType": "uint128",
              "name": "pricePerShare",
              "type": "uint128"
            },
            {
              "internalType": "uint128",
              "name": "investorCap",
              "type": "uint128"
            },
            {
              "internalType": "address",
              "name": "tokenContract",
              "type": "address"
            },
            {
              "internalType": "bool",
              "name": "isFullySubscribed",
              "type": "bool"
            },
            {
              "internalType": "uint256",
              "name": "proceedsCollected",
              "type": "uint256"
            },
            {
              "internalType": "uint256",
              "name": "proceedsWithdrawn",
              "type": "uint256"
            }
          ],
          "internalType": "struct VaulticInvestmentManager.AssetInvestmentPool",
          "name": "pool",
          "type": "tuple"
        }
      ],
      "stateMutability": "view",
      "type": "function"
    },
    {
      "inputs": [
        {
          "internalType": "uint256",
          "name": "assetId",
          "type": "uint256"
        },
        {
          "internalType": "address",
          "name": "investor",
          "type": "address"
        }
      ],
      "name": "getInvestorHoldings",
      "outputs": [
        {
          "internalType": "uint256",
          "name": "shares",
          "type": "uint256"
        }
      ],
      "stateMutability": "view",
      "type": "function"
    },
    {
      "inputs": [
        {
          "internalType": "uint256",
          "name": "assetId",
          "type": "uint256"
        }
      ],
      "name": "getInvestorList",
      "outputs": [
        {
          "internalType": "address[]",
          "name": "list",
          "type": "address[]"
        }
      ],
      "stateMutability": "view",
      "type": "function"
    },
    {
      "inputs": [
        {
          "internalType": "address",
          "name": "_registry",
          "type": "address"
        },
        {
          "internalType": "address",
          "name": "_paymentToken",
          "type": "address"
        },
        {
          "internalType": "address",
          "name": "_tokenImplementation",
          "type": "address"
        },
        {
          "internalType": "address",
          "name": "_feeTreasury",
          "type": "address"
        },
        {
          "internalType": "uint256",
          "name": "_protocolFeeBps",
          "type": "uint256"
        },
        {
          "internalType": "address",
          "name": "_owner",
          "type": "address"
        }
      ],
      "name": "initialize",
      "outputs": [],
      "stateMutability": "nonpayable",
      "type": "function"
    },
    {
      "inputs": [
        {
          "internalType": "uint256",
          "name": "",
          "type": "uint256"
        },
        {
          "internalType": "address",
          "name": "",
          "type": "address"
        }
      ],
      "name": "investorHoldings",
      "outputs": [
        {
          "internalType": "uint256",
          "name": "",
          "type": "uint256"
        }
      ],
      "stateMutability": "view",
      "type": "function"
    },
    {
      "inputs": [],
      "name": "owner",
      "outputs": [
        {
          "internalType": "address",
          "name": "",
          "type": "address"
        }
      ],
      "stateMutability": "view",
      "type": "function"
    },
    {
      "inputs": [],
      "name": "pause",
      "outputs": [],
      "stateMutability": "nonpayable",
      "type": "function"
    },
    {
      "inputs": [],
      "name": "paused",
      "outputs": [
        {
          "internalType": "bool",
          "name": "",
          "type": "bool"
        }
      ],
      "stateMutability": "view",
      "type": "function"
    },
    {
      "inputs": [],
      "name": "paymentToken",
      "outputs": [
        {
          "internalType": "contract IERC20",
          "name": "",
          "type": "address"
        }
      ],
      "stateMutability": "view",
      "type": "function"
    },
    {
      "inputs": [],
      "name": "protocolFeeBps",
      "outputs": [
        {
          "internalType": "uint256",
          "name": "",
          "type": "uint256"
        }
      ],
      "stateMutability": "view",
      "type": "function"
    },
    {
      "inputs": [],
      "name": "proxiableUUID",
      "outputs": [
        {
          "internalType": "bytes32",
          "name": "",
          "type": "bytes32"
        }
      ],
      "stateMutability": "view",
      "type": "function"
    },
    {
      "inputs": [
        {
          "internalType": "uint256",
          "name": "assetId",
          "type": "uint256"
        },
        {
          "internalType": "uint256",
          "name": "shareAmount",
          "type": "uint256"
        },
        {
          "internalType": "uint256",
          "name": "paymentAmount",
          "type": "uint256"
        }
      ],
      "name": "purchaseShares",
      "outputs": [],
      "stateMutability": "nonpayable",
      "type": "function"
    },
    {
      "inputs": [
        {
          "internalType": "uint256",
          "name": "assetId",
          "type": "uint256"
        },
        {
          "internalType": "uint256",
          "name": "shareAmount",
          "type": "uint256"
        }
      ],
      "name": "quotePurchase",
      "outputs": [
        {
          "internalType": "uint256",
          "name": "grossCost",
          "type": "uint256"
        },
        {
          "internalType": "uint256",
          "name": "fee",
          "type": "uint256"
        },
        {
          "internalType": "uint256",
          "name": "netCost",
          "type": "uint256"
        }
      ],
      "stateMutability": "view",
      "type": "function"
    },
    {
      "inputs": [],
      "name": "registry",
      "outputs": [
        {
          "internalType": "contract VaulticAssetRegistry",
          "name": "",
          "type": "address"
        }
      ],
      "stateMutability": "view",
      "type": "function"
    },
    {
      "inputs": [
        {
          "internalType": "uint256",
          "name": "assetId",
          "type": "uint256"
        },
        {
          "internalType": "uint128",
          "name": "newTotalShares",
          "type": "uint128"
        },
        {
          "internalType": "uint128",
          "name": "newPricePerShare",
          "type": "uint128"
        },
        {
          "internalType": "uint128",
          "name": "newValuation",
          "type": "uint128"
        },
        {
          "internalType": "string",
          "name": "newMetadataURI",
          "type": "string"
        },
        {
          "internalType": "uint128",
          "name": "newInvestorCap",
          "type": "uint128"
        }
      ],
      "name": "relistAsset",
      "outputs": [],
      "stateMutability": "nonpayable",
      "type": "function"
    },
    {
      "inputs": [],
      "name": "renounceOwnership",
      "outputs": [],
      "stateMutability": "nonpayable",
      "type": "function"
    },
    {
      "inputs": [
        {
          "internalType": "address",
          "name": "newTreasury",
          "type": "address"
        }
      ],
      "name": "setFeeTreasury",
      "outputs": [],
      "stateMutability": "nonpayable",
      "type": "function"
    },
    {
      "inputs": [
        {
          "internalType": "uint256",
          "name": "newFeeBps",
          "type": "uint256"
        }
      ],
      "name": "setProtocolFee",
      "outputs": [],
      "stateMutability": "nonpayable",
      "type": "function"
    },
    {
      "inputs": [
        {
          "internalType": "address",
          "name": "newImplementation",
          "type": "address"
        }
      ],
      "name": "setTokenImplementation",
      "outputs": [],
      "stateMutability": "nonpayable",
      "type": "function"
    },
    {
      "inputs": [],
      "name": "sweepProtocolFees",
      "outputs": [],
      "stateMutability": "nonpayable",
      "type": "function"
    },
    {
      "inputs": [],
      "name": "tokenImplementation",
      "outputs": [
        {
          "internalType": "address",
          "name": "",
          "type": "address"
        }
      ],
      "stateMutability": "view",
      "type": "function"
    },
    {
      "inputs": [
        {
          "internalType": "uint256",
          "name": "assetId",
          "type": "uint256"
        },
        {
          "internalType": "uint128",
          "name": "totalShares",
          "type": "uint128"
        },
        {
          "internalType": "uint128",
          "name": "pricePerShare",
          "type": "uint128"
        },
        {
          "internalType": "uint128",
          "name": "investorCap",
          "type": "uint128"
        }
      ],
      "name": "tokenizeAsset",
      "outputs": [
        {
          "internalType": "address",
          "name": "tokenProxy",
          "type": "address"
        }
      ],
      "stateMutability": "nonpayable",
      "type": "function"
    },
    {
      "inputs": [
        {
          "internalType": "address",
          "name": "newOwner",
          "type": "address"
        }
      ],
      "name": "transferOwnership",
      "outputs": [],
      "stateMutability": "nonpayable",
      "type": "function"
    },
    {
      "inputs": [],
      "name": "unpause",
      "outputs": [],
      "stateMutability": "nonpayable",
      "type": "function"
    },
    {
      "inputs": [
        {
          "internalType": "address",
          "name": "newImplementation",
          "type": "address"
        },
        {
          "internalType": "bytes",
          "name": "data",
          "type": "bytes"
        }
      ],
      "name": "upgradeToAndCall",
      "outputs": [],
      "stateMutability": "payable",
      "type": "function"
    },
    {
      "inputs": [
        {
          "internalType": "uint256",
          "name": "assetId",
          "type": "uint256"
        }
      ],
      "name": "withdrawProceeds",
      "outputs": [],
      "stateMutability": "nonpayable",
      "type": "function"
    },
    {
      "inputs": [
        {
          "internalType": "uint256",
          "name": "assetId",
          "type": "uint256"
        }
      ],
      "name": "withdrawableProceeds",
      "outputs": [
        {
          "internalType": "uint256",
          "name": "amount",
          "type": "uint256"
        }
      ],
      "stateMutability": "view",
      "type": "function"
    }
  ],
  "transactionHash": "0x5f013ac97c82f25a64e13a3bb57716b17499f4296a63c052cc3d96bfd36b4fe8",
  "args": [],
  "numDeployments": 1,
  "solcInputHash": "5c9862b0d4d8590c3319f896f2f53ff3",
  "bytecode": "0x60a08060405234602e57600160005530608052612c3d908161003482396080518181816104810152611a210152f35b600080fdfe6080604052600436101561001257600080fd5b60003560e01c8063253e054a146101c65780632f3a3d5d146102025780633013ce29146101fd57806335659fb8146101f85780633f4ba83a146101f35780634f1ef286146101ee57806352d1902d146101e957806353c425c1146101e4578063587f5ed7146101df57806359f54b18146101da5780635c975abb146101d557806360dc2340146101d05780636ed43eb0146101cb5780637111e79d146101c6578063715018a6146101c1578063787dce3d146101bc5780637b103999146101b75780637b93389e146101b25780638456cb59146101ad57806388282e2a146101a85780638ae3b08a146101a35780638da5cb5b1461019e5780638fd0df841461019957806399bc4d9614610194578063ad3cb1cc1461018f578063bfa37e371461018a578063c6c2aed214610185578063d9f1aed914610180578063f2fde38b1461017b578063fa39a5ea146101765763fc7b4c971461017157600080fd5b611989565b611837565b611781565b611603565b611558565b6114d8565b611491565b610f3e565b610bd2565b610b7e565b610b11565b610a5d565b6109e9565b610946565b61091d565b6108a1565b610837565b61021d565b6107b9565b61074d565b61071d565b6106a0565b610682565b6104d8565b61046e565b6103f1565b6102e9565b6102cb565b6102a2565b610279565b6001600160a01b0381160361021857565b600080fd5b3461021857604036600319011261021857602061026560243560043561024282610207565b6000526008835260406000209060018060a01b0316600052602052604060002090565b54604051908152f35b600091031261021857565b34610218576000366003190112610218576003546040516001600160a01b039091168152602090f35b34610218576000366003190112610218576002546040516001600160a01b039091168152602090f35b34610218576000366003190112610218576020600454604051908152f35b34610218576000366003190112610218576103026127c6565b600080516020612bc88339815191525460ff81161561035b5760ff1916600080516020612bc8833981519152557f5db9ee0a495bf2e6ff9c91a7834c1ba4fdd244a5e8aa4e537bd38aeae4b073aa6020604051338152a1005b638dfc202b60e01b60005260046000fd5b634e487b7160e01b600052604160045260246000fd5b61010081019081106001600160401b0382111761039e57604052565b61036c565b90601f801991011681019081106001600160401b0382111761039e57604052565b604051906103d4610200836103a3565b565b6001600160401b03811161039e57601f01601f191660200190565b60403660031901126102185760043561040981610207565b602435906001600160401b038211610218573660238301121561021857816004013590610435826103d6565b9161044360405193846103a3565b808352366024828601011161021857602081600092602461046c97018387013784010152611a15565b005b34610218576000366003190112610218577f00000000000000000000000000000000000000000000000000000000000000006001600160a01b031630036104c7576020604051600080516020612ba88339815191528152f35b63703e46dd60e11b60005260046000fd5b346102185760c0366003190112610218576004356104f581610207565b6024359061050282610207565b60443561050e81610207565b60643561051a81610207565b6084359060a4359261052b84610207565b600080516020612be883398151915254956001600160401b0361055d60ff60408a901c1615986001600160401b031690565b168015908161067a575b6001149081610670575b159081610667575b50610656576105be95876105b560016001600160401b0319600080516020612be8833981519152541617600080516020612be883398151915255565b61061f57611b31565b6105c457005b6105f060ff60401b19600080516020612be88339815191525416600080516020612be883398151915255565b604051600181527fc7f505b2f371ae2175ee4913f4499e1f2633a7b5936321eed1cdaeb6115181d290602090a1005b610651600160401b60ff60401b19600080516020612be8833981519152541617600080516020612be883398151915255565b611b31565b63f92ee8a960e01b60005260046000fd5b90501538610579565b303b159150610571565b889150610567565b34610218576000366003190112610218576020600654604051908152f35b34610218576020366003190112610218576004356000818152600760205260409020600201546001600160a01b03161561070957600052600760205260406000206004600382015491015481039081116107045760405190815280602081015b0390f35b611c9f565b6395e55a2f60e01b60005260045260246000fd5b3461021857600036600319011261021857602060ff600080516020612bc883398151915254166040519015158152f35b34610218576000366003190112610218576005546040516001600160a01b039091168152602090f35b602060408183019282815284518094520192019060005b81811061079a5750505090565b82516001600160a01b031684526020938401939092019160010161078d565b34610218576020366003190112610218576004356000526009602052604060002060405190816020825491828152019160005260206000209060005b818110610818576107008561080c818703826103a3565b60405191829182610776565b82546001600160a01b03168452602090930192600192830192016107f5565b34610218576000366003190112610218576108506127c6565b600080516020612b8883398151915280546001600160a01b031981169091556000906001600160a01b03167f8be0079c531659141344cd1fd0a4f28419497f9722a3daafe3b4186f6b6457e08280a3005b34610218576020366003190112610218576004356108bd6127c6565b6103e881116109035760048054908290556040805191825260208201929092527fb404cac19fb1cbeff98d325795b08886e3cd8fe8cb1a2f193aac66f13fb239c39190a1005b635da98b2b60e11b6000526004526103e860245260446000fd5b34610218576000366003190112610218576001546040516001600160a01b039091168152602090f35b346102185760003660031901126102185761095f6127c6565b610967612810565b60065480156109d35760006006556002546005546109939183916001600160a01b039081169116612832565b6005546040519182526001600160a01b0316907f850dcc4ccf3c6de869869ed32aabbd6a67ecdb66099f61906a447f0d86c7a4bf90602090a26001600055005b6301c3415360e31b600052600060045260246000fd5b3461021857600036600319011261021857610a026127c6565b610a0a612873565b600160ff19600080516020612bc8833981519152541617600080516020612bc8833981519152557f62e78cea01bee320cd4e420270b5ea74000d11b0c9f74754ebdbfc544b05a2586020604051338152a1005b3461021857602036600319011261021857600435610a7a81610207565b610a826127c6565b6001600160a01b03168015610ad557600380546001600160a01b0319811683179091556001600160a01b03167ffb2f3e5bead71d41a1428322b2661b40ad091d05d82e3e7d6b1e9d1701bef5ce600080a3005b60405163b56059b360e01b81526020600482015260136024820152723a37b5b2b724b6b83632b6b2b73a30ba34b7b760691b6044820152606490fd5b34610218576020366003190112610218576004356000818152600760205260409020600201546001600160a01b0316156107095760005260076020526107006001600160801b03610b6d604060002054828160801c9116611cc2565b604051911681529081906020820190565b3461021857600036600319011261021857600080516020612b88833981519152546040516001600160a01b039091168152602090f35b6001600160801b0381160361021857565b60a435906103d482610bb4565b3461021857608036600319011261021857602435600435610bf282610bb4565b60443591610bff83610bb4565b60643591610c0c83610bb4565b610c146127c6565b610c1c612873565b610c24612810565b6001600160801b03821615610f2d576001600160801b03841615610f1c57600154610c5f906001600160a01b03165b6001600160a01b031690565b604051631d591eb760e31b8152600481018390529290600090849060249082905afa928315610ec757600093610ef7575b5060016040840151610ca181611f1a565b610caa81611f1a565b03610ee15760016060840151610cbf81611f29565b610cc881611f29565b03610ee157610cd561289d565b6101a09390930151600080516020612b888339815191525493946001600160a01b03808716959192911690853b1561021857610d2f91600091604051938492839263d3e4c45d60e01b845230908930918c60048801611f33565b038183895af18015610ec757610dd3928792600292610ecc575b50610db3610d61876000526007602052604060002090565b80546001600160801b0319166001600160801b038816178155916001830180546001600160801b0319166001600160801b038d161781555b906001600160801b0382549181199060801b169116179055565b0180546001600160a01b0319166001600160a01b03909216919091179055565b600154610de8906001600160a01b0316610c53565b94853b1561021857604051635930a47760e01b8152600481018490526001600160a01b03861660248201526001600160801b03838116604483015282166064820152956000908790608490829084905af1918215610ec757610700967f9cfcc8cd687e61a5cc14c8353d03252ba22cce4cab8fc8e8c829bad70a4bef8793610eac575b50604080516001600160801b03928316815292909116602083015290a3610e926001600055565b6040516001600160a01b0390911681529081906020820190565b80610ebb6000610ec1936103a3565b8061026e565b38610e6b565b611ef8565b80610ebb6000610edb936103a3565b38610d49565b63748a002760e01b600052600482905260246000fd5b610f159193503d806000833e610f0d81836103a3565b810190611d7b565b9138610c90565b636f06ff9560e01b60005260046000fd5b630817ad9d60e11b60005260046000fd5b3461021857606036600319011261021857600435602435604435610f60612873565b610f68612810565b6000838152600760205260409020600201546001600160a01b03161561143457811561142357610fa2836000526007602052604060002090565b916002830191610fb7835460ff9060a01c1690565b61140d57835490610feb610fdf610fd86001600160801b0385169460801c90565b8094611cc2565b6001600160801b031690565b8084116113f457506001850154836110038260801c90565b6001600160801b038116611385575b50611029610fdf61102e936001600160801b031690565b611f9c565b9081810361136b575061104e61104660045483611f9c565b612710900490565b611183610c53610c536110618486611cb5565b986110996110796001600160801b038a168099611faf565b82546001600160801b031660809190911b6001600160801b031916178255565b6110a8600382019a8b54611f8f565b8a556110be6110b986600654611f8f565b600655565b6110e86110d58c6000526008602052604060002090565b3360009081526020919091526040902090565b5415611349575b61111e336111078d6000526008602052604060002090565b9060018060a01b0316600052602052604060002090565b611129898254611f8f565b9055546001600160801b03611151610fdf6111448460801c90565b936001600160801b031690565b9116149788611333575b6002546111769087906001600160a01b03163090339061293a565b546001600160a01b031690565b803b1561021857604051630e27649960e41b815233600482015260248101869052906000908290604490829084905af18015610ec75761131e575b506001546111d4906001600160a01b0316610c53565b803b156102185760405163c3abdb1d60e01b8152600481018990526001600160801b039490941660248501526000908490604490829084905af1918215610ec75787937f4901d3a11fb0600659fcc615810736f093cef40dc5be8dfc37b19e1d0e47d17c93611309575b506040805195865260208601919091528401523392606090a3611266575b61046c6001600055565b60015461127b906001600160a01b0316610c53565b90813b156102185760405163b9d0f5e560e01b815260048101849052916000908390602490829084905af1908115610ec7577fd5679311be50beb825792dd14513e4f95d766a82894389a8d643b01c2165b210926112ea926112f4575b50546040519081529081906020820190565b0390a2388061125c565b80610ebb6000611303936103a3565b386112d8565b80610ebb6000611318936103a3565b3861123e565b80610ebb600061132d936103a3565b386111be565b805460ff60a01b1916600160a01b17815561115b565b611366336113618d6000526009602052604060002090565b612002565b6110ef565b6317279d1160e31b60005260049190915260245260446000fd5b906113a7906113a16110d58b6000526008602052604060002090565b54611f8f565b6001600160801b038216106113bd578490611012565b604051633369994560e21b8152600481018990523360248201526001600160801b0391909116604482015260648101859052608490fd5b63234c74df60e11b600052600484905260245260446000fd5b6395e55a2f60e01b600052600485905260246000fd5b6331e5050760e01b60005260046000fd5b826395e55a2f60e01b60005260045260246000fd5b60005b83811061145c5750506000910152565b818101518382015260200161144c565b9060209161148581518092818552858086019101611449565b601f01601f1916010190565b346102185760003660031901126102185761070060408051906114b481836103a3565b60058252640352e302e360dc1b60208301525191829160208352602083019061146c565b34610218576020366003190112610218576004356114f581610207565b6114fd6127c6565b6001600160a01b03168015611524576001600160601b0360a01b6005541617600555600080f35b60405163b56059b360e01b815260206004820152600b60248201526a666565547265617375727960a81b6044820152606490fd5b34610218576040366003190112610218576004356024356000828152600760205260409020600201546001600160a01b0316156115ee576115b29160005260076020526001600160801b0360016040600020015416611f9c565b6127106115c160045483611f9c565b04908181038181116107045761070090604051938493846040919493926060820195825260208201520152565b506395e55a2f60e01b60005260045260246000fd5b346102185760203660031901126102185760043561161f612873565b611627612810565b6000818152600760205260409020600201546001600160a01b0316156107095760015461165c906001600160a01b0316610c53565b604051631d591eb760e31b81526004810183905290600090829060249082905afa8015610ec7576020610c53916116a493600091611766575b5001516001600160a01b031690565b330361174e576116be816000526007602052604060002090565b906004600383015492016116d481548094611cb5565b92831561173857836116e591611f8f565b905560025461170090839033906001600160a01b0316612832565b60405191825233917f579e0e2d0cfdb23711bb6034ac9f2ba41e8965a8e24589d1c3cf5604868661fc90602090a361046c6001600055565b6301c3415360e31b600052600483905260246000fd5b632f5d3abb60e11b6000526004523360245260446000fd5b61177b91503d806000833e610f0d81836103a3565b38611695565b346102185760203660031901126102185761046c6004356117a181610207565b6117a96127c6565b612043565b91909160e0806101008301946001600160801b0381511684526001600160801b0360208201511660208501526001600160801b036040820151166040850152611807606082015160608601906001600160801b03169052565b6080818101516001600160a01b03169085015260a08181015115159085015260c081015160c08501520151910152565b3461021857602036600319011261021857600435600060e060405161185b81610382565b8281528260208201528260408201528260608201528260808201528260a08201528260c0820152015280600052600760205260018060a01b03600260406000200154161561070957600052600760205261070060406000206004604051916118c283610382565b6119006118f082546118ea6118dd826001600160801b031690565b6001600160801b03168752565b60801c90565b6001600160801b03166020850152565b61193e61192e60018301546118ea61191e826001600160801b031690565b6001600160801b03166040880152565b6001600160801b03166060850152565b60028101546001600160a01b038116608085015261196c906119639060a01c60ff1690565b151560a0850152565b600381015460c0840152015460e0820152604051918291826117ae565b346102185760c0366003190112610218576024356004356119a982610bb4565b6044356119b581610bb4565b606435916119c283610bb4565b608435926001600160401b0384116102185736602385011215610218578360040135926001600160401b0384116102185736602485870101116102185761046c956024611a0d610bc5565b9601936120b9565b90916001600160a01b037f000000000000000000000000000000000000000000000000000000000000000016308114908115611b0e575b506104c757611a596127c6565b6040516352d1902d60e01b8152926020846004816001600160a01b0387165afa60009481611add575b50611aa557634c9c8ce360e01b6000526001600160a01b03831660045260246000fd5b9091600080516020612ba88339815191528403611ac7576103d492935061297e565b632a87526960e21b600052600484905260246000fd5b611b0091955060203d602011611b07575b611af881836103a3565b8101906126a7565b9338611a82565b503d611aee565b600080516020612ba8833981519152546001600160a01b03161415905038611a4c565b939492939192916001600160a01b0316908115611c6e576001600160a01b0316918215611c39576001600160a01b03841615610ad5576001600160a01b03851615611524576103e88611611c1d5792611bde6103d4969593611bc1611bfb94611b9c611c18986127fc565b611ba4612a25565b60018060a01b03166001600160601b0360a01b6001541617600155565b60018060a01b03166001600160601b0360a01b6002541617600255565b60018060a01b03166001600160601b0360a01b6003541617600355565b60018060a01b03166001600160601b0360a01b6005541617600555565b600455565b635da98b2b60e11b60005260048690526103e860245260446000fd5b60405163b56059b360e01b815260206004820152600c60248201526b3830bcb6b2b73a2a37b5b2b760a11b6044820152606490fd5b60405163b56059b360e01b8152602060048201526008602482015267726567697374727960c01b6044820152606490fd5b634e487b7160e01b600052601160045260246000fd5b9190820391821161070457565b906001600160801b03809116911603906001600160801b03821161070457565b51906103d482610207565b5190600582101561021857565b5190600282101561021857565b519065ffffffffffff8216820361021857565b51906103d482610bb4565b519063ffffffff8216820361021857565b81601f82011215610218578051611d4c816103d6565b92611d5a60405194856103a3565b8184526020828401011161021857611d789160208085019101611449565b90565b602081830312610218578051906001600160401b03821161021857016102008183031261021857611daa6103c4565b9181518352611dbb60208301611ce2565b6020840152611dcc60408301611ced565b6040840152611ddd60608301611cfa565b6060840152611dee60808301611d07565b6080840152611dff60a08301611d1a565b60a0840152611e1060c08301611d1a565b60c0840152611e2160e08301611d1a565b60e0840152611e336101008301611d1a565b610100840152611e466101208301611ce2565b610120840152611e596101408301611d07565b610140840152611e6c6101608301611d25565b610160840152611e7f6101808301611d07565b6101808401526101a08201516001600160401b0381116102185781611ea5918401611d36565b6101a08401526101c08201516001600160401b0381116102185781611ecb918401611d36565b6101c08401526101e08201516001600160401b03811161021857611eef9201611d36565b6101e082015290565b6040513d6000823e3d90fd5b634e487b7160e01b600052602160045260246000fd5b60051115611f2457565b611f04565b60021115611f2457565b9491611f5c6001600160801b039160a0969399989599885260c0602089015260c088019061146c565b971660408601526000196001851b019081166060860152908116608085015216910152565b906001820180921161070457565b9190820180921161070457565b8181029291811591840414171561070457565b906001600160801b03809116911601906001600160801b03821161070457565b634e487b7160e01b600052603260045260246000fd5b8054821015611ffd5760005260206000200190600090565b611fcf565b8054600160401b81101561039e5761201f91600182018155611fe5565b81546001600160a01b0393841660039290921b91821b9390911b1916919091179055565b6001600160a01b031680156120a357600080516020612b8883398151915280546001600160a01b0319811683179091556001600160a01b03167f8be0079c531659141344cd1fd0a4f28419497f9722a3daafe3b4186f6b6457e0600080a3565b631e4fbdf760e01b600052600060045260246000fd5b94959290959391936120c9612873565b6120d1612810565b6000868152600760205260409020600201546001600160a01b031615612692576001600160801b03871615610f2d576001600160801b03851615610f1c57600154612124906001600160a01b0316610c53565b604051631d591eb760e31b81526004810188905290600090829060249082905afa908115610ec757600391604091600091612677575b50015161216681611f1a565b61216f81611f1a565b03612661576121a1610c53610c5360026121938a6000526007602052604060002090565b01546001600160a01b031690565b936040516318160ddd60e01b8152602081600481895afa908115610ec757600091612642575b506040516370a0823160e01b8152336004820152906020826024818a5afa918215610ec757600092612621575b508082036125f5575050600460009161224861221a8a6000526007602052604060002090565b6001600160801b038c811682556001820180546001600160801b031916918c16919091178155909290610d99565b60028101805460ff60a01b191690558260038201550155612273866000526009602052604060002090565b805460005b8181106125af575061229c612297896000526009602052604060002090565b6126b6565b801561258e576122b36122ae82611f81565b612723565b9160005b8281106125565750506122fe916122e46020926122d5339184612762565b6001600160a01b039091169052565b604051809381926321519ba360e21b835260048301610776565b03816000895af18015610ec757612539575b50600154612326906001600160a01b0316610c53565b803b1561021857604051632dcf36a360e01b815260048101889052336024820152906000908290604490829084905af18015610ec757612524575b50600154612377906001600160a01b0316610c53565b803b15610218576123a493600080946040519687958694859363476dfde360e01b85528d60048601612776565b03925af18015610ec75761250f575b506001546123c9906001600160a01b0316610c53565b803b1561021857604051635930a47760e01b8152600481018590526001600160a01b039290921660248301526001600160801b038581166044840152831660648301526000908290608490829084905af18015610ec7576124fa575b5060015461243b906001600160a01b0316610c53565b604051637c8c7b9b60e11b8152600481018490529190602090839060249082905afa908115610ec7577f9e11ca718eacf332656fa75214256147c351b67567f2376d0c01eaeec0a01125926000926124c9575b50604080516001600160801b03968716815295909116602086015263ffffffff90911690840152339280606081010390a36103d46001600055565b6124ec91925060203d6020116124f3575b6124e481836103a3565b8101906127b2565b903861248e565b503d6124da565b80610ebb6000612509936103a3565b38612425565b80610ebb600061251e936103a3565b386123b3565b80610ebb6000612533936103a3565b38612361565b6125519060203d602011611b0757611af881836103a3565b612310565b8061258861257e61256960019486611fe5565b905460039190911b1c6001600160a01b031690565b6122d58388612762565b016122b7565b50506122fe602061259d612701565b6125aa336122d583612755565b6122e4565b60019060006125ee6125cb8c6000526008602052604060002090565b6125d86125698589611fe5565b60018060a01b0316600052602052604060002090565b5501612278565b604051634fa36e4760e11b8152600481018a905233602482015260448101929092526064820152608490fd5b61263b91925060203d602011611b0757611af881836103a3565b90386121f4565b61265b915060203d602011611b0757611af881836103a3565b386121c7565b6376da3e5960e01b600052600486905260246000fd5b61268c91503d806000833e610f0d81836103a3565b3861215a565b856395e55a2f60e01b60005260045260246000fd5b90816020910312610218575190565b80549060008155816126c6575050565b6000526020600020908101905b8181106126de575050565b600081556001016126d3565b6001600160401b03811161039e5760051b60200190565b6040805190919061271283826103a3565b6001815291601f1901366020840137565b9061272d826126ea565b61273a60405191826103a3565b828152809261274b601f19916126ea565b0190602036910137565b805115611ffd5760200190565b8051821015611ffd5760209160051b010190565b926001600160801b03859360809693865216602085015260606040850152816060850152848401376000828201840152601f01601f1916010190565b9081602091031261021857611d7890611d25565b600080516020612b88833981519152546001600160a01b031633036127e757565b63118cdaa760e01b6000523360045260246000fd5b6103d490612808612a25565b6117a9612a25565b600260005414612821576002600055565b633ee5aeb560e01b60005260046000fd5b60405163a9059cbb60e01b60208201526001600160a01b039290921660248301526044808301939093529181526103d49161286e6064836103a3565b612a53565b60ff600080516020612bc8833981519152541661288c57565b63d93c066560e01b60005260046000fd5b600354604051733d602d80600a3d3981f3363d3d373d3d3d363d7360601b815260609190911b6bffffffffffffffffffffffff191660148201526e5af43d82803e903d91602b57fd5bf360881b60288201526037906000f0906001600160a01b0382161561290757565b60405163b56059b360e01b815260206004820152600a602482015269746f6b656e50726f787960b01b6044820152606490fd5b6040516323b872dd60e01b60208201526001600160a01b0392831660248201529290911660448301526064808301939093529181526103d49161286e6084836103a3565b90813b15612a0357600080516020612ba883398151915280546001600160a01b0319166001600160a01b0384169081179091557fbc7cd75a20ee27fd9adebab32041f755214dbc6bffa90cc0225b39da2e5c2d3b600080a28051156129e9576129e691612b0c565b50565b5050346129f257565b63b398979f60e01b60005260046000fd5b50634c9c8ce360e01b60009081526001600160a01b0391909116600452602490fd5b60ff600080516020612be88339815191525460401c1615612a4257565b631afcd79f60e31b60005260046000fd5b600080612a7c9260018060a01b03169360208151910182865af1612a75612adc565b9083612b26565b8051908115159182612ab3575b5050612a925750565b635274afe760e01b60009081526001600160a01b0391909116600452602490fd5b909150602090820182900312610218576020015180159081158103610218575015153880612a89565b3d15612b07573d90612aed826103d6565b91612afb60405193846103a3565b82523d6000602084013e565b606090565b600080611d7893602081519101845af4612b24612adc565b915b90612b4c5750805115612b3b57805190602001fd5b630a12f52160e11b60005260046000fd5b81511580612b7e575b612b5d575090565b639996b31560e01b60009081526001600160a01b0391909116600452602490fd5b50803b15612b5556fe9016d09d72d40fdae2fd8ceac6b6234c7706214fd39c1cd1e609a0528c199300360894a13ba1a3210667c828492db98dca3e2076cc3735a920a3ca505d382bbccd5ed15c6e187e77e9aee88184c21f4f2182ab5827cb3b7e07fbedcd63f03300f0c57e16840df040f15088dc2f81fe391c3923bec73e23a9662efc9c229c6a00a26469706673582212201ee1dbee12e72b4a5d28c85dcc3b787a7d8510927aab24083218d4e8f2ca361164736f6c634300081e0033",
  "devdoc": {
    "author": "@0xJonaseb11",
    "details": "Payments in ERC20 stablecoin. ReentrancyGuard, SafeERC20, pull-over-push withdrawals. UUPS upgradeable, pausable.",
    "errors": {
      "AddressEmptyCode(address)": [
        {
          "details": "There's no code at `target` (it is not a contract)."
        }
      ],
      "AddressInsufficientBalance(address)": [
        {
          "details": "The ETH balance of the account is not enough to perform the operation."
        }
      ],
      "ERC1967InvalidImplementation(address)": [
        {
          "details": "The `implementation` of the proxy is invalid."
        }
      ],
      "ERC1967NonPayable()": [
        {
          "details": "An upgrade function sees `msg.value > 0` that may be lost."
        }
      ],
      "EnforcedPause()": [
        {
          "details": "The operation failed because the contract is paused."
        }
      ],
      "ExpectedPause()": [
        {
          "details": "The operation failed because the contract is not paused."
        }
      ],
      "FailedInnerCall()": [
        {
          "details": "A call to an address target failed. The target may have reverted."
        }
      ],
      "InvalidInitialization()": [
        {
          "details": "The contract is already initialized."
        }
      ],
      "NotInitializing()": [
        {
          "details": "The contract is not initializing."
        }
      ],
      "OwnableInvalidOwner(address)": [
        {
          "details": "The owner is not a valid owner account. (eg. `address(0)`)"
        }
      ],
      "OwnableUnauthorizedAccount(address)": [
        {
          "details": "The caller account is not authorized to perform an operation."
        }
      ],
      "ReentrancyGuardReentrantCall()": [
        {
          "details": "Unauthorized reentrant call."
        }
      ],
      "SafeERC20FailedOperation(address)": [
        {
          "details": "An operation with an ERC20 token failed."
        }
      ],
      "UUPSUnauthorizedCallContext()": [
        {
          "details": "The call is from an unauthorized context."
        }
      ],
      "UUPSUnsupportedProxiableUUID(bytes32)": [
        {
          "details": "The storage `slot` is unsupported as a UUID."
        }
      ]
    },
    "events": {
      "Initialized(uint64)": {
        "details": "Triggered when the contract has been initialized or reinitialized."
      },
      "Paused(address)": {
        "details": "Emitted when the pause is triggered by `account`."
      },
      "Unpaused(address)": {
        "details": "Emitted when the pause is lifted by `account`."
      },
      "Upgraded(address)": {
        "details": "Emitted when the implementation is upgraded."
      }
    },
    "kind": "dev",
    "methods": {
      "availableShares(uint256)": {
        "params": {
          "assetId": "Asset identifier."
        },
        "returns": {
          "available": "Remaining shares."
        }
      },
      "getInvestmentPool(uint256)": {
        "params": {
          "assetId": "Asset to query."
        },
        "returns": {
          "pool": "Full AssetInvestmentPool struct."
        }
      },
      "getInvestorHoldings(uint256,address)": {
        "params": {
          "assetId": "Asset identifier.",
          "investor": "Investor address."
        },
        "returns": {
          "shares": "Share count."
        }
      },
      "getInvestorList(uint256)": {
        "params": {
          "assetId": "Asset identifier."
        },
        "returns": {
          "list": "Array of investor addresses."
        }
      },
      "initialize(address,address,address,address,uint256,address)": {
        "params": {
          "_feeTreasury": "Treasury address for fee sweeps.",
          "_owner": "Protocol owner.",
          "_paymentToken": "ERC20 used for investment payments.",
          "_protocolFeeBps": "Protocol fee in basis points (e.g. 50 = 0.5%).",
          "_registry": "VaulticAssetRegistry proxy address.",
          "_tokenImplementation": "VaulticFractionalOwnershipToken implementation address."
        }
      },
      "owner()": {
        "details": "Returns the address of the current owner."
      },
      "paused()": {
        "details": "Returns true if the contract is paused, and false otherwise."
      },
      "proxiableUUID()": {
        "details": "Implementation of the ERC1822 {proxiableUUID} function. This returns the storage slot used by the implementation. It is used to validate the implementation's compatibility when performing an upgrade. IMPORTANT: A proxy pointing at a proxiable contract should not be considered proxiable itself, because this risks bricking a proxy that upgrades to it, by delegating to itself until out of gas. Thus it is critical that this function revert if invoked through a proxy. This is guaranteed by the `notDelegated` modifier."
      },
      "purchaseShares(uint256,uint256,uint256)": {
        "params": {
          "assetId": "Registry identifier of the asset.",
          "paymentAmount": "Gross payment in payment token units (must equal shareAmount × pricePerShare).",
          "shareAmount": "Number of shares to purchase."
        }
      },
      "quotePurchase(uint256,uint256)": {
        "params": {
          "assetId": "Asset to price.",
          "shareAmount": "Number of shares."
        },
        "returns": {
          "fee": "Protocol fee component.",
          "grossCost": "Gross payment tokens required.",
          "netCost": "Net proceeds (grossCost − fee)."
        }
      },
      "relistAsset(uint256,uint128,uint128,uint128,string,uint128)": {
        "params": {
          "assetId": "Registry identifier of the CLOSED asset.",
          "newInvestorCap": "Per-investor cap for the new round (0 = uncapped).",
          "newMetadataURI": "URI for fresh legal/valuation docs.",
          "newPricePerShare": "Price per share for the new round.",
          "newTotalShares": "Total share supply for the new round.",
          "newValuation": "Updated USD valuation for the new round."
        }
      },
      "renounceOwnership()": {
        "details": "Leaves the contract without owner. It will not be possible to call `onlyOwner` functions. Can only be called by the current owner. NOTE: Renouncing ownership will leave the contract without an owner, thereby disabling any functionality that is only available to the owner."
      },
      "setFeeTreasury(address)": {
        "params": {
          "newTreasury": "New treasury address."
        }
      },
      "setProtocolFee(uint256)": {
        "params": {
          "newFeeBps": "New fee in basis points."
        }
      },
      "setTokenImplementation(address)": {
        "params": {
          "newImplementation": "New implementation address."
        }
      },
      "tokenizeAsset(uint256,uint128,uint128,uint128)": {
        "params": {
          "assetId": "Registry identifier of the asset to tokenize.",
          "investorCap": "Max shares per investor (0 = uncapped).",
          "pricePerShare": "Payment token units per share.",
          "totalShares": "Total fractional shares to mint."
        },
        "returns": {
          "tokenProxy": "Address of the deployed token proxy."
        }
      },
      "transferOwnership(address)": {
        "details": "Transfers ownership of the contract to a new account (`newOwner`). Can only be called by the current owner."
      },
      "upgradeToAndCall(address,bytes)": {
        "custom:oz-upgrades-unsafe-allow-reachable": "delegatecall",
        "details": "Upgrade the implementation of the proxy to `newImplementation`, and subsequently execute the function call encoded in `data`. Calls {_authorizeUpgrade}. Emits an {Upgraded} event."
      },
      "withdrawProceeds(uint256)": {
        "params": {
          "assetId": "Registry identifier of the asset."
        }
      },
      "withdrawableProceeds(uint256)": {
        "params": {
          "assetId": "Asset identifier."
        },
        "returns": {
          "amount": "Withdrawable payment token units."
        }
      }
    },
    "title": "VaulticInvestmentManager",
    "version": 1
  },
  "userdoc": {
    "kind": "user",
    "methods": {
      "availableShares(uint256)": {
        "notice": "Returns remaining unsold shares for the current round."
      },
      "getInvestmentPool(uint256)": {
        "notice": "Returns the investment pool state for the current round."
      },
      "getInvestorHoldings(uint256,address)": {
        "notice": "Returns shares held by an investor for an asset (current round only)."
      },
      "getInvestorList(uint256)": {
        "notice": "Returns the list of investor addresses for the current round (used for reclaimAllShares)."
      },
      "initialize(address,address,address,address,uint256,address)": {
        "notice": "Initializes the upgradeable proxy."
      },
      "pause()": {
        "notice": "Pauses purchases, relists, and withdrawals."
      },
      "purchaseShares(uint256,uint256,uint256)": {
        "notice": "Purchases fractional shares of a TOKENIZED asset. paymentAmount must equal shareAmount × pricePerShare."
      },
      "quotePurchase(uint256,uint256)": {
        "notice": "Returns gross cost, fee, and net cost for a prospective purchase."
      },
      "relistAsset(uint256,uint128,uint128,uint128,string,uint128)": {
        "notice": "Lets full owner (100% ERC20 supply) relist a CLOSED asset for a new round. Atomic: verify, reclaim, transfer ownership, relist, record tokenization, reset pool."
      },
      "setFeeTreasury(address)": {
        "notice": "Updates the fee treasury address. Owner-only."
      },
      "setProtocolFee(uint256)": {
        "notice": "Updates the protocol fee rate. Owner-only; cap MAX_FEE_BPS."
      },
      "setTokenImplementation(address)": {
        "notice": "Updates the token implementation for future proxy deploys. Owner-only; does not upgrade existing proxies."
      },
      "sweepProtocolFees()": {
        "notice": "Sweeps accumulated protocol fees to feeTreasury. Owner-only."
      },
      "tokenizeAsset(uint256,uint128,uint128,uint128)": {
        "notice": "Deploys a fractional ownership token proxy for an ACTIVE FRACTIONAL asset and records it on the registry. Owner-only."
      },
      "unpause()": {
        "notice": "Unpauses the contract."
      },
      "withdrawProceeds(uint256)": {
        "notice": "Withdraws accumulated net proceeds for the registered asset owner. Pull-over-push; current round only."
      },
      "withdrawableProceeds(uint256)": {
        "notice": "Returns withdrawable net proceeds for the asset owner."
      }
    },
    "notice": "Orchestrates fractional asset tokenization, purchases, proceeds, and full-owner relisting. Holds TOKENIZER_ROLE on the registry.",
    "version": 1
  },
  "storageLayout": {
    "storage": [
      {
        "astId": 3194,
        "contract": "contracts/modules/InvestmentManager.sol:VaulticInvestmentManager",
        "label": "_status",
        "offset": 0,
        "slot": "0",
        "type": "t_uint256"
      },
      {
        "astId": 5428,
        "contract": "contracts/modules/InvestmentManager.sol:VaulticInvestmentManager",
        "label": "registry",
        "offset": 0,
        "slot": "1",
        "type": "t_contract(VaulticAssetRegistry)4622"
      },
      {
        "astId": 5431,
        "contract": "contracts/modules/InvestmentManager.sol:VaulticInvestmentManager",
        "label": "paymentToken",
        "offset": 0,
        "slot": "2",
        "type": "t_contract(IERC20)2548"
      },
      {
        "astId": 5433,
        "contract": "contracts/modules/InvestmentManager.sol:VaulticInvestmentManager",
        "label": "tokenImplementation",
        "offset": 0,
        "slot": "3",
        "type": "t_address"
      },
      {
        "astId": 5435,
        "contract": "contracts/modules/InvestmentManager.sol:VaulticInvestmentManager",
        "label": "protocolFeeBps",
        "offset": 0,
        "slot": "4",
        "type": "t_uint256"
      },
      {
        "astId": 5437,
        "contract": "contracts/modules/InvestmentManager.sol:VaulticInvestmentManager",
        "label": "feeTreasury",
        "offset": 0,
        "slot": "5",
        "type": "t_address"
      },
      {
        "astId": 5439,
        "contract": "contracts/modules/InvestmentManager.sol:VaulticInvestmentManager",
        "label": "accumulatedFees",
        "offset": 0,
        "slot": "6",
        "type": "t_uint256"
      },
      {
        "astId": 5444,
        "contract": "contracts/modules/InvestmentManager.sol:VaulticInvestmentManager",
        "label": "_pools",
        "offset": 0,
        "slot": "7",
        "type": "t_mapping(t_uint256,t_struct(AssetInvestmentPool)5359_storage)"
      },
      {
        "astId": 5450,
        "contract": "contracts/modules/InvestmentManager.sol:VaulticInvestmentManager",
        "label": "investorHoldings",
        "offset": 0,
        "slot": "8",
        "type": "t_mapping(t_uint256,t_mapping(t_address,t_uint256))"
      },
      {
        "astId": 5455,
        "contract": "contracts/modules/InvestmentManager.sol:VaulticInvestmentManager",
        "label": "_investorList",
        "offset": 0,
        "slot": "9",
        "type": "t_mapping(t_uint256,t_array(t_address)dyn_storage)"
      },
      {
        "astId": 5459,
        "contract": "contracts/modules/InvestmentManager.sol:VaulticInvestmentManager",
        "label": "__gap",
        "offset": 0,
        "slot": "10",
        "type": "t_array(t_uint256)50_storage"
      }
    ],
    "types": {
      "t_address": {
        "encoding": "inplace",
        "label": "address",
        "numberOfBytes": "20"
      },
      "t_array(t_address)dyn_storage": {
        "base": "t_address",
        "encoding": "dynamic_array",
        "label": "address[]",
        "numberOfBytes": "32"
      },
      "t_array(t_uint256)50_storage": {
        "base": "t_uint256",
        "encoding": "inplace",
        "label": "uint256[50]",
        "numberOfBytes": "1600"
      },
      "t_bool": {
        "encoding": "inplace",
        "label": "bool",
        "numberOfBytes": "1"
      },
      "t_contract(IERC20)2548": {
        "encoding": "inplace",
        "label": "contract IERC20",
        "numberOfBytes": "20"
      },
      "t_contract(VaulticAssetRegistry)4622": {
        "encoding": "inplace",
        "label": "contract VaulticAssetRegistry",
        "numberOfBytes": "20"
      },
      "t_mapping(t_address,t_uint256)": {
        "encoding": "mapping",
        "key": "t_address",
        "label": "mapping(address => uint256)",
        "numberOfBytes": "32",
        "value": "t_uint256"
      },
      "t_mapping(t_uint256,t_array(t_address)dyn_storage)": {
        "encoding": "mapping",
        "key": "t_uint256",
        "label": "mapping(uint256 => address[])",
        "numberOfBytes": "32",
        "value": "t_array(t_address)dyn_storage"
      },
      "t_mapping(t_uint256,t_mapping(t_address,t_uint256))": {
        "encoding": "mapping",
        "key": "t_uint256",
        "label": "mapping(uint256 => mapping(address => uint256))",
        "numberOfBytes": "32",
        "value": "t_mapping(t_address,t_uint256)"
      },
      "t_mapping(t_uint256,t_struct(AssetInvestmentPool)5359_storage)": {
        "encoding": "mapping",
        "key": "t_uint256",
        "label": "mapping(uint256 => struct VaulticInvestmentManager.AssetInvestmentPool)",
        "numberOfBytes": "32",
        "value": "t_struct(AssetInvestmentPool)5359_storage"
      },
      "t_struct(AssetInvestmentPool)5359_storage": {
        "encoding": "inplace",
        "label": "struct VaulticInvestmentManager.AssetInvestmentPool",
        "members": [
          {
            "astId": 5344,
            "contract": "contracts/modules/InvestmentManager.sol:VaulticInvestmentManager",
            "label": "totalShares",
            "offset": 0,
            "slot": "0",
            "type": "t_uint128"
          },
          {
            "astId": 5346,
            "contract": "contracts/modules/InvestmentManager.sol:VaulticInvestmentManager",
            "label": "soldShares",
            "offset": 16,
            "slot": "0",
            "type": "t_uint128"
          },
          {
            "astId": 5348,
            "contract": "contracts/modules/InvestmentManager.sol:VaulticInvestmentManager",
            "label": "pricePerShare",
            "offset": 0,
            "slot": "1",
            "type": "t_uint128"
          },
          {
            "astId": 5350,
            "contract": "contracts/modules/InvestmentManager.sol:VaulticInvestmentManager",
            "label": "investorCap",
            "offset": 16,
            "slot": "1",
            "type": "t_uint128"
          },
          {
            "astId": 5352,
            "contract": "contracts/modules/InvestmentManager.sol:VaulticInvestmentManager",
            "label": "tokenContract",
            "offset": 0,
            "slot": "2",
            "type": "t_address"
          },
          {
            "astId": 5354,
            "contract": "contracts/modules/InvestmentManager.sol:VaulticInvestmentManager",
            "label": "isFullySubscribed",
            "offset": 20,
            "slot": "2",
            "type": "t_bool"
          },
          {
            "astId": 5356,
            "contract": "contracts/modules/InvestmentManager.sol:VaulticInvestmentManager",
            "label": "proceedsCollected",
            "offset": 0,
            "slot": "3",
            "type": "t_uint256"
          },
          {
            "astId": 5358,
            "contract": "contracts/modules/InvestmentManager.sol:VaulticInvestmentManager",
            "label": "proceedsWithdrawn",
            "offset": 0,
            "slot": "4",
            "type": "t_uint256"
          }
        ],
        "numberOfBytes": "160"
      },
      "t_uint128": {
        "encoding": "inplace",
        "label": "uint128",
        "numberOfBytes": "16"
      },
      "t_uint256": {
        "encoding": "inplace",
        "label": "uint256",
        "numberOfBytes": "32"
      }
    }
  }
}