{
  "address": "0x15AD832cF700558e8A0919E36eEA032a477cA6ad",
  "abi": [
    {
      "inputs": [
        {
          "internalType": "address",
          "name": "target",
          "type": "address"
        }
      ],
      "name": "AddressEmptyCode",
      "type": "error"
    },
    {
      "inputs": [
        {
          "internalType": "uint256",
          "name": "assetId",
          "type": "uint256"
        }
      ],
      "name": "AssetAlreadyRegistered",
      "type": "error"
    },
    {
      "inputs": [
        {
          "internalType": "uint256",
          "name": "assetId",
          "type": "uint256"
        },
        {
          "internalType": "enum VaulticAssetRegistry.AssetState",
          "name": "current",
          "type": "uint8"
        }
      ],
      "name": "AssetNotActiveForTokenization",
      "type": "error"
    },
    {
      "inputs": [
        {
          "internalType": "uint256",
          "name": "assetId",
          "type": "uint256"
        },
        {
          "internalType": "enum VaulticAssetRegistry.AssetState",
          "name": "current",
          "type": "uint8"
        }
      ],
      "name": "AssetNotClosedForRelisting",
      "type": "error"
    },
    {
      "inputs": [
        {
          "internalType": "uint256",
          "name": "assetId",
          "type": "uint256"
        }
      ],
      "name": "AssetNotFound",
      "type": "error"
    },
    {
      "inputs": [
        {
          "internalType": "address",
          "name": "implementation",
          "type": "address"
        }
      ],
      "name": "ERC1967InvalidImplementation",
      "type": "error"
    },
    {
      "inputs": [],
      "name": "ERC1967NonPayable",
      "type": "error"
    },
    {
      "inputs": [
        {
          "internalType": "string",
          "name": "fieldName",
          "type": "string"
        }
      ],
      "name": "EmptyStringField",
      "type": "error"
    },
    {
      "inputs": [],
      "name": "EnforcedPause",
      "type": "error"
    },
    {
      "inputs": [],
      "name": "ExpectedPause",
      "type": "error"
    },
    {
      "inputs": [],
      "name": "FailedInnerCall",
      "type": "error"
    },
    {
      "inputs": [],
      "name": "InvalidInitialization",
      "type": "error"
    },
    {
      "inputs": [],
      "name": "InvalidNewOwnerAddress",
      "type": "error"
    },
    {
      "inputs": [
        {
          "internalType": "uint256",
          "name": "provided",
          "type": "uint256"
        }
      ],
      "name": "InvalidShareSupply",
      "type": "error"
    },
    {
      "inputs": [
        {
          "internalType": "uint256",
          "name": "assetId",
          "type": "uint256"
        },
        {
          "internalType": "enum VaulticAssetRegistry.AssetState",
          "name": "current",
          "type": "uint8"
        },
        {
          "internalType": "enum VaulticAssetRegistry.AssetState",
          "name": "requested",
          "type": "uint8"
        }
      ],
      "name": "InvalidStateTransition",
      "type": "error"
    },
    {
      "inputs": [],
      "name": "InvalidTokenContractAddress",
      "type": "error"
    },
    {
      "inputs": [
        {
          "internalType": "uint256",
          "name": "provided",
          "type": "uint256"
        }
      ],
      "name": "InvalidTokenPrice",
      "type": "error"
    },
    {
      "inputs": [
        {
          "internalType": "uint256",
          "name": "provided",
          "type": "uint256"
        }
      ],
      "name": "InvalidValuation",
      "type": "error"
    },
    {
      "inputs": [],
      "name": "NotInitializing",
      "type": "error"
    },
    {
      "inputs": [
        {
          "internalType": "address",
          "name": "owner",
          "type": "address"
        }
      ],
      "name": "OwnableInvalidOwner",
      "type": "error"
    },
    {
      "inputs": [
        {
          "internalType": "address",
          "name": "account",
          "type": "address"
        }
      ],
      "name": "OwnableUnauthorizedAccount",
      "type": "error"
    },
    {
      "inputs": [
        {
          "internalType": "uint256",
          "name": "assetId",
          "type": "uint256"
        },
        {
          "internalType": "enum VaulticAssetRegistry.OwnershipModel",
          "name": "model",
          "type": "uint8"
        }
      ],
      "name": "OwnershipModelMismatch",
      "type": "error"
    },
    {
      "inputs": [],
      "name": "ReentrancyGuardReentrantCall",
      "type": "error"
    },
    {
      "inputs": [],
      "name": "UUPSUnauthorizedCallContext",
      "type": "error"
    },
    {
      "inputs": [
        {
          "internalType": "bytes32",
          "name": "slot",
          "type": "bytes32"
        }
      ],
      "name": "UUPSUnsupportedProxiableUUID",
      "type": "error"
    },
    {
      "inputs": [
        {
          "internalType": "address",
          "name": "caller",
          "type": "address"
        }
      ],
      "name": "UnauthorizedCaller",
      "type": "error"
    },
    {
      "anonymous": false,
      "inputs": [
        {
          "indexed": true,
          "internalType": "uint256",
          "name": "assetId",
          "type": "uint256"
        },
        {
          "indexed": true,
          "internalType": "address",
          "name": "approvedBy",
          "type": "address"
        }
      ],
      "name": "AssetApproved",
      "type": "event"
    },
    {
      "anonymous": false,
      "inputs": [
        {
          "indexed": true,
          "internalType": "uint256",
          "name": "assetId",
          "type": "uint256"
        },
        {
          "indexed": true,
          "internalType": "address",
          "name": "closedBy",
          "type": "address"
        }
      ],
      "name": "AssetClosed",
      "type": "event"
    },
    {
      "anonymous": false,
      "inputs": [
        {
          "indexed": true,
          "internalType": "uint256",
          "name": "assetId",
          "type": "uint256"
        },
        {
          "indexed": true,
          "internalType": "address",
          "name": "previousOwner",
          "type": "address"
        },
        {
          "indexed": true,
          "internalType": "address",
          "name": "newOwner",
          "type": "address"
        }
      ],
      "name": "AssetOwnershipTransferred",
      "type": "event"
    },
    {
      "anonymous": false,
      "inputs": [
        {
          "indexed": true,
          "internalType": "uint256",
          "name": "assetId",
          "type": "uint256"
        },
        {
          "indexed": true,
          "internalType": "address",
          "name": "assetOwner",
          "type": "address"
        },
        {
          "indexed": false,
          "internalType": "string",
          "name": "assetName",
          "type": "string"
        },
        {
          "indexed": false,
          "internalType": "string",
          "name": "assetCategory",
          "type": "string"
        },
        {
          "indexed": false,
          "internalType": "uint128",
          "name": "valuation",
          "type": "uint128"
        },
        {
          "indexed": false,
          "internalType": "enum VaulticAssetRegistry.OwnershipModel",
          "name": "model",
          "type": "uint8"
        }
      ],
      "name": "AssetRegistered",
      "type": "event"
    },
    {
      "anonymous": false,
      "inputs": [
        {
          "indexed": true,
          "internalType": "uint256",
          "name": "assetId",
          "type": "uint256"
        },
        {
          "indexed": true,
          "internalType": "address",
          "name": "newOwner",
          "type": "address"
        },
        {
          "indexed": false,
          "internalType": "uint128",
          "name": "newValuation",
          "type": "uint128"
        },
        {
          "indexed": false,
          "internalType": "uint32",
          "name": "relistCount",
          "type": "uint32"
        }
      ],
      "name": "AssetRelisted",
      "type": "event"
    },
    {
      "anonymous": false,
      "inputs": [
        {
          "indexed": true,
          "internalType": "uint256",
          "name": "assetId",
          "type": "uint256"
        },
        {
          "indexed": true,
          "internalType": "address",
          "name": "tokenContract",
          "type": "address"
        },
        {
          "indexed": false,
          "internalType": "uint128",
          "name": "totalShares",
          "type": "uint128"
        },
        {
          "indexed": false,
          "internalType": "uint128",
          "name": "pricePerShare",
          "type": "uint128"
        }
      ],
      "name": "AssetTokenized",
      "type": "event"
    },
    {
      "anonymous": false,
      "inputs": [
        {
          "indexed": false,
          "internalType": "uint64",
          "name": "version",
          "type": "uint64"
        }
      ],
      "name": "Initialized",
      "type": "event"
    },
    {
      "anonymous": false,
      "inputs": [
        {
          "indexed": true,
          "internalType": "address",
          "name": "previousOwner",
          "type": "address"
        },
        {
          "indexed": true,
          "internalType": "address",
          "name": "newOwner",
          "type": "address"
        }
      ],
      "name": "OwnershipTransferred",
      "type": "event"
    },
    {
      "anonymous": false,
      "inputs": [
        {
          "indexed": false,
          "internalType": "address",
          "name": "account",
          "type": "address"
        }
      ],
      "name": "Paused",
      "type": "event"
    },
    {
      "anonymous": false,
      "inputs": [
        {
          "indexed": true,
          "internalType": "uint256",
          "name": "assetId",
          "type": "uint256"
        },
        {
          "indexed": false,
          "internalType": "uint128",
          "name": "soldShares",
          "type": "uint128"
        }
      ],
      "name": "SoldSharesUpdated",
      "type": "event"
    },
    {
      "anonymous": false,
      "inputs": [
        {
          "indexed": true,
          "internalType": "address",
          "name": "previous",
          "type": "address"
        },
        {
          "indexed": true,
          "internalType": "address",
          "name": "updated",
          "type": "address"
        }
      ],
      "name": "TokenizerUpdated",
      "type": "event"
    },
    {
      "anonymous": false,
      "inputs": [
        {
          "indexed": false,
          "internalType": "address",
          "name": "account",
          "type": "address"
        }
      ],
      "name": "Unpaused",
      "type": "event"
    },
    {
      "anonymous": false,
      "inputs": [
        {
          "indexed": true,
          "internalType": "address",
          "name": "implementation",
          "type": "address"
        }
      ],
      "name": "Upgraded",
      "type": "event"
    },
    {
      "inputs": [],
      "name": "UPGRADE_INTERFACE_VERSION",
      "outputs": [
        {
          "internalType": "string",
          "name": "",
          "type": "string"
        }
      ],
      "stateMutability": "view",
      "type": "function"
    },
    {
      "inputs": [
        {
          "internalType": "uint256",
          "name": "assetId",
          "type": "uint256"
        }
      ],
      "name": "approveAsset",
      "outputs": [],
      "stateMutability": "nonpayable",
      "type": "function"
    },
    {
      "inputs": [
        {
          "internalType": "uint256",
          "name": "assetId",
          "type": "uint256"
        }
      ],
      "name": "closeAsset",
      "outputs": [],
      "stateMutability": "nonpayable",
      "type": "function"
    },
    {
      "inputs": [
        {
          "internalType": "uint256",
          "name": "assetId",
          "type": "uint256"
        }
      ],
      "name": "getAsset",
      "outputs": [
        {
          "components": [
            {
              "internalType": "uint256",
              "name": "assetId",
              "type": "uint256"
            },
            {
              "internalType": "address",
              "name": "assetOwner",
              "type": "address"
            },
            {
              "internalType": "enum VaulticAssetRegistry.AssetState",
              "name": "state",
              "type": "uint8"
            },
            {
              "internalType": "enum VaulticAssetRegistry.OwnershipModel",
              "name": "model",
              "type": "uint8"
            },
            {
              "internalType": "uint48",
              "name": "registeredAt",
              "type": "uint48"
            },
            {
              "internalType": "uint128",
              "name": "valuation",
              "type": "uint128"
            },
            {
              "internalType": "uint128",
              "name": "totalShares",
              "type": "uint128"
            },
            {
              "internalType": "uint128",
              "name": "pricePerShare",
              "type": "uint128"
            },
            {
              "internalType": "uint128",
              "name": "soldShares",
              "type": "uint128"
            },
            {
              "internalType": "address",
              "name": "tokenContract",
              "type": "address"
            },
            {
              "internalType": "uint48",
              "name": "tokenizedAt",
              "type": "uint48"
            },
            {
              "internalType": "uint32",
              "name": "relistCount",
              "type": "uint32"
            },
            {
              "internalType": "uint48",
              "name": "relistedAt",
              "type": "uint48"
            },
            {
              "internalType": "string",
              "name": "assetName",
              "type": "string"
            },
            {
              "internalType": "string",
              "name": "assetCategory",
              "type": "string"
            },
            {
              "internalType": "string",
              "name": "metadataURI",
              "type": "string"
            }
          ],
          "internalType": "struct VaulticAssetRegistry.AssetRecord",
          "name": "rec",
          "type": "tuple"
        }
      ],
      "stateMutability": "view",
      "type": "function"
    },
    {
      "inputs": [
        {
          "internalType": "uint256",
          "name": "assetId",
          "type": "uint256"
        }
      ],
      "name": "getAssetState",
      "outputs": [
        {
          "internalType": "enum VaulticAssetRegistry.AssetState",
          "name": "",
          "type": "uint8"
        }
      ],
      "stateMutability": "view",
      "type": "function"
    },
    {
      "inputs": [
        {
          "internalType": "address",
          "name": "assetOwner",
          "type": "address"
        }
      ],
      "name": "getAssetsByOwner",
      "outputs": [
        {
          "internalType": "uint256[]",
          "name": "ids",
          "type": "uint256[]"
        }
      ],
      "stateMutability": "view",
      "type": "function"
    },
    {
      "inputs": [
        {
          "internalType": "uint256",
          "name": "assetId",
          "type": "uint256"
        }
      ],
      "name": "getFundingProgress",
      "outputs": [
        {
          "internalType": "uint128",
          "name": "soldShares",
          "type": "uint128"
        },
        {
          "internalType": "uint128",
          "name": "totalShares",
          "type": "uint128"
        }
      ],
      "stateMutability": "view",
      "type": "function"
    },
    {
      "inputs": [
        {
          "internalType": "uint256",
          "name": "assetId",
          "type": "uint256"
        }
      ],
      "name": "getRelistCount",
      "outputs": [
        {
          "internalType": "uint32",
          "name": "count",
          "type": "uint32"
        }
      ],
      "stateMutability": "view",
      "type": "function"
    },
    {
      "inputs": [
        {
          "internalType": "address",
          "name": "initialOwner",
          "type": "address"
        },
        {
          "internalType": "address",
          "name": "initialTokenizer",
          "type": "address"
        }
      ],
      "name": "initialize",
      "outputs": [],
      "stateMutability": "nonpayable",
      "type": "function"
    },
    {
      "inputs": [],
      "name": "owner",
      "outputs": [
        {
          "internalType": "address",
          "name": "",
          "type": "address"
        }
      ],
      "stateMutability": "view",
      "type": "function"
    },
    {
      "inputs": [],
      "name": "pause",
      "outputs": [],
      "stateMutability": "nonpayable",
      "type": "function"
    },
    {
      "inputs": [],
      "name": "paused",
      "outputs": [
        {
          "internalType": "bool",
          "name": "",
          "type": "bool"
        }
      ],
      "stateMutability": "view",
      "type": "function"
    },
    {
      "inputs": [],
      "name": "proxiableUUID",
      "outputs": [
        {
          "internalType": "bytes32",
          "name": "",
          "type": "bytes32"
        }
      ],
      "stateMutability": "view",
      "type": "function"
    },
    {
      "inputs": [
        {
          "internalType": "uint256",
          "name": "assetId",
          "type": "uint256"
        },
        {
          "internalType": "uint128",
          "name": "sharesDelta",
          "type": "uint128"
        }
      ],
      "name": "recordSharesSold",
      "outputs": [],
      "stateMutability": "nonpayable",
      "type": "function"
    },
    {
      "inputs": [
        {
          "internalType": "uint256",
          "name": "assetId",
          "type": "uint256"
        },
        {
          "internalType": "address",
          "name": "tokenContract",
          "type": "address"
        },
        {
          "internalType": "uint128",
          "name": "totalShares",
          "type": "uint128"
        },
        {
          "internalType": "uint128",
          "name": "pricePerShare",
          "type": "uint128"
        }
      ],
      "name": "recordTokenization",
      "outputs": [],
      "stateMutability": "nonpayable",
      "type": "function"
    },
    {
      "inputs": [
        {
          "internalType": "address",
          "name": "assetOwner",
          "type": "address"
        },
        {
          "internalType": "string",
          "name": "assetName",
          "type": "string"
        },
        {
          "internalType": "string",
          "name": "assetCategory",
          "type": "string"
        },
        {
          "internalType": "string",
          "name": "metadataURI",
          "type": "string"
        },
        {
          "internalType": "uint128",
          "name": "valuation",
          "type": "uint128"
        },
        {
          "internalType": "enum VaulticAssetRegistry.OwnershipModel",
          "name": "model",
          "type": "uint8"
        }
      ],
      "name": "registerAsset",
      "outputs": [
        {
          "internalType": "uint256",
          "name": "assetId",
          "type": "uint256"
        }
      ],
      "stateMutability": "nonpayable",
      "type": "function"
    },
    {
      "inputs": [
        {
          "internalType": "uint256",
          "name": "assetId",
          "type": "uint256"
        },
        {
          "internalType": "uint128",
          "name": "newValuation",
          "type": "uint128"
        },
        {
          "internalType": "string",
          "name": "newMetadataURI",
          "type": "string"
        }
      ],
      "name": "relistAsset",
      "outputs": [],
      "stateMutability": "nonpayable",
      "type": "function"
    },
    {
      "inputs": [],
      "name": "renounceOwnership",
      "outputs": [],
      "stateMutability": "nonpayable",
      "type": "function"
    },
    {
      "inputs": [
        {
          "internalType": "address",
          "name": "newTokenizer",
          "type": "address"
        }
      ],
      "name": "setTokenizer",
      "outputs": [],
      "stateMutability": "nonpayable",
      "type": "function"
    },
    {
      "inputs": [],
      "name": "tokenizer",
      "outputs": [
        {
          "internalType": "address",
          "name": "",
          "type": "address"
        }
      ],
      "stateMutability": "view",
      "type": "function"
    },
    {
      "inputs": [],
      "name": "totalAssets",
      "outputs": [
        {
          "internalType": "uint256",
          "name": "count",
          "type": "uint256"
        }
      ],
      "stateMutability": "view",
      "type": "function"
    },
    {
      "inputs": [
        {
          "internalType": "uint256",
          "name": "assetId",
          "type": "uint256"
        },
        {
          "internalType": "address",
          "name": "newOwner",
          "type": "address"
        }
      ],
      "name": "transferAssetOwnership",
      "outputs": [],
      "stateMutability": "nonpayable",
      "type": "function"
    },
    {
      "inputs": [
        {
          "internalType": "address",
          "name": "newOwner",
          "type": "address"
        }
      ],
      "name": "transferOwnership",
      "outputs": [],
      "stateMutability": "nonpayable",
      "type": "function"
    },
    {
      "inputs": [],
      "name": "unpause",
      "outputs": [],
      "stateMutability": "nonpayable",
      "type": "function"
    },
    {
      "inputs": [
        {
          "internalType": "address",
          "name": "newImplementation",
          "type": "address"
        },
        {
          "internalType": "bytes",
          "name": "data",
          "type": "bytes"
        }
      ],
      "name": "upgradeToAndCall",
      "outputs": [],
      "stateMutability": "payable",
      "type": "function"
    }
  ],
  "transactionHash": "0x5dff7d98f5eba63053c8c0a09fa065f777ea3971b73d81764920ae376ad6ddb9",
  "args": [],
  "numDeployments": 1,
  "solcInputHash": "5c9862b0d4d8590c3319f896f2f53ff3",
  "bytecode": "0x60a08060405234602e5760016000553060805261230590816100348239608051818181610d210152610df40152f35b600080fdfe608080604052600436101561001357600080fd5b60003560e01c90816301e1d11414611d915750806307f8dc4b146116c05780631449db221461164c578063276f0934146115925780632dcf36a31461153f5780633f4ba83a146114bc578063476dfde31461112e578063485cc95514610fb85780634f1ef28614610d7857806352d1902d14610d0e5780635930a47714610aee5780635c975abb14610abe578063715018a614610a545780638456cb59146109e0578063864d7e14146108605780638da5cb5b1461082a578063ad3cb1cc146107e3578063b9d0f5e5146106e0578063c3abdb1d146105be578063eac8f5b814610296578063f0d26e1c1461026d578063f2fde38b14610242578063f918f736146101f6578063fa25125f146101a65763ff4c5f6b1461013257600080fd5b346101a15760203660031901126101a1576004358060005260026020526040600020541561018d5760009081526002602081815260409283902060038101549201548351608093841c8152921c9082015290819081015b0390f35b63ad917ae760e01b60005260045260246000fd5b600080fd5b346101a15760203660031901126101a1576004358060005260026020526040600020541561018d576000526002602052602060ff60016040600020015460a01c166101f46040518092611ee1565bf35b346101a15760203660031901126101a1576004358060005260026020526040600020541561018d576000526002602052602063ffffffff60046040600020015460d01c16604051908152f35b346101a15760203660031901126101a15761026b61025e611dcb565b610266612160565b6120ea565b005b346101a15760003660031901126101a1576001546040516001600160a01b039091168152602090f35b346101a15760203660031901126101a15760043560606101e06040516102bb81611e3a565b60008152600060208201526000604082015260008382015260006080820152600060a0820152600060c0820152600060e082015260006101008201526000610120820152600061014082015260006101608201526000610180820152826101a0820152826101c082015201528060005260026020526040600020541561018d576000526002602052604060002060405161035481611e3a565b8154815260018201546001600160a01b038116602083015260a081901c60ff1660058110156105a857604083015260ff8160a81c169060028210156105a8576101899365ffffffffffff60089261045e94606087015260b01c16608085015260028101546001600160801b03811660a086015260801c60c085015260038101546001600160801b03811660e086015260801c61010085015263ffffffff600482015460018060a01b03811661012087015265ffffffffffff8160a01c1661014087015260d01c1661016085015265ffffffffffff60058201541661018085015261044060068201612046565b6101a085015261045260078201612046565b6101c085015201612046565b6101e0820152604051918291602083528051602084015260018060a01b03602082015116604084015261049960408201516060850190611ee1565b6104ab60608201516080850190611efc565b65ffffffffffff60808201511660a08401526001600160801b0360a08201511660c08401526001600160801b0360c08201511660e08401526001600160801b0360e0820151166101008401526001600160801b036101008201511661012084015260018060a01b036101208201511661014084015265ffffffffffff6101408201511661016084015263ffffffff6101608201511661018084015265ffffffffffff610180820151166101a08401526101e061059361057d6101a08401516102006101c0880152610220870190611e92565b6101c0840151868203601f190184880152611e92565b910151838203601f1901610200850152611e92565b634e487b7160e01b600052602160045260246000fd5b346101a15760403660031901126101a1576004356105da611e24565b6001546001600160a01b031633036106cb57816000526002602052604060002054156106b6576001600160801b031680156106a057816000526002602052600360406000200190815460801c01906001600160801b03821161068a5780546001600160801b0316608083901b6001600160801b0319161790557fa7992b71e7faa8c92a844d47348178144e4789d924ad240062adf5e470108dce906020906001600160801b0360405191168152a2005b634e487b7160e01b600052601160045260246000fd5b638d20cf8b60e01b600052600060045260246000fd5b5063ad917ae760e01b60005260045260246000fd5b63d86ad9cf60e01b6000523360045260246000fd5b346101a15760203660031901126101a1576004356106fc612196565b8060005260026020526040600020541561018d57600080516020612250833981519152546001600160a01b0316331415806107ce575b6106cb57806000526002602052600160406000200160ff815460a01c1660058110156105a857801580156107c4575b6107a05750805460ff60a01b1916600360a01b17905533907f738a98698870b4fee185ec90d955274c7da3bb5afa233a80b48cb669776dc3b0600080a3005b633b9a788160e11b60005260048390526107b990611ed3565b600360445260646000fd5b5060038114610761565b506001546001600160a01b0316331415610732565b346101a15760003660031901126101a15761018960408051906108068183611e56565b60058252640352e302e360dc1b602083015251918291602083526020830190611e92565b346101a15760003660031901126101a157600080516020612250833981519152546040516001600160a01b039091168152602090f35b346101a15760203660031901126101a15760043561087c612160565b610884612196565b8060005260026020526040600020541561018d5780600052600260205260016040600020019060ff825460a01c169160009260058110156105a8578015806109d8575b6109cf575b60018114600081806109c8575b6109bf575b50806109b7575b6109ae575b600060028214806109a7575b61099e575b506003811480610996575b61098d575b6000936004821480610986575b61097e575b1561095d5750805460ff60a01b1916600160a01b17905533907f4a184b517d677abb35488a7ffba6353e76337257a70f5b190375e62d0a5b3a368380a380f35b8361097760649285633b9a788160e11b8452600452611ed3565b6001604452fd5b50600161091d565b5084610918565b6001935061090b565b506000610906565b600194506108fb565b50806108f6565b600193506108ea565b5060006108e5565b600195506108de565b50806108d9565b600193506108cc565b5060016108c7565b346101a15760003660031901126101a1576109f9612160565b610a01612196565b600160ff19600080516020612290833981519152541617600080516020612290833981519152557f62e78cea01bee320cd4e420270b5ea74000d11b0c9f74754ebdbfc544b05a2586020604051338152a1005b346101a15760003660031901126101a157610a6d612160565b60008051602061225083398151915280546001600160a01b031981169091556000906001600160a01b03167f8be0079c531659141344cd1fd0a4f28419497f9722a3daafe3b4186f6b6457e08280a3005b346101a15760003660031901126101a157602060ff60008051602061229083398151915254166040519015158152f35b346101a15760803660031901126101a157600435610b0a611de1565b90604435916001600160801b038316928381036101a157606435906001600160801b0382168083036101a1576001546001600160a01b031633036106cb57610b50612196565b84600052600260205260406000205415610cf9578460005260026020526040600020906001820194855460ff8160a81c1660028110156105a85760018103610ce0575060a01c60ff1660058110156105a857600181141580610cd5575b610cb657506001600160a01b0316968715610ca557156106a0578015610c8f57845460ff60a01b1916600160a11b179094556004810180546001600160a01b031916871781556002820180546001600160801b0316608085901b6001600160801b0319161790557f9cfcc8cd687e61a5cc14c8353d03252ba22cce4cab8fc8e8c829bad70a4bef8794909160030180546001600160801b0319169091179055805465ffffffffffff60a01b19164260a01b65ffffffffffff60a01b16179055604080516001600160801b039283168152929091166020830152819081010390a3005b63820f079560e01b600052600060045260246000fd5b63333a698160e01b60005260046000fd5b63698b6cb160e01b6000526004889052610ccf90611ed3565b60446000fd5b506004811415610bad565b637743706760e11b6000526004899052610ccf90611eee565b8463ad917ae760e01b60005260045260246000fd5b346101a15760003660031901126101a1577f00000000000000000000000000000000000000000000000000000000000000006001600160a01b03163003610d675760206040516000805160206122708339815191528152f35b63703e46dd60e11b60005260046000fd5b60403660031901126101a157610d8c611dcb565b602435906001600160401b0382116101a157366023830112156101a157816004013590610db882611e77565b91610dc66040519384611e56565b808352602083019336602483830101116101a157816000926024602093018737840101526001600160a01b037f000000000000000000000000000000000000000000000000000000000000000016308114908115610f95575b50610d6757610e2c612160565b6040516352d1902d60e01b81526001600160a01b0382169390602081600481885afa60009181610f61575b50610e715784634c9c8ce360e01b60005260045260246000fd5b80600080516020612270833981519152869203610f4d5750823b15610f395760008051602061227083398151915280546001600160a01b031916821790557fbc7cd75a20ee27fd9adebab32041f755214dbc6bffa90cc0225b39da2e5c2d3b600080a2825115610f1e576000809161026b945190845af43d15610f16573d91610ef983611e77565b92610f076040519485611e56565b83523d6000602085013e6121ee565b6060916121ee565b50505034610f2857005b63b398979f60e01b60005260046000fd5b634c9c8ce360e01b60005260045260246000fd5b632a87526960e21b60005260045260246000fd5b9091506020813d602011610f8d575b81610f7d60209383611e56565b810103126101a157519086610e57565b3d9150610f70565b600080516020612270833981519152546001600160a01b03161415905084610e1f565b346101a15760403660031901126101a157610fd1611dcb565b610fd9611de1565b6000805160206122b08339815191525460ff8160401c1615926001600160401b03821680159081611126575b600114908161111c575b159081611113575b506111025767ffffffffffffffff1982166001176000805160206122b08339815191525561105691846110d5575b5061104e6121c0565b6102666121c0565b61105e6121c0565b6001600160a01b03168015610ca557600160a01b1760015561107c57005b68ff0000000000000000196000805160206122b083398151915254166000805160206122b0833981519152557fc7f505b2f371ae2175ee4913f4499e1f2633a7b5936321eed1cdaeb6115181d2602060405160018152a1005b68ffffffffffffffffff191668010000000000000001176000805160206122b08339815191525584611045565b63f92ee8a960e01b60005260046000fd5b90501585611017565b303b15915061100f565b859150611005565b346101a15760603660031901126101a15760043561114a611e24565b906044356001600160401b0381116101a15761116a903690600401611df7565b600154919390916001600160a01b031633036106cb57611188612196565b826000526002602052604060002054156114a7576001600160801b031690811561149157801561145d578260005260026020526040600020906001820194855460ff8160a01c1660058110156105a85760038103611444575060a81c60ff1660028110156105a8576001810361142b5750855460ff60a01b1916600160a21b1786556002830180546001600160801b031916851781559160088401916001600160401b03821161141557819061123e8454611f09565b601f81116113c2575b50600090601f831160011461135c57600092611351575b50508160011b916000199060031b1c19161790555b60038201906001600160801b0382541682556001600160801b0381541690556001600160801b03198154169055600481019165ffffffffffff60a01b198354168355825492600163ffffffff8560d01c16019563ffffffff871161068a5763ffffffff60d01b1990941660d087901b63ffffffff60d01b16179055600591909101805465ffffffffffff19164265ffffffffffff1617905590546040805192835263ffffffff9490941660208301526001600160a01b0316927f0968b28d612c6ec08a78a8ecf9cd03c75d6498aaafd33d3b59b2fe1f3e7c357991a3005b01359050888061125e565b84825260208220925090601f198416815b8181106113aa5750908460019594939210611390575b505050811b019055611273565b0135600019600384901b60f8161c19169055888080611383565b9193602060018192878701358155019501920161136d565b909150836000526020600020601f840160051c8101916020851061140b575b90601f859493920160051c01905b8181106113fc5750611247565b600081558493506001016113ef565b90915081906113e1565b634e487b7160e01b600052604160045260246000fd5b637743706760e11b6000526004869052610ccf90611eee565b63de0b727f60e01b6000526004879052610ccf90611ed3565b604051630885b9e560e21b815260206004820152600b60248201526a6d6574616461746155524960a81b6044820152606490fd5b63cb77965f60e01b600052600060045260246000fd5b8263ad917ae760e01b60005260045260246000fd5b346101a15760003660031901126101a1576114d5612160565b6000805160206122908339815191525460ff81161561152e5760ff1916600080516020612290833981519152557f5db9ee0a495bf2e6ff9c91a7834c1ba4fdd244a5e8aa4e537bd38aeae4b073aa6020604051338152a1005b638dfc202b60e01b60005260046000fd5b346101a15760403660031901126101a15760043561155b611de1565b6001546001600160a01b031633036106cb57611575612196565b816000526002602052604060002054156106b65761026b91611fa8565b346101a15760203660031901126101a1576001600160a01b036115b3611dcb565b16600052600360205260406000206040518060208354918281520190819360005260206000209060005b81811061163657505050816115f3910382611e56565b6040519182916020830190602084525180915260408301919060005b81811061161d575050500390f35b825184528594506020938401939092019160010161160f565b82548452602090930192600192830192016115dd565b346101a15760203660031901126101a157611665611dcb565b61166d612160565b6001600160a01b03168015610ca557600180546001600160a01b0319811683179091556001600160a01b03167f0722e63019d0f4ad2a7f0e5a2a5733391d6cab7528be04d6d76768ee8cc57318600080a3005b346101a15760c03660031901126101a1576116d9611dcb565b6024356001600160401b0381116101a1576116f8903690600401611df7565b906044356001600160401b0381116101a157611718903690600401611df7565b90926064356001600160401b0381116101a157611739903690600401611df7565b929095608435916001600160801b03831683036101a157600260a43510156101a157611763612160565b61176b612196565b600260005414611d805760026000556001600160a01b03821615611d6a578315611d38578015611d0257841561145d576001600160801b038316156114915785816117fb601487898d8160208f889060405199878b98858a019d8e378801918483016000815237010191600083528237016001600160601b03198860601b16815203600b19810184520182611e56565b5190209586600052600460205260ff60406000205416611cec57600154966001600160601b038860a01c1461068a576001600160a01b0380891660a08a811c600181810190921b6001600160a01b0319169290921781556000938452600460209081526040808620805460ff191684179055838652600291829052852092835590820180546001600160e01b0319169388169390931760a43560a81b60ff60a81b16174260b01b65ffffffffffff60b01b161790925590810180546001600160801b0319166001600160801b0388161790559096600682016001600160401b038811611c25576118eb8154611f09565b601f8111611ca7575b508789601f8211600114611c44578a91611c39575b508860011b906000198a60031b1c19161790555b600782016001600160401b038511611c25576119398154611f09565b601f8111611be0575b508489601f8211600114611b7d578a91611b72575b508560011b906000198760031b1c19161790555b6001600160401b038111611b5e576119866008830154611f09565b601f8111611b16575b5060209a8890601f8311600114611a75576001600160801b0394611a379460088560019e9f967f927e4892fb46b70593566fc60275103a3deb426bc5387e7d236b47899a8ed1719b9a968f96611a2a9792611a6a575b5050600019600383901b1c1916908f1b179101555b8b8060a01b0387168b5260038e52611a188d60a01c60408d20611f43565b6040519960808b5260808b0191611f87565b918883038d8a0152611f87565b93166040850152611a4d6060850160a435611efc565b858060a01b031692808760a01c930390a3556040519060a01c8152f35b0135905038806119e5565b600884018a528c8a20918a5b601f1985168110611aff575094611a379460086001809e9f967f927e4892fb46b70593566fc60275103a3deb426bc5387e7d236b47899a8ed1719b9a96611a2a966001600160801b039b83601f19811610611ae5575b505050811b019101556119fa565b0135600019600384901b60f8161c19169055388080611ad7565b90928e600181928686013581550194019101611a81565b60088301895260208920601f830160051c81019160208410611b54575b601f0160051c01905b818110611b49575061198f565b898155600101611b3c565b9091508190611b33565b634e487b7160e01b88526041600452602488fd5b90508b01358d611957565b828b5260208b2091601f1981168c8f5b828210611bc557505010611bab575b5050600185811b01905561196b565b8c0135600019600388901b60f8161c191690558c80611b9c565b84013585556001909401936020938401938a9350018f611b8d565b818a5260208a20601f870160051c81019160208810611c1b575b601f0160051c01905b818110611c105750611942565b8a8155600101611c03565b9091508190611bfa565b634e487b7160e01b89526041600452602489fd5b90508401358d611909565b828b5260208b20915089601f1981168c5b818110611c8c575010611c72575b5050600188811b01905561191d565b85013560001960038b901b60f8161c191690558c80611c63565b8884013585556001909401936020938401938d935001611c55565b818a5260208a20601f8a0160051c81019160208b10611ce2575b601f0160051c01905b818110611cd757506118f4565b8a8155600101611cca565b9091508190611cc1565b63160df02d60e01b600052600060045260246000fd5b604051630885b9e560e21b815260206004820152600d60248201526c617373657443617465676f727960981b6044820152606490fd5b604051630885b9e560e21b815260206004820152600960248201526861737365744e616d6560b81b6044820152606490fd5b63d86ad9cf60e01b600052600060045260246000fd5b633ee5aeb560e01b60005260046000fd5b346101a15760003660031901126101a15760015460a01c60001901906001600160601b03821161068a576001600160601b03602092168152f35b600435906001600160a01b03821682036101a157565b602435906001600160a01b03821682036101a157565b9181601f840112156101a1578235916001600160401b0383116101a157602083818601950101116101a157565b602435906001600160801b03821682036101a157565b61020081019081106001600160401b0382111761141557604052565b90601f801991011681019081106001600160401b0382111761141557604052565b6001600160401b03811161141557601f01601f191660200190565b919082519283825260005b848110611ebe575050826000602080949584010152601f8019910116010190565b80602080928401015182828601015201611e9d565b60058110156105a857602452565b9060058210156105a85752565b60028110156105a857602452565b9060028210156105a85752565b90600182811c92168015611f39575b6020831014611f2357565b634e487b7160e01b600052602260045260246000fd5b91607f1691611f18565b805490680100000000000000008210156114155760018201808255821015611f715760005260206000200155565b634e487b7160e01b600052603260045260246000fd5b908060209392818452848401376000828201840152601f01601f1916010190565b6001600160a01b0390911690811561203557600081815260026020526040902060010180546001600160a01b0316919083831461202f57836001600160601b0360a01b825416179055826000526003602052612008816040600020611f43565b7f13cf96f09478ba4f1656edd4ca9b6ade0f0475782ae91c5615553f050d9741c1600080a4565b50505050565b638f29a50960e01b60005260046000fd5b906040519182600082549261205a84611f09565b80845293600181169081156120c85750600114612081575b5061207f92500383611e56565b565b90506000929192526020600020906000915b8183106120ac57505090602061207f9282010138612072565b6020919350806001915483858901015201910190918492612093565b90506020925061207f94915060ff191682840152151560051b82010138612072565b6001600160a01b0316801561214a5760008051602061225083398151915280546001600160a01b0319811683179091556001600160a01b03167f8be0079c531659141344cd1fd0a4f28419497f9722a3daafe3b4186f6b6457e0600080a3565b631e4fbdf760e01b600052600060045260246000fd5b600080516020612250833981519152546001600160a01b0316330361218157565b63118cdaa760e01b6000523360045260246000fd5b60ff60008051602061229083398151915254166121af57565b63d93c066560e01b60005260046000fd5b60ff6000805160206122b08339815191525460401c16156121dd57565b631afcd79f60e31b60005260046000fd5b90612214575080511561220357805190602001fd5b630a12f52160e11b60005260046000fd5b81511580612246575b612225575090565b639996b31560e01b60009081526001600160a01b0391909116600452602490fd5b50803b1561221d56fe9016d09d72d40fdae2fd8ceac6b6234c7706214fd39c1cd1e609a0528c199300360894a13ba1a3210667c828492db98dca3e2076cc3735a920a3ca505d382bbccd5ed15c6e187e77e9aee88184c21f4f2182ab5827cb3b7e07fbedcd63f03300f0c57e16840df040f15088dc2f81fe391c3923bec73e23a9662efc9c229c6a00a2646970667358221220f93610992a4a9d49c0ac01b3d8a8eeaf5cdcc5d93e9a103ac0b433135fe43b6d64736f6c634300081e0033",
  "devdoc": {
    "author": "@0xJonaseb11",
    "details": "Registry state only; investment logic and token issuance live in separate contracts. UUPS upgradeable, pausable.",
    "errors": {
      "AddressEmptyCode(address)": [
        {
          "details": "There's no code at `target` (it is not a contract)."
        }
      ],
      "ERC1967InvalidImplementation(address)": [
        {
          "details": "The `implementation` of the proxy is invalid."
        }
      ],
      "ERC1967NonPayable()": [
        {
          "details": "An upgrade function sees `msg.value > 0` that may be lost."
        }
      ],
      "EnforcedPause()": [
        {
          "details": "The operation failed because the contract is paused."
        }
      ],
      "ExpectedPause()": [
        {
          "details": "The operation failed because the contract is not paused."
        }
      ],
      "FailedInnerCall()": [
        {
          "details": "A call to an address target failed. The target may have reverted."
        }
      ],
      "InvalidInitialization()": [
        {
          "details": "The contract is already initialized."
        }
      ],
      "NotInitializing()": [
        {
          "details": "The contract is not initializing."
        }
      ],
      "OwnableInvalidOwner(address)": [
        {
          "details": "The owner is not a valid owner account. (eg. `address(0)`)"
        }
      ],
      "OwnableUnauthorizedAccount(address)": [
        {
          "details": "The caller account is not authorized to perform an operation."
        }
      ],
      "ReentrancyGuardReentrantCall()": [
        {
          "details": "Unauthorized reentrant call."
        }
      ],
      "UUPSUnauthorizedCallContext()": [
        {
          "details": "The call is from an unauthorized context."
        }
      ],
      "UUPSUnsupportedProxiableUUID(bytes32)": [
        {
          "details": "The storage `slot` is unsupported as a UUID."
        }
      ]
    },
    "events": {
      "Initialized(uint64)": {
        "details": "Triggered when the contract has been initialized or reinitialized."
      },
      "Paused(address)": {
        "details": "Emitted when the pause is triggered by `account`."
      },
      "Unpaused(address)": {
        "details": "Emitted when the pause is lifted by `account`."
      },
      "Upgraded(address)": {
        "details": "Emitted when the implementation is upgraded."
      }
    },
    "kind": "dev",
    "methods": {
      "approveAsset(uint256)": {
        "params": {
          "assetId": "Asset identifier to approve."
        }
      },
      "closeAsset(uint256)": {
        "params": {
          "assetId": "Asset identifier to close."
        }
      },
      "getAsset(uint256)": {
        "params": {
          "assetId": "Identifier of the asset to retrieve."
        },
        "returns": {
          "rec": "Complete AssetRecord struct."
        }
      },
      "getAssetState(uint256)": {
        "params": {
          "assetId": "Asset identifier to query."
        },
        "returns": {
          "_0": "Current AssetState enum value."
        }
      },
      "getAssetsByOwner(address)": {
        "params": {
          "assetOwner": "Owner address to query."
        },
        "returns": {
          "ids": "Array of asset IDs."
        }
      },
      "getFundingProgress(uint256)": {
        "params": {
          "assetId": "Asset to query."
        },
        "returns": {
          "soldShares": "Shares purchased in this round.",
          "totalShares": "Total shares in this round."
        }
      },
      "getRelistCount(uint256)": {
        "params": {
          "assetId": "Asset to query."
        },
        "returns": {
          "count": "Relist count."
        }
      },
      "initialize(address,address)": {
        "params": {
          "initialOwner": "Address that will own the registry.",
          "initialTokenizer": "Address granted TOKENIZER_ROLE (e.g. InvestmentManager)."
        }
      },
      "owner()": {
        "details": "Returns the address of the current owner."
      },
      "paused()": {
        "details": "Returns true if the contract is paused, and false otherwise."
      },
      "proxiableUUID()": {
        "details": "Implementation of the ERC1822 {proxiableUUID} function. This returns the storage slot used by the implementation. It is used to validate the implementation's compatibility when performing an upgrade. IMPORTANT: A proxy pointing at a proxiable contract should not be considered proxiable itself, because this risks bricking a proxy that upgrades to it, by delegating to itself until out of gas. Thus it is critical that this function revert if invoked through a proxy. This is guaranteed by the `notDelegated` modifier."
      },
      "recordSharesSold(uint256,uint128)": {
        "params": {
          "assetId": "Asset receiving the purchase.",
          "sharesDelta": "Number of shares just purchased."
        }
      },
      "recordTokenization(uint256,address,uint128,uint128)": {
        "params": {
          "assetId": "Asset to mark as tokenized.",
          "pricePerShare": "Price per share in payment token units.",
          "tokenContract": "Deployed fractional ERC20 address.",
          "totalShares": "Total ERC20 supply for this round."
        }
      },
      "registerAsset(address,string,string,string,uint128,uint8)": {
        "params": {
          "assetCategory": "Category (e.g. \"Real Estate\").",
          "assetName": "Human-readable name.",
          "assetOwner": "Address of the asset owner.",
          "metadataURI": "URI for off-chain documentation.",
          "model": "WHOLE_OWNERSHIP or FRACTIONAL.",
          "valuation": "USD valuation (6 decimals)."
        },
        "returns": {
          "assetId": "Assigned asset identifier."
        }
      },
      "relistAsset(uint256,uint128,string)": {
        "details": "Resets soldShares, totalShares, pricePerShare, tokenizedAt; sets valuation and metadataURI. Increments relistCount.",
        "params": {
          "assetId": "Asset to relist (must be CLOSED).",
          "newMetadataURI": "URI for fresh legal/valuation docs.",
          "newValuation": "USD valuation for the new round."
        }
      },
      "renounceOwnership()": {
        "details": "Leaves the contract without owner. It will not be possible to call `onlyOwner` functions. Can only be called by the current owner. NOTE: Renouncing ownership will leave the contract without an owner, thereby disabling any functionality that is only available to the owner."
      },
      "setTokenizer(address)": {
        "params": {
          "newTokenizer": "Address to assign as tokenizer."
        }
      },
      "totalAssets()": {
        "returns": {
          "count": "Total registered asset count (all states)."
        }
      },
      "transferAssetOwnership(uint256,address)": {
        "params": {
          "assetId": "Asset whose ownership is transferring.",
          "newOwner": "New full owner address."
        }
      },
      "transferOwnership(address)": {
        "details": "Transfers ownership of the contract to a new account (`newOwner`). Can only be called by the current owner."
      },
      "upgradeToAndCall(address,bytes)": {
        "custom:oz-upgrades-unsafe-allow-reachable": "delegatecall",
        "details": "Upgrade the implementation of the proxy to `newImplementation`, and subsequently execute the function call encoded in `data`. Calls {_authorizeUpgrade}. Emits an {Upgraded} event."
      }
    },
    "title": "VaulticAssetRegistry",
    "version": 1
  },
  "userdoc": {
    "kind": "user",
    "methods": {
      "approveAsset(uint256)": {
        "notice": "Transitions an asset from PENDING → ACTIVE, enabling investment."
      },
      "closeAsset(uint256)": {
        "notice": "Marks an asset as CLOSED. Callable by owner or tokenizer."
      },
      "getAsset(uint256)": {
        "notice": "Returns the full canonical record for a given asset."
      },
      "getAssetState(uint256)": {
        "notice": "Returns the current state of an asset."
      },
      "getAssetsByOwner(address)": {
        "notice": "Returns all asset IDs ever associated with an owner (includes historical)."
      },
      "getFundingProgress(uint256)": {
        "notice": "Returns funding progress for the current offering round (reset on relist)."
      },
      "getRelistCount(uint256)": {
        "notice": "Returns how many times the asset has been relisted (0 = original round)."
      },
      "initialize(address,address)": {
        "notice": "Initializes the upgradeable proxy."
      },
      "pause()": {
        "notice": "Pauses all state-changing operations. Emergency circuit breaker."
      },
      "recordSharesSold(uint256,uint128)": {
        "notice": "Increments the sold-share counter for a fractional asset. Tokenizer-only."
      },
      "recordTokenization(uint256,address,uint128,uint128)": {
        "notice": "Links an ERC20 to a FRACTIONAL asset and marks it TOKENIZED. Tokenizer-only."
      },
      "registerAsset(address,string,string,string,uint128,uint8)": {
        "notice": "Registers a new real-world asset. Owner-only; deduplicated by content hash."
      },
      "relistAsset(uint256,uint128,string)": {
        "notice": "Transitions a CLOSED FRACTIONAL asset to RELISTED for a fresh offering round. Tokenizer-only."
      },
      "setTokenizer(address)": {
        "notice": "Grants TOKENIZER_ROLE to a new address."
      },
      "totalAssets()": {
        "notice": "Returns the total number of assets ever registered."
      },
      "transferAssetOwnership(uint256,address)": {
        "notice": "Updates registered assetOwner when full ownership transfers. Tokenizer-only; call before relistAsset."
      },
      "unpause()": {
        "notice": "Restores normal operation after a pause."
      }
    },
    "notice": "On-chain registry for real-world assets tokenized via Vaultic Trust. Lifecycle: PENDING → ACTIVE → TOKENIZED → CLOSED; CLOSED may transition to RELISTED for a new offering round.",
    "version": 1
  },
  "storageLayout": {
    "storage": [
      {
        "astId": 3194,
        "contract": "contracts/core/VaultAssetRegistry.sol:VaulticAssetRegistry",
        "label": "_status",
        "offset": 0,
        "slot": "0",
        "type": "t_uint256"
      },
      {
        "astId": 3563,
        "contract": "contracts/core/VaultAssetRegistry.sol:VaulticAssetRegistry",
        "label": "tokenizer",
        "offset": 0,
        "slot": "1",
        "type": "t_address"
      },
      {
        "astId": 3565,
        "contract": "contracts/core/VaultAssetRegistry.sol:VaulticAssetRegistry",
        "label": "_assetCounter",
        "offset": 20,
        "slot": "1",
        "type": "t_uint96"
      },
      {
        "astId": 3570,
        "contract": "contracts/core/VaultAssetRegistry.sol:VaulticAssetRegistry",
        "label": "_assets",
        "offset": 0,
        "slot": "2",
        "type": "t_mapping(t_uint256,t_struct(AssetRecord)3494_storage)"
      },
      {
        "astId": 3575,
        "contract": "contracts/core/VaultAssetRegistry.sol:VaulticAssetRegistry",
        "label": "_ownerAssets",
        "offset": 0,
        "slot": "3",
        "type": "t_mapping(t_address,t_array(t_uint256)dyn_storage)"
      },
      {
        "astId": 3579,
        "contract": "contracts/core/VaultAssetRegistry.sol:VaulticAssetRegistry",
        "label": "_registrationGuard",
        "offset": 0,
        "slot": "4",
        "type": "t_mapping(t_bytes32,t_bool)"
      },
      {
        "astId": 3583,
        "contract": "contracts/core/VaultAssetRegistry.sol:VaulticAssetRegistry",
        "label": "__gap",
        "offset": 0,
        "slot": "5",
        "type": "t_array(t_uint256)50_storage"
      }
    ],
    "types": {
      "t_address": {
        "encoding": "inplace",
        "label": "address",
        "numberOfBytes": "20"
      },
      "t_array(t_uint256)50_storage": {
        "base": "t_uint256",
        "encoding": "inplace",
        "label": "uint256[50]",
        "numberOfBytes": "1600"
      },
      "t_array(t_uint256)dyn_storage": {
        "base": "t_uint256",
        "encoding": "dynamic_array",
        "label": "uint256[]",
        "numberOfBytes": "32"
      },
      "t_bool": {
        "encoding": "inplace",
        "label": "bool",
        "numberOfBytes": "1"
      },
      "t_bytes32": {
        "encoding": "inplace",
        "label": "bytes32",
        "numberOfBytes": "32"
      },
      "t_enum(AssetState)3455": {
        "encoding": "inplace",
        "label": "enum VaulticAssetRegistry.AssetState",
        "numberOfBytes": "1"
      },
      "t_enum(OwnershipModel)3458": {
        "encoding": "inplace",
        "label": "enum VaulticAssetRegistry.OwnershipModel",
        "numberOfBytes": "1"
      },
      "t_mapping(t_address,t_array(t_uint256)dyn_storage)": {
        "encoding": "mapping",
        "key": "t_address",
        "label": "mapping(address => uint256[])",
        "numberOfBytes": "32",
        "value": "t_array(t_uint256)dyn_storage"
      },
      "t_mapping(t_bytes32,t_bool)": {
        "encoding": "mapping",
        "key": "t_bytes32",
        "label": "mapping(bytes32 => bool)",
        "numberOfBytes": "32",
        "value": "t_bool"
      },
      "t_mapping(t_uint256,t_struct(AssetRecord)3494_storage)": {
        "encoding": "mapping",
        "key": "t_uint256",
        "label": "mapping(uint256 => struct VaulticAssetRegistry.AssetRecord)",
        "numberOfBytes": "32",
        "value": "t_struct(AssetRecord)3494_storage"
      },
      "t_string_storage": {
        "encoding": "bytes",
        "label": "string",
        "numberOfBytes": "32"
      },
      "t_struct(AssetRecord)3494_storage": {
        "encoding": "inplace",
        "label": "struct VaulticAssetRegistry.AssetRecord",
        "members": [
          {
            "astId": 3461,
            "contract": "contracts/core/VaultAssetRegistry.sol:VaulticAssetRegistry",
            "label": "assetId",
            "offset": 0,
            "slot": "0",
            "type": "t_uint256"
          },
          {
            "astId": 3463,
            "contract": "contracts/core/VaultAssetRegistry.sol:VaulticAssetRegistry",
            "label": "assetOwner",
            "offset": 0,
            "slot": "1",
            "type": "t_address"
          },
          {
            "astId": 3466,
            "contract": "contracts/core/VaultAssetRegistry.sol:VaulticAssetRegistry",
            "label": "state",
            "offset": 20,
            "slot": "1",
            "type": "t_enum(AssetState)3455"
          },
          {
            "astId": 3469,
            "contract": "contracts/core/VaultAssetRegistry.sol:VaulticAssetRegistry",
            "label": "model",
            "offset": 21,
            "slot": "1",
            "type": "t_enum(OwnershipModel)3458"
          },
          {
            "astId": 3471,
            "contract": "contracts/core/VaultAssetRegistry.sol:VaulticAssetRegistry",
            "label": "registeredAt",
            "offset": 22,
            "slot": "1",
            "type": "t_uint48"
          },
          {
            "astId": 3473,
            "contract": "contracts/core/VaultAssetRegistry.sol:VaulticAssetRegistry",
            "label": "valuation",
            "offset": 0,
            "slot": "2",
            "type": "t_uint128"
          },
          {
            "astId": 3475,
            "contract": "contracts/core/VaultAssetRegistry.sol:VaulticAssetRegistry",
            "label": "totalShares",
            "offset": 16,
            "slot": "2",
            "type": "t_uint128"
          },
          {
            "astId": 3477,
            "contract": "contracts/core/VaultAssetRegistry.sol:VaulticAssetRegistry",
            "label": "pricePerShare",
            "offset": 0,
            "slot": "3",
            "type": "t_uint128"
          },
          {
            "astId": 3479,
            "contract": "contracts/core/VaultAssetRegistry.sol:VaulticAssetRegistry",
            "label": "soldShares",
            "offset": 16,
            "slot": "3",
            "type": "t_uint128"
          },
          {
            "astId": 3481,
            "contract": "contracts/core/VaultAssetRegistry.sol:VaulticAssetRegistry",
            "label": "tokenContract",
            "offset": 0,
            "slot": "4",
            "type": "t_address"
          },
          {
            "astId": 3483,
            "contract": "contracts/core/VaultAssetRegistry.sol:VaulticAssetRegistry",
            "label": "tokenizedAt",
            "offset": 20,
            "slot": "4",
            "type": "t_uint48"
          },
          {
            "astId": 3485,
            "contract": "contracts/core/VaultAssetRegistry.sol:VaulticAssetRegistry",
            "label": "relistCount",
            "offset": 26,
            "slot": "4",
            "type": "t_uint32"
          },
          {
            "astId": 3487,
            "contract": "contracts/core/VaultAssetRegistry.sol:VaulticAssetRegistry",
            "label": "relistedAt",
            "offset": 0,
            "slot": "5",
            "type": "t_uint48"
          },
          {
            "astId": 3489,
            "contract": "contracts/core/VaultAssetRegistry.sol:VaulticAssetRegistry",
            "label": "assetName",
            "offset": 0,
            "slot": "6",
            "type": "t_string_storage"
          },
          {
            "astId": 3491,
            "contract": "contracts/core/VaultAssetRegistry.sol:VaulticAssetRegistry",
            "label": "assetCategory",
            "offset": 0,
            "slot": "7",
            "type": "t_string_storage"
          },
          {
            "astId": 3493,
            "contract": "contracts/core/VaultAssetRegistry.sol:VaulticAssetRegistry",
            "label": "metadataURI",
            "offset": 0,
            "slot": "8",
            "type": "t_string_storage"
          }
        ],
        "numberOfBytes": "288"
      },
      "t_uint128": {
        "encoding": "inplace",
        "label": "uint128",
        "numberOfBytes": "16"
      },
      "t_uint256": {
        "encoding": "inplace",
        "label": "uint256",
        "numberOfBytes": "32"
      },
      "t_uint32": {
        "encoding": "inplace",
        "label": "uint32",
        "numberOfBytes": "4"
      },
      "t_uint48": {
        "encoding": "inplace",
        "label": "uint48",
        "numberOfBytes": "6"
      },
      "t_uint96": {
        "encoding": "inplace",
        "label": "uint96",
        "numberOfBytes": "12"
      }
    }
  }
}